:100000000C94CE020C9406030C9406030C94FB3162
:100010000C9406030C9406030C9406030C9406033C
:100020000C9406030C9406030C949F1B0C945B1B0E
:100030000C942F2D0C9406030C9406030C940603C9
:100040000C9406030C9406030C9406030C9406030C
:100050000C9406030C94861C0C9406030C94060363
:100060000C9406030C9406030C9406030C940603EC
:100070000C9406030C9406030C9406030C940603DC
:100080000C9406030C9406030C9406030C940603CC
:100090000C9406030C9406030C9406030C940603BC
:1000A0000C9406030C9406030C940603080013003A
:1000B0000000140013000000042834380000100071
:1000C000360000000600190000001C0018000000A7
:1000D0001500170000000D320E3100000721092223
:1000E000000005010980A101850319012AB7001547
:1000F0000126B700950175108100C0050C0901A10A
:1001000001850419012AA002150126A00295017596
:10011000108100C005010902A1010901A100050922
:1001200019012908150025019508750181020501AD
:10013000093009311581257F950275088106093836
:100140001581257F950175088106050C0A38021571
:1001500081257F950175088106C0C005010906A1AA
:1001600001050719E029E7150025019508750181AA
:10017000029501750881010507190029FF15002660
:10018000FF0095067508810005081901290515006D
:100190002501950575019102950175039101C01422
:1001A000001A440800150017000428162407210926
:1001B000220A001D001B000600190005002B41004B
:1001C0000029432C420000130012000C0018001CF0
:1001D0000034380F340E310D320B00380037003642
:1001E0000010001100284600002A45000000000011
:1001F000000000000000000000E300E200E000E179
:1002000000000000000000000000000000010000ED
:100210000000000000000045004200410040004690
:100220000044003F003E003D00470043003C003BCF
:10023000003A004800000000004C000000000000F0
:10024000000000000000000000E300E200E000E128
:10025000000000000000000000000000000000009E
:10026000000000010000000000000000000000008D
:10027000004F0052005100500039004D004B004E1D
:10028000004A004900280000002A00000000000089
:10029000002278207821780000AC00AA00A800A9EC
:1002A00000AB00000000000000037C007CAD0000FB
:1002B000000100AE000000000021782078227800C4
:1002C00000AB00A900A800AA00AC000000000000DC
:1002D00000037C007CAD000000AE000000000000C8
:1002E000000000067E01000100E300E200E000E102
:1002F0000000000100067E047E037C007CD200002A
:1003000000D300D1000000000000000000007E02C9
:100310007EE300E200E000E10000000100067E0450
:100320007E037C007CD4000000D500000000002F7C
:100330000024002500260030003300210022002385
:10034000002E0035001E001F00200031002D00008F
:10035000003700270000000000000000000000003F
:10036000002D002E022502380000000000000000D1
:100370000000003700000000000100000000002F16
:100380000224022502260230023302210222022325
:10039000022E0235021E021F02200231022D02002F
:1003A0000026024C000000000000000000000000D9
:1003B00000E300E200E000E10000000000000000B7
:1003C000000000000001000000000000000000002C
:1003D0000101010101010101010202020202020206
:1003E00002020303030303030303040404040404D9
:1003F000040505050505060606060607070707079F
:1004000008080808090909090A0A0A0B0B0B0C0C51
:100410000C0D0D0D0E0E0E0F0F0F101011111112ED
:100420001213131414151516161717181819191A6C
:100430001A1B1B1C1D1D1E1E1F20202122222324CF
:1004400024252626272829292A2B2C2D2D2E2F300E
:10045000313232333435363738393A3B3C3D3E3F22
:10046000404142434445464748494A4C4D4E4F500F
:10047000515354555658595A5B5D5E5F61626465CD
:100480006668696B6C6D6F7072737577787A7B7D57
:100490007E8082838587888A8C8E8F9193959698AB
:1004A0009A9C9EA0A2A3A5A7A9ABADAFB1B3B5B7C7
:1004B000BABCBEC0C2C4C6C9CBCDCFD1D4D6D8DB9E
:1004C000DDDFE2E4E7E9EBEEF0F3F5F8FAFDFF0932
:1004D000025400030100A0FA090400000103010115
:1004E00000092111010001224400070581030800D1
:1004F00001090401000103010200092111010001A9
:1005000022470007058203100001090402000103CD
:1005100000000009211101000122320007058303B8
:100520002000011201000200000008F8A8321800A3
:1005300002010200013A0343006800610072007981
:1005400000620064006900730020004E0061006ECC
:10055000006F0020002800330078003500290020BB
:100560000045006C006900740065002D0043000028
:100570000024034200610073007400610072006493
:100580000020004B006500790062006F006100727E
:1005900000640073000000040309040011241FBE5E
:1005A000CFEFDAE0DEBFCDBF04B603FE18C0809106
:1005B0003B0590913C05A0913D05B0913E058730EB
:1005C000904BA740B04B59F410923B0510923C055C
:1005D00010923D0510923E05E0E0F8E3099512E027
:1005E000A0E0B1E0EEECFCE602C005900D92A2396D
:1005F000B107D9F725E0A2E9B2E001C01D92AB3303
:10060000B207E1F70E94562D0C94DC350C940000E3
:1006100090913005937059F08093310560933205C5
:100620004093330580912F05816080932F050895B5
:1006300090913005937061F081110BC0946090939C
:10064000300510929C0180912F05816080932F05C9
:1006500008958A3210F0946AF2CF880F880F982B91
:10066000EECF482F20912B059091E20459E02913F9
:1006700002C080E0089530E0529FF001539FF00DDA
:100680001124ED51FB4F8181681306C0808148130E
:1006900003C085818111EECF2F5F3F4F2770E7CFD9
:1006A000E8EDF0E080818E7F80831092E20010926E
:1006B000DA001092E100A0EEB0E08C9181608C93A2
:1006C00080818F77808319BCA7EDB0E08C918E7FFD
:1006D0008C9380818F7E808310929C04089520915A
:1006E000E4003091E50095E6A9012091EC00822F0D
:1006F000817020FF06C08091E80080FF06C080E086
:1007000008952091E80022FD1AC08091A704882353
:1007100089F0853089F08091EB0085FD0FC0209134
:10072000E4003091E50042175307F9F29150E1F6E9
:1007300084E0089582E0089583E0089581E00895BB
:100740008091A90487FF13C08091E80082FF06C052
:100750008091E8008B778093E80004C08091A70423
:100760008111F2CF08958091A7048823D9F3809155
:10077000E80080FFF8CF8091E8008E77ECCF982FCB
:100780009093E900242F762F50E0891731F0709173
:10079000EC002091ED005091F00021FD07C09F5F1B
:1007A000973071F78093E90081E008953091EB0074
:1007B0003E7F3093EB003091ED003D7F3093ED00B4
:1007C0003091EB0031603093EB007093EC0020939C
:1007D000ED005093F0002091EE0027FDE0CF80E087
:1007E0000895B0E0A0E0E7EFF3E00C945434C8EDD6
:1007F000D0E088818F7E8883E7EDF0E080818160A2
:10080000808384E082BF81E080939C0488818E7F16
:10081000888302EE10E0F80110821092DA0081EE77
:10082000C82ED12CF601108288818F778883888129
:100830008068888388818F7D888319BC1092A70483
:100840001092A8041092A6041092A50490EEE92E2E
:10085000F12CF70180818B7F808388818160888380
:1008600042E060E080E00E94BF03F60180818E7F5D
:100870008083F801808181608083808188608083AB
:10088000F70180818E7F8083888180618883CDB7E6
:10089000DEB7E8E00C947034FC018091AF049091D5
:1008A000B00486179707A0F06115710529F490919F
:1008B000E8009E779093E80090E06115710551F48F
:1008C000911108C08091E80082FF34C080E0089553
:1008D000BC01F2CF8091A7048823C1F18530C1F11A
:1008E0008091E80083FD30C08091E80082FDEACF6E
:1008F0008091E80080FFE1CF8091F3002091F20029
:10090000382F6115710519F02830310558F091E044
:100910002830310509F090E02091E8002E772093EF
:10092000E800CBCF81918093F100615071092F5F76
:100930003F4FE7CF8091A704882341F0853041F0F5
:100940008091E80083FFBECF81E0089582E00895A2
:1009500083E008950895CF92DF92EF92FF922FB730
:10096000F894C0909804D0909904E0909A04F09084
:100970009B042FBFA7019601261B370B480B590B71
:10098000CA01B901FF90EF90DF90CF9008959C01CC
:100990004FB7F8948091980490919904A0919A048B
:1009A000B0919B044FBF821B930B08952FB7F8940F
:1009B000609198047091990480919A0490919B049D
:1009C0002FBF08958091960108959C01FC013296F5
:1009D0009FEF80E04191461751F09F3F19F441117C
:1009E00001C0982F8F5F8630A9F79F3F09F40895C3
:1009F000290F311D97FD3A95F90162830895A3E00F
:100A0000B0E0E5E0F5E00C945A3420919504309183
:100A1000960428173907A1F09093960480939504C3
:100A2000E0919304F0919404309751F024E02983ED
:100A30009B838A830084F185E02DCE010196099580
:100A40002396E2E00C947634A3E0B0E0EAE2F5E02D
:100A50000C945A342091910430919204281739074C
:100A6000A1F09093920480939104E0919304F0910B
:100A70009404309751F023E029839B838A83008478
:100A8000F185E02DCE01019609952396E2E00C94C4
:100A900076348091B304882359F0E0919304F09167
:100AA0009404309729F00190F081E02D0995089584
:100AB00080E00895FC01680F791F8FEF91E3219189
:100AC000822728E030E087FF09C0880F892721505E
:100AD0003109C9F7E617F70791F70895880FF7CF9F
:100AE000AC0180918D0460918E04982F691301C030
:100AF0000895292F30E0F901EE0FFF1FEB57FB4F50
:100B00000190F081E02DE417F507C1F4F0E0E0E09A
:100B10004930510540F467E0649FF001659FF00D96
:100B20001124EB5AFE4F41E044839813E1CF2F5F2D
:100B30003F4F2370332720938D0408952F5F3F4F3D
:100B4000922F9370D3CF1092190410921804E5E5F8
:100B5000F1E084E991E02581211102C0148216821E
:100B600037968E179F07B9F70895FC01EE0FFF1F08
:100B7000E80FF91FE455FC4F6183408322830895F9
:100B8000539A0895E0E3F5E0248130E1231B08F453
:100B900020E0248380912F05816080932F050895A4
:100BA000E0E3F5E0248130E1230F08F42FEF248304
:100BB00080912F05816080932F050895E0E3F5E093
:100BC000438120E1421B08F440E08181628190E092
:100BD0000E9408030895E0E3F5E0438120E1420F1D
:100BE00008F44FEF8181628190E00E94080308952C
:100BF000E0E3F5E0628120E1621B08F460E08181BE
:100C0000438190E00E9408030895E0E3F5E06281EB
:100C100020E1620F08F46FEF8181438190E00E9430
:100C200008030895E0E3F5E0818143816281885003
:100C3000990B0E9408030895E0E3F5E0818190E0BC
:100C40004381628108960E940803089580913005CF
:100C500086958695815009F489E20E9418030895CB
:100C600080913005869586958F5F8A3208F081E005
:100C70000E9418030895E0E3F5E0808191E0892760
:100C8000808310929C0180912F05816080932F05B5
:100C90000895880F880F880F98E0980F953208F014
:100CA00094E22091B404222321F0933128F092E1C0
:100CB0000895823108F482E108958093540180916F
:100CC00030058370809353010E94DF1183E080938D
:100CD0009C010895EF92FF920F939701201B310919
:100CE0002F3F310519F010F02FEF30E02095382F0D
:100CF000320F08F43FEF832F0F91FF90EF9008958C
:100D0000EF92FF920F939701201B31092F3F31057E
:100D100019F010F02FEF30E0322F3095482F430FAD
:100D200008F44FEF842F620F0F91FF90EF9008951A
:100D3000EF92FF920F93972F093438F4B701601B9D
:100D400071096F3F710519F010F06FEF70E0485FA7
:100D50005F4F4131510540F0A901485F5F4F41317C
:100D6000510510F06FEF70E06095482F460F08F4C2
:100D70004FEF842F37FF02C02D5F3F4F35952795EA
:100D80003595279560913105620F792F0F91FF906E
:100D9000EF900895EF92FF920F931F930E0D1F2D6A
:100DA000111DF90137FF03C0F195E195F10924E028
:100DB000EE0FFF1F2A95E1F7EF3FF10519F014F050
:100DC000EFEFF0E09A0157FF03C03195219531090B
:100DD00094E0220F331F9A95E1F72E173F070CF48A
:100DE000F901E00FF11FEF3FF10519F010F0EFEFFF
:100DF000F0E0E095282F3E2F230F08F42FEF822FED
:100E00001F910F91FF90EF900895EF92FF920F9333
:100E1000970195E0099F200D311D11242F3F3105C9
:100E200019F010F02FEF30E02095382F320F08F432
:100E30003FEF832F0F91FF90EF900895409520E4AE
:100E4000429F412D1124640F08954095282F429F01
:100E5000412D1124842F0895E42FF0E0EE0FFF1FA1
:100E6000EB5DFD4F9081921B97FD9195292F38E105
:100E7000239F212D1124620F08950F931F9310E0DB
:100E8000F801EE0FFF1FEB5DFD4F9081905797FD2E
:100E90009195000F111FF801E350FE4F01A500527C
:100EA000110B2003F001219FF00D112408E310E045
:100EB000091B110997FD139540039001419F300DC7
:100EC0001124E20FF31F9F01220F331F2E0F3F1F2C
:100ED00037FF02C021583F4F220F232F221F330B11
:100EE000620F1F910F9108950F931F93522F10E0DF
:100EF000F801EE0FFF1FE350FE4FA1A5A052BB0B60
:100F00009D015203F001539FF00D1124000F111F9A
:100F1000D801AB5DBD4F0C910057110B4003900100
:100F2000419F300D11242E0F3F1F37FF02C0215C5F
:100F30003F4F96E0359527959A95E1F7620F1F91FF
:100F40000F9108950F931F93522F10E0F801EE0FA9
:100F5000FF1FE350FE4FA1A5A052BB0B9D01520302
:100F6000F001539FF00D1124000F111FD801AB5D4C
:100F7000BD4F0C910057110B40039001419F300D64
:100F800011242E0F3F1F37FF02C021583F4F220F61
:100F9000232F221F330B620F1F910F910895EF92A1
:100FA0000F93972F23E0029FB00111247595679549
:100FB0006E0D792F0F91EF900895322F50E0FA01C6
:100FC000EE0FFF1FE350FE4F91A5905297FD9195B4
:100FD000440F551FFA01EB5DFD4F2081231B330B9E
:100FE000290F311D97FD3A95620F0895E42FF0E027
:100FF000EE0FFF1FE350FE4F61A5621B0895E42F23
:10100000F0E0EE0FFF1FEB5DFD4F6081621B089566
:10101000622F0895E42FF0E0EE0FFF1FEB5DFD4F10
:10102000408134EE439F412D1124E82FF0E050E041
:10103000445E5F4FDA01A21BB1099D01B7FF03C0F7
:1010400031952195310993E0220F331F9A95E1F7ED
:10105000AF01421B530B9A0157FD20E0582F259FEB
:10106000212D1124822F0895E42FF0E0EE0FFF1FB1
:10107000EB5DFD4F408134EE439F412D1124E72F5E
:10108000F0E050E0445E5F4FDA01A21BB1099D0120
:10109000B7FF03C031952195310993E0220F331F2B
:1010A0009A95E1F7AF01421B530B9A0157FD20E0DF
:1010B000279F212D1124722F08953091B4043111EE
:1010C00004C0823191050CF042970E94B505089545
:1010D000FF920F931F93CF93DF93182F062FF42EB9
:1010E000D0E0C0E02F2D402F612FCE010E945D087F
:1010F0002196C432D105B1F7CDB7DEB7E5E00C9447
:101100007334FC019B01009729F480E077FF2BC02A
:1011100080E80895AC0197FF04C044275527481B79
:10112000590BB901640F751F37FD10C0241B350B17
:10113000C901A5E0880F991FAA95E1F70E9495348F
:1011400080E2861BF7FF0FC081950895CB0165E013
:10115000880F991F6A95E1F7BA01621B730B0E9411
:10116000953480E6EECF0895EF920F93CF93DF93FF
:10117000D72FC82FC9010E19BA010E948108602F0C
:10118000681B7D2F8C2FDF91CF910F91EF900895E9
:101190000F93CF93DF93D72FC82FC901BA010E94B5
:1011A0008108682F600F7D2F8C2FDF91CF910F91D9
:1011B0000895EF920F931F93CF93DF93D62FC72FEE
:1011C000182FC9010E19010FBA010E948108081BCE
:1011D000202F219F212D1124822F6D2F7C2FDF9115
:1011E000CF911F910F91EF900895EF920F931F935E
:1011F000CF93DF93D62F172FC82FC9010E19070FD2
:10120000BA010E948108702F781B719F712D1124E3
:101210006D2F8C2FDF91CF911F910F91EF9008953B
:101220000F931F93CF93DF93D62FC72F182FC9018A
:10123000212F201B022FBA010E948108982F990F9D
:10124000990F891B800F282F219F212D1124822F78
:101250006D2F7C2FDF91CF911F910F9108950F93E8
:101260001F93CF93DF93D62F172FC82FC901272F96
:10127000201B022FBA010E948108982F990F990F05
:10128000782F791B700F719F712D11246D2F8C2F6A
:10129000DF91CF911F910F910895E82F86FDE09582
:1012A0002E2F2F7086FD2F5FE695E695E695E6706A
:1012B000F0E0EA51FE4F9181929F902D212D112453
:1012C00092959F702295207F922B2081920F87FD0F
:1012D000919580E8890F08950F931F93CF93DF9323
:1012E0008B01D82FC42F822F0E944D09EC2FF0E0E4
:1012F000EE0FFF1FEB5DFD4F90819058890F87FD2A
:101300008195880F682F2CE0629F612D1124600F5A
:10131000712F8D2FDF91CF911F910F9108951F9302
:10132000CF93DF93D62FC72F182F822F86950E9439
:101330004D09805887FD8195880F282F219F212DE9
:101340001124822F6D2F7C2FDF91CF911F91089553
:1013500040914F015091500125E038E0429FC0017B
:10136000439F900D529F900D1124875E994C90934E
:10137000500180934F01890F0895AC01823091058F
:1013800008F408959FEF413E8EE1580740F49A011A
:1013900095E0369527959A95E1F798E0920F61E0F0
:1013A000E62FE90FFF27FF1F9F0135952795822F15
:1013B000229FF001239FF00DF00D11244E175F07BF
:1013C00038F49FEF920F961758F78FEF860F089516
:1013D0002F3FE9F361E0620FF6CF0F93CF93DF93D6
:1013E000D72FC82F47FD419588E390E0841B9109D2
:1013F00047FD9395889FB001899F700D700D112452
:10140000229FC001239F900D900D1124860F971FDE
:101410000E94BD09982F990F890F682F600F7D2FAB
:101420008C2FDF91CF910F91089530E020E0869FBF
:10143000212D969F200D311D1124C9010895982F4B
:101440008091B404882329F081E0923128F080E073
:1014500003C081E09432D8F70895B0E0A0E0E3E360
:10146000FAE00C9454349B01E82FF0E0E153FC4F78
:10147000311109C0E4918E2F7E2F6E2FCDB7DEB7CC
:10148000E8E00C947034E32EF12CE491FE2F0E2F43
:1014900010E046E0649FC0011124CFEFD0E0BE0110
:1014A0000E948134AB01822F90E0880F991F25E5BF
:1014B000249FB001259F700D1124861B970B982F38
:1014C000990F980FBE016E197F09609FD001619F2F
:1014D000B00D709FB00D11248B2F399F90011124F6
:1014E000232F3327BE01621B730B609F9001619F06
:1014F000300D709F300D11246E01C91AD108CE9C99
:10150000B001CF9C700DDE9C700D1124672F7727E2
:10151000C61BD70BC09F7001C19FF00CD09FF00C71
:1015200011247F2D42305105A1F050F44115510591
:1015300009F4A3CF4130510581F07B2F832F9DCF3C
:101540004430510569F080F04630510509F495CFDB
:10155000F4CFEB2F8F2D7F2F90CF7E2FE32F8DCFCA
:10156000EF2D7B2F8F2F89CF732FEB2FFBCFB0E089
:10157000A0E0EDEBFAE00C9455348C01FC01E3594A
:10158000FD4F8081682341F1D0903205D091330521
:10159000C0913105EC2EF12C0E94A809282FC7011B
:1015A0008C549F4F68E671E00E9495348E199F0914
:1015B00097FD0396959587959595879523706C2F44
:1015C000289F600D11247D2D8D2F0E942D0A472FFD
:1015D000282FC8010E945D08CDB7DEB7E7E00C9464
:1015E00071342F923F925F926F927F928F929F926F
:1015F000AF92BF92CF92DF92EF92FF920F931F9321
:10160000CF93DF93CDB7DEB729970FB6F894DEBF3F
:101610000FBECDBF89837D836C83809199010E9429
:1016200049069A832091B9042B83E82FF0E0F987CB
:10163000E887CF01880F991F9C0123503E4F690115
:101640003981832F90E0FC013196FF83EE838A81FC
:1016500098859817D0F00E941F0A29960FB6F89423
:10166000DEBF0FBECDBFDF91CF911F910F91FF90D5
:10167000EF90DF90CF90BF90AF909F908F907F9032
:101680006F905F903F902F900895E885F985E3591A
:10169000FD4F808190919A018923E9F020903105D6
:1016A000309032052E813F8127543B4F39015980BC
:1016B00010E0FB815F16C8F020913305129F112DB9
:1016C0001124B101812F0E942D0A472F282F8885D0
:1016D00099850E945D08288539852F5F3F4F39879E
:1016E000288732E0C30ED11CB2CFF30181913F01B4
:1016F000F601A0A4A81ABB0881A4F3018781881A67
:101700009908AA9C9001AB9C300D300D1124889C47
:10171000C001899C900D900D1124820F931F0E948F
:10172000BD09082F6091340521E0620F08F46FEFC6
:10173000F301EE0FFF1FE95BF440858996890E9453
:10174000150A7C019401A501B101812FEC81FD8175
:1017500009951B015394182FACCFB0E0A0E0E3EB48
:10176000FBE00C9455348C01809199010E9449064C
:10177000C82FD92E2091340531E0230F08F42FEF24
:1017800030E050E040E06FEF7FEF80E090E00E94BB
:1017900079357901D0E02C2FCD1540F08D2D0E94A8
:1017A0001F0ACDB7DEB7E7E00C947134FE01E359B0
:1017B000FD4F808190919A01892309F14091B904EC
:1017C0004150042E000C550B47FF1BC0C701609110
:1017D000340521E0620F08F46FEF0E94150AAC0196
:1017E000609131057091320580913305F8010995BA
:1017F0000E942D0A472F282FCE010E945D082196B6
:10180000CACFFA01E754FB4F818982130AC0FA015B
:10181000EE0FFF1FE754FB4F818D928D8E159F05B4
:10182000B0F241505109D0CFEF92FF920F931F9326
:10183000CF93DF937C01809199010E944906C82FC4
:10184000192F609134056695669521E0620F08F4C2
:101850006FEF8091B5049091B6040E94150A082F8D
:10186000D0E0C11740F0812F0E941F0ACDB7DEB72C
:10187000E6E00C947234FE01E359FD4F80819091B3
:101880009A01892389F06091310570913205809128
:101890003305202F4C2FF70109950E942D0A472F61
:1018A000282FCE010E945D082196DBCFB0E0A0E09A
:1018B000ECE5FCE00C9452346C01809199010E949B
:1018C0004906C82FF92E609134056695669580917A
:1018D000B5049091B6040E94150A182F80E4810F78
:1018E0000E944D0990E8B92EB80E812F0E944D0933
:1018F00020E8A22EA80ED0E0CF1540F08F2D0E9438
:101900001F0ACDB7DEB7EAE00C946E34FE01E3594E
:10191000FD4F808190919A01892399F06091310562
:101920007091320580913305E12E0C2F2A2D4B2D1D
:10193000F60109950E942D0A472F282FCE010E94FB
:101940005D082196D9CFB0E0A0E0E9EAFCE00C9474
:101950004E343C01809199010E944906C82F192FED
:101960006091340566958091B5049091B6040E940B
:10197000150AF82ED0E0CE01880F991F9C01235044
:101980003E4F6901C11740F0812F0E941F0ACDB759
:10199000DEB7EEE00C946A34FE01E359FD4F80811E
:1019A00090919A01892371F1F60180A5282F205783
:1019B000330B590181A5E82FE052FF0B4F01AA9C80
:1019C0009001AB9C300D300D1124EE9FC001EF9FB4
:1019D000900D900D1124820F931F0E94BD09082FB6
:1019E000609131057091320580913305EF2C94019F
:1019F000A501F30109950E942D0A472F282FCE013A
:101A00000E945D08F2E0CF0ED11C2196BBCFB0E062
:101A1000A0E0EDE0FDE00C9453346C01809199015D
:101A20000E944906C82F192F609134056695809150
:101A3000B5049091B6040E94150AB82ED0E0CE01EC
:101A4000880F991F9C0123503E4F7901C11740F028
:101A5000812F0E941F0ACDB7DEB7E9E00C946F34E6
:101A6000FE01E359FD4F808190919A018923B9F0DD
:101A7000F70121A52052330B40A54057550B60912B
:101A8000310570913205809133050B2DF6010995D2
:101A90000E942D0A472F282FCE010E945D08F2E0F8
:101AA000EF0EF11C2196D2CF1F93CF93DF93C82F57
:101AB000D0E0FE01E359FD4F80816823A9F00E9428
:101AC000A809182F0E94A80920E8829FC0011124AC
:101AD0007FE7790F612F809133050E942D0A472FF0
:101AE000282FCE010E945D08DF91CF911F910895AC
:101AF0002091B404211103C00E9483120895909391
:101B00004F0380934E0308958091380586FF05C0EA
:101B100084E690E00E94780D089587FF09C08295C1
:101B2000837024E6829FC001112488539F4FF2CF17
:101B30008F7028EC829FC001112480579E4FEACFFE
:101B400080E00895F894E82FE295EF70F0E031A17D
:101B5000282F2F7081E090E001C0880F2A95EAF7C6
:101B6000982F9095932391A392A1892B82A3789487
:101B700008950F931F938091B304882329F00E9446
:101B8000D6041F910F9108950E94D604009110036E
:101B9000109111032091120330911303600F711FF4
:101BA000821F931FEECF9091220392FF10C041E05D
:101BB000282F2471243009F040E031E0282F2871CB
:101BC000283009F030E0431711F02CE0822793FF12
:101BD00010C041E0282F2471243109F040E031E0A9
:101BE000282F2871283109F030E0431711F02CE03C
:101BF00082273091230330FF10C051E0282F21713C
:101C0000213009F050E041E0282F2871283009F0F8
:101C100040E0541711F029E0822731FF10C041E065
:101C2000282F2171213109F040E031E0282F28715F
:101C3000283109F030E0431711F029E0822794FDA4
:101C4000877E089582389105B9F1B0F4813391050A
:101C500009F47DC048F48932910509F46DC08A32D7
:101C6000910509F47BC008958533910509F45FC09F
:101C70008933910509F10895833E9105D9F138F42E
:101C8000803E910529F1823E910579F10895863EC5
:101C90009105D9F1873E910509F43EC0843E910536
:101CA00041F52091230321FF24C08091220384FD6C
:101CB00019C087EE90E0089520912203237009F067
:101CC0005AC02091230323FF14C089E290E00895B5
:101CD0002091220320FD38C03091230330FF09C03A
:101CE00024FF43C090E080E008952091220322FD6C
:101CF000F7CF08952091220322FD3AC030912303AB
:101D000030FD39C024FFF5CFEDCF2091220323FF12
:101D1000F0CF24FDE7CFCDCF2091220323FD2EC0AD
:101D20003091230331FFEECF84EE90E008952091AF
:101D3000220325FFDECFC9CF2091220325FD21C03C
:101D40002091230323FFD5CF89E390E0D2CF2091C8
:101D5000220326FFCECF8AE290E00895209122034D
:101D600026FFC7CF81E390E0089583EE90E00895C9
:101D700082EE90E0089580EE90E0089586EE90E087
:101D8000089585E390E00895972F7830B8F4653092
:101D9000A8F48730B0F470E025E0929F600D711DCB
:101DA0001124FB0198E2899FE00DF11D1124EE0F33
:101DB000FF1FE156FE4F85919491089580E090E0D9
:101DC000089581E0FCCF1F93CF93DF930E94220EF2
:101DD000EC01C11580E5D807F0F5C11580E4D807FE
:101DE00008F0AAC0C03ED10520F5CD3CD10508F0D1
:101DF00090C0C83AD10578F4C53AD10508F081C041
:101E0000C130D10519F1209709F1C430D105F0F4A2
:101E1000D0E0C0E01BC0C33CD105D0F7C85AD0E029
:101E2000CC0FDD1FCB55DE4F0990D881C02DD46477
:101E30000DC0C11580E2D80708F0C9C0C11581E006
:101E4000D80708F068C0C83ED10510F7CE01DF9171
:101E5000CF911F910895C03682E5D80718F5C03498
:101E600082E5D80708F079C0C03282E5D80708F0CB
:101E70006DC0C11582E5D80708F48FC02C2F2695B8
:101E8000269580E2289F900111248C2F8370C1E059
:101E9000D0E002C0CC0FDD1F8A95E2F7C22BD32B16
:101EA000DD68D4CFC03C82E5D807F8F4C03A82E5BB
:101EB000D80708F067C0C03882E5D80708F0A8CF77
:101EC0002C2F26952695277080E2289F90011124BB
:101ED0008C2F8370C1E0D0E002C0CC0FDD1F8A954B
:101EE000E2F7C22BD32BDA68B1CFC03E82E5D80728
:101EF00008F08ECFDC2FCC27CC27DF71C06FD06AE3
:101F0000A5CFC55AD0E0CE55DE4FC881D0E0D06411
:101F10009DCFD0659BCF8D2F0E94D30D182FCE0162
:101F200099270E94220EC12FD0E0DC2FCC27CC278E
:101F3000DF71C82BD92B8ACFCE0199270E94220EA0
:101F4000CC27DF70C82BD92BD06A80CFCF71D0E0DF
:101F5000DC2FCC27C16FD06A79CF2C2F2695269500
:101F6000277080E2289F900111248C2F8370C1E09C
:101F7000D0E002C0CC0FDD1F8A95E2F7C22BD32B35
:101F8000DC6864CF8C2F8F710E94D30DC82FD0E0F6
:101F9000DC2FCC27CC27DF7159CF8C2F8F710E947B
:101FA000D30D55E0D695C7955A95E1F7CF70D0E09F
:101FB000DC2FCC27282F30E084FF05C044E0220F1F
:101FC000331F4A95E1F7C22BD32BD0693FCF8D2F1A
:101FD0008F710E94D30D182FCE0199270E94220ED7
:101FE000C12FD0E0DC2FCC27CC27DF71C82BD92B19
:101FF000D0622CCF80912B059091E204981301C000
:1020000008958F5F8770FACFB0E0A0E0EAE0F0E1DA
:102010000C9453347C010091200310912103809192
:102020001E0390911F03082B192BCFE0D0E0CC2486
:10203000C394D12CBC2EC6010C2E02C0880F991F50
:102040000A94E2F780239123892B49F4219790F792
:10205000B12C8B2DCDB7DEB7E9E00C946F34B7010E
:102060008C2F0E94C40E0E94E30E019779F3F1CFEA
:10207000CF93DF93EC010E940410BE010E94C40EB6
:102080000E94E30EDF91CF910895983078F5853066
:1020900068F5E82FF0E085E0989FE00DF11D112430
:1020A0009E2F977083E0F695E7958A95E1F7EE0FFE
:1020B000FF1FEE0FFF1FE356FD4F50E040E080E0B2
:1020C000219130E0092E02C0369527950A94E2F757
:1020D00021703327042E01C0220F0A94EAF7822BC5
:1020E0004F5F5F4F4430510559F7089580E00895E0
:1020F000983098F5853088F5E82FF0E085E0989FD6
:10210000E00DF11D11248E2F877041E001C0440FB6
:102110008A95EAF783E0F695E7958A95E1F7EE0F61
:10212000FF1FEE0FFF1FE356FD4F30E020E070E091
:102130005191DF011197CB01022E02C09695879530
:102140000A94E2F7817081958527842385278C93F3
:102150002F5F3F4F2430310559F70895CF93DF9318
:10216000EC0180E0209739F0CE0124E09695879528
:102170002A95E1F781709091380580FB97F990934B
:1021800038050E94840DD0932103C0932003DF9172
:10219000CF91089521E030E002C0220F331F8A95CD
:1021A000E2F72095309580912003909121038223BE
:1021B00093230E94AE10089521E030E002C0220F68
:1021C000331F8A95E2F78091200390912103822B9F
:1021D000932B0E94AE10089590931F0380931E03CB
:1021E0000895FC0184818823F9F087819085009708
:1021F00091F00E94E30E92959F709630B9F080F4B2
:10220000925F9F70923080F4803F19F058F4883EBE
:1022100058F481E00895808191810E943810EBCFBD
:102220009A5FEFCF843FA9F380E00895883E88F35A
:10223000813FD1F7EECFA6E0B0E0E1E2F1E10C940E
:1022400059349C01FC01878190850097E1F486E078
:10225000DE01119601900D928A95E1F7F901258131
:1022600089819A81222399F0662389F00E940410C3
:10227000182F682F89819A810E94781069817A814C
:10228000812F0E94C40E2696E3E00C9475340E94C0
:102290004510182FF3CF40E060E08FEF0E946808F0
:1022A0000E94DF1181E008958091BA020E94D30D4F
:1022B000982F927281E009F480E008950F931F93A4
:1022C000CF93DF938B01EA019091A704943061F5DD
:1022D0008093E9008FEF9091E800815095FD06C052
:1022E00095ED9A95F1F700008111F5CF8091E80006
:1022F00085FF1AC00E946F03811111C08091E80010
:1023000085FD06C08091E8008E778093E800F2CFCB
:10231000F80181918F018093F100219779F78091E5
:10232000E8008E778093E800DF91CF911F910F91A5
:10233000089543E050E0BC0183E00E945E110895DF
:1023400045E050E0BC0182E00E945E110895CF9309
:10235000DF93EC0148E050E0BC0181E00E945E1197
:1023600088E0FE01ADE9B4E001900D928A95E1F7B5
:10237000DF91CF91089581E08093E00080E2809327
:10238000D8001092C9008FE19EE40197F1F700C0D8
:10239000000087E090EBDC0180933B0590933C05C7
:1023A000A0933D05B0933E0588E19CE00FB6F894FC
:1023B000A895809360000FBE90936000FFCF3BB163
:1023C000377F2BB128604FB7F8948CEA93E0FC017B
:1023D0005191CF0168E02BB9000000C057FF3BB915
:1023E000550F000000C000C000C03BB900C06A9596
:1023F00091F7F4E088319F0751F74FBF8FE594E0E4
:102400000197F1F700C000000895B0E0A0E0EBE014
:10241000F2E10C9452347C015B016A0180910F035C
:1024200001E010E08A3010F40AE010E0C1E0D0E0F2
:10243000B501C701F6010995811104C021960C1759
:102440001D072CF4CDB7DEB7EAE00C946E34CC9FB8
:102450009001CD9F300D300D112490E080E045E3D8
:102460004A95F1F70000019682179307C1F7E0CF74
:10247000CF9328E030E043E060E080EF0E94A73394
:10248000C82F811105C00E941C348C2FCF91089554
:1024900085E08A95F1F70000F8CFA2E0B0E0E3E52F
:1024A000F2E10C945734182FF62E0E943812082FA0
:1024B000811106C000E0802F2296E5E00C94733471
:1024C000103549F08091B404E1EBF4E0882311F079
:1024D000E2EBF4E0108210681983FA8262E070E0A7
:1024E000CE0101960E94EC33892B21F78AEB8A9565
:1024F000F1F700C00E941C3483E492E00197F1F7E9
:1025000000C00000D8CF60E08436910550F067E746
:1025100084342FE2920728F464E670E00E9481344C
:1025200061508FE00E944D120895CF93C82F0E94F2
:1025300038128823C9F08C2F0E94BC338FE792E0B9
:102540000197F1F700C000000E94D433C82F95E036
:102550009A95F1F700000E941C3485E68A95F1F700
:1025600000008C2FCF910895C0E0FBCFCF938FE078
:102570000E949512C82F682F8FE00E944D12CF5FE6
:1025800024E6C29FC0011124CF910895CF9390916A
:10259000450380913603981323C080914603882316
:1025A00021F09091370389131BC080914703882342
:1025B00021F090913803891313C080914903882337
:1025C00021F090913A0389130BC09091480399230D
:1025D00029F081E020913903291303C080E001C074
:1025E00081E0C82FC17080FF0CC0E0919304F0918E
:1025F0009404309731F00680F781E02D85E493E074
:1026000009959091450385E0E5E4F3E0DF01282F8B
:102610001D922A95E9F790934503A6E3B3E0019054
:102620000D928A95E1F781E0C11103C0911101C0BB
:1026300080E08170CF910895A9E1B0E0E2E2F3E19A
:102640000C945A348091B304811105C080E06996DE
:10265000E2E00C94763460914A0370914B038091D0
:102660004C0390914D030E94AB04672B682B692BA0
:1026700069F30E94D60460934A0370934B038093DE
:102680004C0390934D038091B4048111E8C04091B4
:102690004503509146036091470370914803809130
:1026A00049030E94531420934503309346034093FB
:1026B0004703509348036093490385E0E5E4F3E062
:1026C000DE01169601900D928A95E1F790914603EE
:1026D00091959F8385E0FE013696DE01509601902C
:1026E0000D928A95E1F785E0FE017096DE01119664
:1026F00001900D928A95E1F785E0FE013196A5E4FF
:10270000B3E001900D928A95E1F785E0E5E4F3E00E
:10271000DE01559601900D928A95E1F7809146036E
:102720004091470360914803509149032091B304BD
:10273000222309F46BC02091380526FF3FC0209169
:102740003D0330913E03290F311D97FD3A9530939B
:102750003E0320933D0380913B0390913C03840F03
:10276000911D47FD9A9590933C0380933B03F9019B
:1027700037FF04C0EE27FF27E21BF30B37974CF01F
:102780005FEF121613060CF451E010923E03109204
:102790003D039C0197FF04C022273327281B390BD8
:1027A000273031054CF06FEF181619060CF461E074
:1027B00010923C0310923B0340E080E08E8B4F8BE5
:1027C000688F598F95E0FE017596DE011B9601908A
:1027D0000D929A95E1F795E0FE013B96DE01119688
:1027E00001900D929A95E1F795E0FE013196DE0198
:1027F000169601900D929A95E1F795E0FE013696B6
:10280000DE01559601900D929A95E1F78E8B4F8BD4
:10281000688F598F85E0FE017596DE01169601904E
:102820000D928A95E1F785E0FE013696DE011B9652
:1028300001900D928A95E1F785E0FE013B96A5E4B3
:10284000B3E001900D928A95E1F70E94C6128111C2
:1028500010C080913F03817010923F03F8CE85E055
:10286000E0E4F3E0A5E4B3E001900D928A95E1F78E
:1028700024CF81E090E0EFCF2FE2280F283078F4CA
:1028800081E090E001C0880F2A95EAF72091450386
:10289000662331F0822B809345030E94C61208956F
:1028A00080958223F8CFA6E1B0E0E9E5F4E10C944D
:1028B00058344A8B5B8B6C8B7D8B8E8B8E01095FC2
:1028C0001F4F86E0F80111928A95E9F78091B404D0
:1028D0008823A1F18091B20481113DC060E080E5C0
:1028E0000E944D1281112DC086E0FE013796DE0157
:1028F000119601900D928A95E1F786E0FE013196DE
:10290000DE01179601900D928A95E1F78F8183FF82
:102910004FC085E0FE017296DE011D9601900D927A
:102920008A95E1F72D853E854F855889698970E044
:1029300080E090E06696E4E00C9474348091B104F9
:10294000CBCF8091B404E1EBF4E0882311F0E2EB0B
:10295000F4E081E080830E943812882329F280E528
:102960000E94BC33FAEBFA95F1F700C066E070E024
:10297000C8010E9404348F81877049F08091B404AB
:10298000E1EBF4E0882311F0E2EBF4E010820E9426
:102990001C3489859A859195819591099A878987B3
:1029A0008B859C859195819591099C878B879CCF80
:1029B000898187FD03C010925003ABCF2B813C81EE
:1029C0008D819E8140915003411103C041E04093AD
:1029D000500320384FEF34078CF02038310514F0C5
:1029E0002FE730E08038EFEF9E0754F080389105F4
:1029F00014F08FE790E02B8B8C8B8BCF20E8F2CFFD
:102A000080E8F9CF0E9417330E943812882309F416
:102A10004CC025ED2A95F1F700000E941C3485ED8D
:102A20008A95F1F700006AE58AE30E944D12882337
:102A3000E1F19FEF20E782E0915020408040E1F7F4
:102A400000C0000082E00E94951283E00E9495126F
:102A500084E00E94951285E00E94951286E00E9413
:102A600095120E941C348FE39CE90197F1F700C096
:102A700000006FE08FE00E944D128FE99FE0019708
:102A8000F1F700C0000060E080E10E944D1267EEA7
:102A900081E10E944D1262E083E60E944D1280E0C7
:102AA0000E9495128FE30E94951208958091BA02B8
:102AB00090911A04892B8093940248E050E06BEBCC
:102AC00072E084E992E00E940B35892BA9F088E03E
:102AD000E4E9F2E0ABEBB2E001900D928A95E1F708
:102AE000E0919304F0919404309731F00280F381E7
:102AF000E02D84E992E0099508951092BA02E6E982
:102B0000F2E086E0DF011D928A95E9F790E080E02F
:102B10000E94240590E080E00E94FF0410921A04B5
:102B20000E9456150895AAE2B0E0E9E9F5E10C9497
:102B3000593489EA94E02091F100DC012D93CD0114
:102B4000B4E0813B9B07B9F78091AA04833009F474
:102B500072C0B8F4813009F449C0823009F4B7C0BA
:102B60008091E80083FF3FC18091A9049091AA045D
:102B70009A3008F038C1E92FF0E0E252FA4C0C9498
:102B8000A9348A3009F492C08B3009F471C08930BD
:102B900039F78091A904813219F78091AD049091A1
:102BA000AE04009711F00297D9F68091E800877F74
:102BB0008093E8008091E80082FF38C09091F30094
:102BC0008091F200029731F48091F100813011F090
:102BD000863021F48091F100809396018091E80085
:102BE0008B778093E8000E94A003BACF8091A9045C
:102BF000813A09F0B5CF8091E800877F8093E800A3
:102C00008091AD049091AE04892B61F468E08DE968
:102C100094E070E00E944C048091E8008B778093F0
:102C2000E8009ECF60E090E080E0F3CF8091A704C1
:102C30008111C0CF95CF8091A904813A09F090CF3E
:102C40008091AD049091AE04892B09F089CF8091D9
:102C5000E800877F8093E8008091E80080FFFCCF48
:102C6000809197018093F1008091E8008E77B9CF31
:102C70008091A904813209F073CF8091AD049091C5
:102C8000AE04892B09F06CCF8091E800877F809398
:102C9000E8000E94A00381E09091AB04911101C073
:102CA00080E0809397010E947D155ACF8091A904FE
:102CB000813209F055CF8091E800877F8093E8004A
:102CC0000E94A0038091AC048093950149CF80912C
:102CD000A904813A09F044CF8091E800877F80936E
:102CE000E8008091E80080FFFCCF80919501BACF89
:102CF000803899F0823809F076C08091AD048F70E9
:102D0000873008F070C08093E9008091EB0085FB6C
:102D1000882780F91092E90006C08091A50490915F
:102D2000A604911182609091E800977F9093E8004B
:102D30008093F1001092F1008091E8008E77B3C18A
:102D4000882309F4A0C1823009F04DC08091AB0402
:102D50008111A4C18091AD048F702FEF280F263010
:102D600008F041C08093E9002091EB0020FF96C15C
:102D7000933031F48091EB0080628093EB008EC140
:102D80009091EB0090619093EB0021E030E001C066
:102D9000220F8A95EAF72093EA001092EA008091C8
:102DA000EB008860EACF81111EC01091AB041F7741
:102DB0008091E3008078812B8093E3008091E8008C
:102DC000877F8093E8000E94A0038091E80080FF45
:102DD000FCCF8091E30080688093E30082E01111D2
:102DE00083E08093A7048091E80083FF0AC080916C
:102DF000E800877F8093E8008091EB0080628093F9
:102E0000EB00AA96E3E00C9475348058823058F7B2
:102E10002091AB043091AC042C3DE3E03E07A1F5DA
:102E200083E08A838AE289834FB7F894DE011396A0
:102E300020E03EE051E2E32FF0E050935700E491B0
:102E400020FF03C0E295EF703F5FEF708E2F90E0A0
:102E5000EA30C0F0C7968D939D932F5F243159F7C8
:102E60004FBF8091E800877F8093E8006AE270E0BE
:102E7000CE0101960E944C048091E8008B778093EC
:102E8000E800B1CFC096E7CF8091AD049091AE0439
:102E9000432F55274330510509F44AC078F5413096
:102EA000510509F47AC084E590E0EFECF4E042309B
:102EB000510509F098CF2091E800277F2093E80082
:102EC0002091AF043091B0048217930708F49C015D
:102ED00040E02115310509F065C0411163C08091C2
:102EE000E80082FDC9CF8091A704882329F28530AC
:102EF00019F28091E80083FFF2CFBECF4132510535
:102F000009F43CC04232510509F06DCF8330910580
:102F100008F069CFFC01EE0FFF1FEF50FE4F01904C
:102F2000F081E02D82519E4FDC018C9190E01AC01F
:102F3000332721303105D1F02115310561F02230E0
:102F4000310509F050CFE5E3F5E0E4918E2F90E0F4
:102F5000E5E3F5E007C0E7E9F5E0E4918E2F90E0C6
:102F6000E7E9F5E0009709F43ECFA5CFE1E7F5E00A
:102F7000E4918E2F90E0E1E7F5E0F4CF8330910506
:102F800008F031CF880F991FFC01E950FE4F0190E6
:102F9000F081E02D89E090E08ECF82E190E0E3E2E5
:102FA000F5E089CF8091A704882309F465CF8530A7
:102FB00009F462CF8091E80083FD5ECF8091E80044
:102FC00082FD8DCF8091E80080FF83CF9091F30048
:102FD0008091F2002115310519F08830910550F0EB
:102FE00041E0089709F040E08091E8008E778093F7
:102FF000E8006FCF44914093F100319621503109A0
:103000000196E8CF803809F0EECE8091E800877F06
:103010008093E8008091A8048093F1008DCE811107
:10302000E2CE1091AB04123008F0DDCE8091E800C2
:10303000877F8093E8001093A8040E94A0031123C7
:1030400011F084E005C08091E30087FDFACF81E0B4
:103050008093A70442E061EC81E00E94BF0342E15B
:1030600061EC82E00E94BF0342E261EC83E00E94D7
:10307000BF038091A704843021F081E08093980100
:10308000B2CE82E0FBCF8091AB04813009F0ABCEB1
:1030900081E0933009F080E08093A6041092E9006B
:1030A0008091E800877F8093E8000E94A0039BCE78
:1030B0000E947D1580E00E944B112FEF84E39CE07D
:1030C000215080409040E1F700C0000088E19CE082
:1030D0000FB6F894A895809360000FBE909360009F
:1030E000FFCF882341F080959091BA028923809385
:1030F000BA020E9456150895882339F09091BA02B9
:10310000982B9093BA020E9456150895882309F4CB
:1031100042C09CEF980F913A80F4E6E9F2E02CE986
:1031200032E09191891303C0DF0111971C922E1791
:103130003F07B9F70E945615089590E2980F98300E
:1031400088F4877021E030E0A90102C0440F551FC8
:103150008A95E2F7CA0180959091BA0289238093FB
:10316000BA02E8CF9BE5980F933028F490E080E016
:103170000E942405089598E5980F9B3128F490E06B
:1031800080E00E94FF04089593E3980F933118F4B0
:1031900060E00E943C140895CF93C82F8823B1F0BB
:1031A0008CEF8C0F813A00F5E6E9F2E08CE992E0D1
:1031B000DF012D91C21761F08A179B07D1F76C2FA1
:1031C00084E992E00E94E5040E945615CF9108958B
:1031D0002191C21303C0DF0111971C928E179F0724
:1031E000B9F70E945615EBCF80E28C0F883068F457
:1031F000C77021E030E001C0220FCA95EAF7809144
:10320000BA02822B8093BA02DFCFEBE5EC0FE330FA
:1032100040F4F0E0EE55FE4F808190E00E942405DE
:10322000D5CFE8E5EC0FEB3150F4F0E0EE0FFF1FE7
:10323000EB55FE4F808191810E94FF04C7CF83E34D
:103240008C0F833118F661E08C2F0E943C14BECFA6
:10325000909138059F70811115C08FEF980F9F7066
:1032600080913805807F982B909338050E94840DBB
:103270004091380550E070E060E08FE090E00E94FF
:103280006735089581E0EACF909138059295937063
:10329000811117C08FEF980F93709295907F809156
:1032A00038058F7C982B909338050E94840D4091AF
:1032B000380550E070E060E08FE090E00E946735F4
:1032C000089581E0E8CFA4E0B0E0E9E6F9E10C94EC
:1032D00059346091FD027091FE028091FF0290913D
:1032E00000030E94AB0411E064367105810591056D
:1032F00070F10E94B90D6E5F7F4F8F4F9F4F6983B2
:103300007A838B839C8380911D0190911E01815251
:103310009D4F40911C0150E04530510510F044E0B4
:1033200050E0BE016F5F7F4F0E94183583E090E050
:103330000E94A132182F882351F00E94D604609376
:10334000FD027093FE028093FF0290930003812F91
:103350002496E3E00C947534B0E0A0E0E2EBF9E1F0
:103360000C945434C82F7B01D42F6901FB01608178
:103370007181828193810E94AB046436710581055D
:10338000910510F4DD2359F10C2E000CDD0BFE012C
:1033900083E0EE0FFF1F8A95E1F7EC5FFE4F81811E
:1033A000928181529D4F408150E00417150708F427
:1033B000A801B6010E941835CE010E94A132C82F83
:1033C000882339F00E94D604F701608371838283D9
:1033D00093838C2FCDB7DEB7E8E00C947034C1E056
:1033E000F8CFA9E0B0E0E7EFF9E10C94583488E0B9
:1033F000E0E3F5E0DE01119601900D928A95E1F788
:103400008091AB03898749E050E06CEE72E0CE0119
:1034100001960E940B3541E0892B09F440E009E058
:1034200010E09E012F5F3F4F61E073E084E00E9457
:10343000AC192996E4E00C9474340F931F93CF9346
:10344000DF93EC0144E050E064EE72E00E940B3543
:1034500041E0892B09F440E004E010E09E016BEDAF
:1034600072E082E00E94AC19DF91CF911F910F9121
:1034700008954F925F927F928F929F92AF92BF92E8
:10348000CF92DF92EF92FF920F931F93CF93DF9330
:103490000F92CDB7DEB7C62E4A015901482E880FCC
:1034A0005508C2010E94A132782E882309F473C006
:1034B000C20133E0880F991F3A95E1F7FC01EC5FF8
:1034C000FE4F438150E04115510511F041E050E0BD
:1034D0008C5F9E4FFC016481758161527D4FCE01EE
:1034E00001960E941835F401608171818281938177
:1034F0000E94AB04643671058105910540F4B70163
:10350000C8010E945A059981891709F444C00C2CFE
:10351000000CDD08C6010E94A132782E811113C073
:10352000712C872D0F90DF91CF911F910F91FF90FC
:10353000EF90DF90CF90BF90AF909F908F907F9053
:103540005F904F900895C60123E0880F991F2A9538
:10355000E1F7FC01EC5FFE4F438150E0E416F50615
:1035600008F4A7018C5F9E4FFC0164817581615254
:103570007D4FC5010E941835B701C8010E945A0548
:1035800099818913CDCF0E94D604F40160837183A1
:1035900082839383C6CFA701B801C5010E94183565
:1035A000C0CFAAE0B0E0E7EDFAE10C945634809188
:1035B000B404882309F449C085E0E82EF12C06EF15
:1035C00012E09E012A5F3F4F4BE053E066E085E04A
:1035D0000E94391A882391F095E0FE013696DE01AB
:1035E000119601900D929A95E1F795E0FE013196C2
:1035F000A0E4B3E001900D929A95E1F7E0904E03BC
:10360000F0904F03E114F104E1F0F092FC02E0923B
:10361000FB0241E08091090390910A038E159F05FA
:1036200009F440E002E010E02BEF32E065E073E0E7
:1036300087E00E94AC19882321F0F0920A03E092FF
:1036400009032A96E6E00C94723481E0FACFA4E0F4
:10365000B0E0EDE2FBE10C9454346B0184E0E82E21
:10366000F12C00EE12E09E012F5F3F4F47ED52E03C
:1036700061E080E00E94391A882361F049815A8113
:103680006B817C814093D3025093D4026093D50226
:103690007093D6024091D3025091D4026091D5022A
:1036A0007091D602F601408351836283738324961E
:1036B000E8E00C9470341F920F920FB60F92112411
:1036C0002F933F934F935F936F937F938F939F932A
:1036D000AF93BF93CF93DF93EF93FF93D091E90024
:1036E000DF708091EC00C82FC17080FDC0E810929F
:1036F000E9008091F000877F8093F00078940E9429
:1037000093151092E9008091F00088608093F0009A
:10371000CD2BCF70C093E900FF91EF91DF91CF9156
:10372000BF91AF919F918F917F916F915F914F91D9
:103730003F912F910F900FBE0F901F9018951F92E1
:103740000F920FB60F9211242F933F934F935F93D5
:103750006F937F938F939F93AF93BF93EF93FF9359
:103760008091E10082FF09C08091E20082FF05C0E4
:103770008091E1008B7F8093E1008091DA0080FFEF
:1037800024C08091D80080FF20C08091DA008E7F15
:103790008093DA008091D90080FFAAC080E189BDC2
:1037A00082E189BD09B400FEFDCF81E08093A704CA
:1037B00080919C04811109C00E9450030E94F10372
:1037C0008091E20084608093E2008091E10080FFBC
:1037D0001AC08091E20080FF16C08091E2008E7FC7
:1037E0008093E2008091E20080618093E20080910A
:1037F000D80080628093D80019BC85E08093A7042C
:1038000083E0809398018091E10084FF30C0809133
:10381000E20084FF2CC080E189BD82E189BD99B5B9
:10382000892F817090FFFBCF9091D8009F7D90935E
:10383000D8009091E1009F7E9093E1009091E2008A
:103840009F7E9093E2009091E20091609093E2005D
:103850009091A804992309F451C094E09093A7048F
:103860009091A704943009F482E0809398018091AC
:10387000E10083FF2CC08091E20083FF28C080918B
:10388000E100877F8093E10082E08093A70410929B
:10389000A8048091E1008E7F8093E1008091E20096
:1038A0008E7F8093E2008091E20080618093E2004D
:1038B00042E060E080E00E94BF038091F0008860F9
:1038C0008093F00081E08093980180939701FF91AD
:1038D000EF91BF91AF919F918F917F916F915F9188
:1038E0004F913F912F910F900FBE0F901F90189501
:1038F00019BC1092A70410929C0467CF9091E3002A
:1039000097FD02C0982FAACF93E0A8CF78941F927A
:103910001FB61F9211248F939F93AF93BF938091F3
:10392000980490919904A0919A04B0919B040196F7
:10393000A11DB11D8093980490939904A0939A04BB
:10394000B0939B04BF91AF919F918F911F901FBE29
:103950001F9018952FB7F89480919804909199042E
:10396000A0919A04B0919B042FBF08950F931F93C9
:10397000CF93DF93C62FD42F022FFC01858188239C
:10398000A9F060932E050E94AA1C90932D058093A8
:103990002C05C77081E001C0880FCA95EAF70E9424
:1039A0007C18DF91CF911F910F91089580912E0582
:1039B000681335C080912C0590912D050E94C70495
:1039C000883C910560F510E21D0FCD17B9F080E23B
:1039D0008C0F883040F4C77081E001C0880FCA9511
:1039E000EAF70E947118183048F481E09D2F977013
:1039F00001C0880F9A95EAF70E947C18802F0E94D8
:103A0000CC18802F0E948618183058F6D77081E0A5
:103A100001C0880FDA95EAF70E947118C2CFC7700B
:103A200081E001C0880FCA95EAF7F6CFEF92FF92C6
:103A30000F931F93CF93DF938C01DC0114968C912D
:103A4000882309F467C061E0C8010E941B11EC01E2
:103A50007C01BEE7FB1AE8E0EE16F10480F4F70102
:103A6000E851FA4CD80115968C910C94A93488230E
:103A700031F00E94541191E089270E942819B0E486
:103A8000EB16F10408F462C0FE01E851FC47E73090
:103A9000F10508F05BC0E051FA4C0C94A93488237E
:103AA00071F30E945411E9CF882349F30E94541105
:103AB00091E089270E944419E2CF882301F30E94F4
:103AC0005411F8CF9091380580FB97F99093380501
:103AD0000E94840DD4CF882391F290913805892FCC
:103AE00097FB87F9805880933805F2CF909138057D
:103AF00080FB96F9EBCF882311F290913805892F3E
:103B00008F7B96FF8064EFCF26E241EE61EEC80125
:103B10000E94B61CCDB7DEB7E6E00C94723427E203
:103B200045EE65EEF4CF26E241EE60EEF0CF27E2FF
:103B300045EE64EEECCF26E241EE62EEE8CF27E2FE
:103B400045EE66EEE4CF28E241E0EBCFF801958147
:103B5000992309F42DC310922E059E01305723326C
:103B6000310508F00FC384E090E00E943F35909348
:103B7000230380932203FE01E150F047E232F10576
:103B800020F4E950FA4C0C94A9348091220381600E
:103B90008093220395C08091230388608093230340
:103BA0008FC0809122038260F3CF809122038460D2
:103BB000EFCF809122038860EBCF80912303816057
:103BC000EDCF809123038260E9CF80912203806151
:103BD000DFCF809122038062DBCF8091220380645B
:103BE000D7CF0E947D15809122038068D1CF80912C
:103BF00022038C60CDCF809123038360CFCF80914F
:103C000022038E7FC5CF80912303877FC7CF80910A
:103C100022038D7FBDCF809122038B7FB9CF80910E
:103C20002203877FB5CF809123038E7FB7CF80910A
:103C300023038D7FB3CF809122038F7EA9CF809104
:103C400022038F7DA5CF809122038F7BA1CF0E947D
:103C50007D15809122038F779BCF80912203837FF4
:103C600097CF809123038C7F99CF8091220382FB91
:103C7000992790F921E0922790FB82F990FB83F934
:103C800087CF80912303982F909591708E7F892BF9
:103C900090FB81F983CF90912203892F8F7B96FF30
:103CA000806476CF0E947D1590912203892F97FB27
:103CB00087F980586DCF61E08EE090E00E94553525
:103CC000609122037091230384E090E00E94733599
:103CD0000E947D151FCF60E0EFCF90912203892FC6
:103CE0008F7E94FF806154CF90912203892F8E7F25
:103CF00090FF81604DCF90912303892F877F93FFA1
:103D000088604CCF85E35DC20E943B0603CF8823C9
:103D1000A9F10E942606FECE8823A9F10E94120670
:103D2000F9CE8823A9F10E94F805F4CE8823A9F1E1
:103D30000E94DE05EFCE8823A9F10E94C205EACEDB
:103D400080913005837011F410929C0180913005B0
:103D50008C7F81608093300580912F0581608093F6
:103D60002F05D8CE80913005837011F010929C0100
:103D7000809130058C7FEECF882359F20E94300667
:103D8000C9CE882359F20E941C06C4CE882359F25A
:103D90000E940506BFCE882359F20E94EB05BACED9
:103DA000882359F20E94D005B5CE9E01205E32458F
:103DB00020323105A8F4911115C0CF7181E090E057
:103DC000DC0102C0AA0FBB1FCA95E2F7ED016A2F02
:103DD00083E090E00E945535CE010E94EC109ACE0F
:103DE000992319F1C130BCE7DB07E9F0C330ECE7F8
:103DF000DE0799F0C115DC47C1F40E947D1581E012
:103E00000E944B112FEF34E38CE021503040804072
:103E1000E1F700C000000E94BB116FEF7FEF90E060
:103E200080E00E9473350E945818D80117962D9192
:103E30003C9121153105C9F0C9010E94E30EC82F3C
:103E4000292FD80115966C91159716963C913295AD
:103E50003F7092959F70E92EF12C9C3008F050C075
:103E6000F701E75EF94C0C94A934F801C081D181C7
:103E7000992369F0CE010E940410F82E682FCE011C
:103E80000E947810BE018F2D0E94C40ED6CFCE01A5
:103E90000E944510F82EF6CFD22FDF70207F11F050
:103EA000D295D07F6623C9F0DD2369F080E28C0FC4
:103EB000883010F0C1110BC08091BA02D82BD0937A
:103EC000BA020E9456158C2F0E94CC1819C08091FE
:103ED0001A04D82BD0931A04F4CF8C2F0E94861882
:103EE000DD2371F0D09580E28C0F883010F0C11185
:103EF00015C08091BA02D823D093BA020E945615F9
:103F000098E0E91AF108A4E0EA16F10410F40E941E
:103F1000490560E0C8010E941B11FCCD80911A0484
:103F2000D823D0931A04EACF822F8F70207F2032BB
:103F300011F08295807FC13061F4662329F036301C
:103F4000F8F60E947C18DCCF3530D0F60E9471184C
:103F5000D7CF662319F03323A1F3B5CF3323B1F3C1
:103F6000C93349F4BFEFE7EEF3E0B150E040F04071
:103F7000E1F700C000008C2F0E948618C1CF822F6D
:103F800086958695837069F0813009F0B9CF8C2FC2
:103F9000922F9370611102C080E090E00E94FF04B4
:103FA000AFCF8C2F922F9370611102C080E090E010
:103FB0000E942405A5CF8C2F0E943C14A1CF822FF4
:103FC000837009F03FC061119BCF3C2F329536952D
:103FD0003770330F330F4C2F4F7050E0032E02C059
:103FE000440F551F0A94E2F790E080E0C4FF09C037
:103FF0008FE090E002C0880F991F3A95E2F7809514
:104000009095269526952370223099F078F460914A
:104010001E0370911F03213039F0842B952B8623CA
:1040200097230E94EC106CCF462B572B842B952B9B
:10403000F8CF842B952B20911E0330911F038227EC
:104040009327EFCF8695662311F0822F8170882306
:1040500009F456CF3C2F329536953770330F330F16
:104060004C2F4F7050E0032E02C0440F551F0A948E
:10407000E2F790E080E0C4FF09C08FE090E002C06A
:10408000880F991F3A95E2F7809590952695269589
:104090002370223099F078F460912003709121030D
:1040A000213039F0842B952B862397230E94AE1064
:1040B00027CF462B572B842B952BF8CF842B952B72
:1040C000209120033091210382279327EFCFD22F15
:1040D000DF70662329F08D2F0E94DC108C2F31CFEA
:1040E0008C2F0E9471188D2F0E94CA1009CFC13FDA
:1040F00069F148F4C03FC1F06623A1F13111E3CE6C
:10410000822F8F7127C0C23F41F1C33FA9F790E0D2
:1041100080E0662359F22F7181E090E002C0880FA1
:10412000991F2A95E2F7C2CF662361F0353008F077
:10413000E7CE2F7181E090E002C0880F991F2A9589
:10414000E2F7BECF363008F0DBCEF3CF822F8F718F
:10415000662351F20E94DC10D3CE822F8F7166232A
:10416000C9F3C2CF332359F0C93309F004CF2FEF7D
:1041700037EE83E0215030408040E1F7FACE822FC5
:104180008F71B2CF8091BA02C631BCE7DB0731F53F
:104190008A7A91E009F490E090939C0269E281119F
:1041A00065E384E992E00E94E5040E945615B2CCD2
:1041B000C631ECE7DE07F1F480919C028111A2CDBB
:1041C00089E2E6E9F2E09191891303C0DF011197DA
:1041D0001C9222E0EC39F207B1F7E7CF8272FE01C0
:1041E000E052F847EB30F10508F0DFCDEB5DF94C1C
:1041F0000C94A9348091BA028272FE01E054F8470F
:10420000ED30F10508F0D1CDE05DF94C0C94A93406
:10421000CF93DF938091B702807F09F04DC08091EA
:10422000B602882309F448C0E0912B055091E204BE
:10423000C091B202D091B1026091B3027091B40208
:1042400049E05E17C9F18E2F90E0E49FF001112440
:10425000ED51FB4F2481222391F1489FF001499FAA
:10426000F00D1124DF01AD51BB4F11962C91119728
:104270002C1325C02C912D1322C015962C91159727
:1042800021111DC012962D913C91261B370B283C05
:104290003105A8F48091B7028F7080618093B702D6
:1042A000E751FB4F80818F708061808381EB92E0CA
:1042B0000E94161D0E94FA0FDF91CF910895FC0114
:1042C0003196E770BECFA8E1B0E0E9E6F1E20C94E8
:1042D00050348C0186E0F801DE01539601900D9276
:1042E0008A95E1F7F8018481E58091EBA92E92E0AF
:1042F000B92E9091B502911128C0882319F1EE20B2
:10430000F1F0C8010E94F110F82E8823C1F089E075
:10431000F801D50101900D928A95E1F78091B502DF
:10432000813031F48091B1029091B2020E94381034
:104330000E9408218F2D6896ECE00C946C34C80123
:104340000E94161DFF24F394F5CFD080C180828097
:104350009380F090B6022091B3023091B402A40190
:10436000421B530BFF2009F40DC1483C510508F0D6
:10437000B6C08823F9F29091B2028091B702282F3B
:10438000207F09F05FC0C9121DC09091B102D912FF
:1043900019C04091B8025091B90227813085421767
:1043A000530781F4E11048C08F7080618093B70299
:1043B00081EB92E00E94161D8091B702F80186837E
:1043C000F12CB8CFE11038C06C2D8D2D0E94310337
:1043D0006C2D8D2D0E943103E82E8111F1CFDB8AE7
:1043E000CC8A8B899C890E943810292F22952F70A6
:1043F000243058F49F70223088F0992399F0F80106
:104400009681907F79F4FE2C95CF2A5F2F70223011
:1044100068F0C8010E94161DEF2CF5CF992311F00A
:10442000882389F3805E883070F3F3CF803F58F3A0
:10443000815F833070F7E7CF8091B702816080930E
:10444000B702BECFC9121CC09091B102D91218C0D8
:104450004091B8025091B902278130854217530725
:1044600079F4E1100DC08683C8010E94161D89E011
:10447000F801A1EBB2E001900D928A95E1F75ACFD5
:10448000C8010E94F110882309F459CFEE2009F4E5
:1044900056CF8091B7028032B8F02091B1023091AE
:1044A000B2023B872A879D868C869091B5029E87B3
:1044B0001F86888B8091B8029091B9029A8B898B64
:1044C000CE010A960E94161D89E0F801A1EBB2E028
:1044D00001900D928A95E1F70E94082133CF9091C7
:1044E000B702292F207F51F481EB92E00E94161D24
:1044F00089E0F50111928A95E9F762CF882309F4E2
:1045000019CF8091B2028C1119C08091B102D812DA
:1045100015C04091B8025091B902278130854217E9
:10452000530761F4E1100AC09683C8010E94161D6A
:1045300089E0F50111928A95E9F7FCCEC8010E9445
:10454000F110882309F4FBCEEE2009F4F8CE809117
:10455000B702803208F4B8CF2091B1023091B20294
:104560003A8329839C828B829091B5029D831E821F
:104570008F838091B8029091B90299878887CE0184
:104580000196A0CF483C510598F6882309F4DACE6D
:10459000FE2CEE2009F4D3CE8091B2028C1120C003
:1045A0008091B102D8121CC02091B8023091B9029A
:1045B000878190852817390799F49091B70290FD6B
:1045C00056CF907F09F453CF8091B7028683903FF6
:1045D00009F44ACF982F907F905F8F70892B43CF3B
:1045E000C8010E94F11081116FCF8091B7028160E4
:1045F0008093B702C8010E94161D9CCEA2E1B0E0D4
:10460000E4E0F3E20C9458340A871B872C873D873B
:104610004E875F87688B798B8A8BCE010A960E94C2
:10462000632181110CC089E0FE013A96DE011196EA
:1046300001900D928A95E1F78E8581110BC019E0EA
:1046400080912B059091E204891331C06296E4E0D9
:104650000C9474342091E20430E0C9010196877013
:10466000992740912B054817190699F099E0929FD8
:10467000D001939FB00D1124AD51BB4FFE01319677
:1046800001900D929A95E1F78093E2040E94FA0F4F
:10469000D6CF0E947D151092E20410922B0589E07E
:1046A000E1EBF2E0DF011D928A95E9F7C8CF819F27
:1046B000C00111248D519B4F0E946321882331F248
:1046C00080912B0590E001968770992780932B05A8
:1046D000B7CFEF92FF920F931F93CF93DF93809109
:1046E0001C04882361F0E0911B048DE0F82E80917A
:1046F0001C04E81748F010921C0410921B04CDB75C
:10470000DEB7E6E00C947234EE24E394EE0EE09211
:104710001B04CE2FD0E0EF9DF0011124E35EFB4F90
:1047200084818823E9F087819085892B21F4818514
:104730009285019659F4008111812281338144814F
:1047400055816681778180850E94FE22FC9EF00162
:10475000FD9EF00D1124E35EFB4F148210921A04AB
:10476000EE2DC5CF1092900410928F0410929401F8
:1047700080918E0480938D040E94A3050E9469237A
:104780000895B0E0A0E0E7ECF3E20C944A34C09165
:104790008D0497E0892E01E010E02DE0922E34E0A8
:1047A000232E80918E048C1309C00E9469230E94DD
:1047B000A305CDB7DEB7E2E10C946634D0E0FE018C
:1047C000EE0FFF1FEB57FB4F80819181B0E0A0E01F
:1047D0008930910538F4889ED001899EB00D11244E
:1047E000AB5ABE4F14962C911497211152C03090A1
:1047F0001C044DE154E030E020E0412C231508F08A
:1048000046C0FA01C384D4846D907C9011976FEFF9
:104810007FEF512CA52CB12CF501EE0FFF1FE60DFB
:10482000F71DE590F490CE14DF0409F4B501E1140E
:10483000F10411F05394EECF6F3F760779F1F80150
:1048400002C0EE0FFF1F6A95E2F74E2AB801052C51
:1048500002C0660F771F0A94E2F76150710946168D
:104860001706D1F412964D915C911397929EF00128
:10487000939EF00D1124E35EFB4F50874783248203
:104880001082118292878187F1E01596FC930E9435
:1048900070052196C37085CFFA0114822F5F3F4FB8
:1048A000435F5F4FABCFB0E0A0E0E9E5F4E20C94EA
:1048B0004D34D82F809154018D1323C09091300531
:1048C00093702091530130E081E09217130609F4B0
:1048D00080E0817080939B018091350590919A01D1
:1048E000981739F080939A0140E060E080E00E94E0
:1048F0006808DA3260F4ED2FF0E0E35CF94C0C94D8
:10490000A93481E0E6CF80919B01811102C080E053
:1049100051C040E060E080E00E946808F8CF8091DC
:1049200099010E944906082FC92F609131057091A5
:104930003205809133050E942D0AF62EE72ED82EDF
:1049400010E00C1710F08C2F33C0F801E359FD4F25
:10495000808190919A01892331F02D2D4E2D6F2D5C
:10496000C8010E945D080F5F1F4FEBCF8091990136
:104970000E944906082FF92EE09032051091330568
:10498000C09131056C2F7E2D812F0E942D0AD62ECD
:10499000C72EB82E609134056C0F7E2D812F0E949A
:1049A0002D0AC62FE72EA82E10E00F15D8F08F2D58
:1049B0000E941F0A909199019F5F90939901811124
:1049C0000CC082E080939C0180919B01811105C005
:1049D000D11103C083E080939C01CDB7DEB7EFE037
:1049E0000C946934F801E359FD4F908180919A014C
:1049F000892359F02A2D4E2D6C2F90FD03C02B2DAD
:104A00004C2D6D2DC8010E945D080F5F1F4FCDCF4B
:104A1000809199010E944906F92EE0903205D090CC
:104A2000330520913405C0E43C2F329F312D1124F1
:104A3000C32F082F10E00F1508F0B9CFF801E35984
:104A4000FD4F808190919A018923B1F0F801EE0F1A
:104A5000FF1FE350FE4F81A582958F706091310555
:104A60008C9F600D11247E2D8D2D0E942D0A472FC5
:104A7000282FC8010E945D080F5F1F4FDCCF809177
:104A800099010E944906F92EE0903205D090330535
:104A900020913405C0E44C2F429F412D1124C42F96
:104AA000082F10E00F1508F082CFF801E359FD4FF1
:104AB000808190919A018923D1F0F801EE0FFF1FB8
:104AC000E350FE4F60A5C69FB001112455E07595D7
:104AD00067955A95E1F780913105680F7E2D8D2DF0
:104AE0000E942D0A472F282FC8010E945D080F5FE2
:104AF0001F4FD8CF8FE899E00E94140C5BCF84E35E
:104B000098E0FACF8AE098E0F7CF8FE299E00E9430
:104B1000070D50CF80E199E0FACF85EF98E00E9431
:104B2000A30C48CF89ED98E0FACF88E098E0E4CF75
:104B30008FEF97E0E1CF86EF97E0DECF8DED97E046
:104B4000DBCF8FEC97E0EBCF8DEE99E0E0CF88ECF8
:104B500098E0DDCF84EB98E0E2CF82EA97E00E9414
:104B6000560C28CF84E797E0FACF8DE397E0F7CF94
:104B7000809199010E944906C92F90919B01911142
:104B800020C06091340520E1620F08F46FEF80913E
:104B9000B5049091B6040E94150A6AE070E00E9484
:104BA0008134892B09F0CFCE0E94A809A4E28A9F04
:104BB000C001112460919A01892F90E00E94B70AE8
:104BC000C2CE082F10E0EC2EF12C0E151F050CF0B4
:104BD000BACE60919A01C8010E94B70A0F5F1F4FB9
:104BE000F4CF8091990181111CC06091340520E1BE
:104BF000620F08F46FEF8091B5049091B6040E94A3
:104C0000150A65E070E00E948134892B51F40E94FE
:104C1000A809B4E28B9FC001112490935101109216
:104C20005201809199010E944906192FC82F909135
:104C30009B0191111EC020915101309152018217A8
:104C4000130609F0C0F412171306A9F0A0F0609142
:104C50009A01822F0E94540D85E290E090935201B8
:104C60008093510108C060919A018C2F0E94540DCD
:104C7000CF5FC117C0F3812F9BCE809199010E9415
:104C80004906082FF92EE090320510913305C091A6
:104C90003105609134056695669566958091B504F9
:104CA0009091B6040E94150A0E944D09805887FD14
:104CB0008195880F682F2CE0629F612D11246C0F65
:104CC0007E2D812F0E942D0AC62FE72ED82E10E0B0
:104CD0000F1508F06CCEF801E359FD4F80819091DB
:104CE0009A01892331F02D2D4E2D6C2FC8010E9481
:104CF0005D080F5F1F4FECCF8CE699E0FDCE8CE294
:104D000097E0FACE809199010E944906782EA92E4B
:104D100080919B01882361F040E060E080E00E9488
:104D20006808E6E5F3E088E2DF011D928A95E9F77D
:104D300080919901811115C0809152039091530384
:104D40000E94C70421E08931910508F420E02093F6
:104D50005103499730F00E94AA1C9093530380930B
:104D60005203C12CB12CD12C95E0892E25E5622E61
:104D70003AEA932E5524539405C0F7E0FB1508F446
:104D800056C0D12C2D2D30E08C9C80011124F801CF
:104D9000E350FE4FE20FF31FE080E71408F43FC03A
:104DA000EA1408F03CC0B394F12CF701E359FD4F2D
:104DB000808190919A01892309F431C00A5A1C4FCD
:104DC000020F131FF801C0813C2F262D321B08F45F
:104DD00030E070913205292D4C2F240F08F42FEF6D
:104DE00040913305822F880F820F8E5F282F249FDA
:104DF000212D1124822F692D631B0E942D0A472F1C
:104E0000282FC7010E945D0880915103882339F043
:104E10002C2F352D231B08F420E0D8012C93D3949C
:104E2000B5E0DB12AFCFC394E8E0CE12A6CF8A2D57
:104E3000BFCDC091330523E0C29F80011124169598
:104E4000079516950795502EAC2EB12C8FEF90E05C
:104E5000B5010E949534762E80919B01882371F0D4
:104E600040E060E080E00E946808E6E5F3E088E268
:104E7000DF011D928A95E9F7109255038091540342
:104E80008F5F80935403F12CE12CA01AB10A6701C3
:104E9000612CC7018A5A9C4F4C0180915503862989
:104EA00009F045C00E94FB34853595400CF03FC0A9
:104EB000F401C083F601E350FE4FE081EF3FD1F0F3
:104EC000D601AA5ABC4F2C91F0E0521608F040C00F
:104ED00030E0201B310B209FC001219F900D309F9F
:104EE000900D1124B5010E948134262F4C2FCF0143
:104EF0000E945D086394F5E0CF0ED11C28E0621299
:104F0000CCCF3FEFE31AF30A45E0E416F10409F0D1
:104F1000BECF80915403781202C010925403809146
:104F200055038F5F8D31F0F480935503F0CCF6017B
:104F3000EA5AFC4F8081882309F4BCCF8C1708F013
:104F4000B9CF909154037912B5CF81508083B2CFFD
:104F5000C29FC0011124B8010E948134462F20E075
:104F600060E0C5CF1092550324E733E087E04BE5BE
:104F700053E09FEF9C0FA6E5B3E0F901873041F4C1
:104F800093966C919397C61303C093969C939397B3
:104F900060816C1710F09083C583119631964A1783
:104FA0005B0761F78150255031098111E4CFAFCC07
:104FB00085E297E00E94AD0BFDCC8EE197E0FACF41
:104FC0008091B90421E0382F321B08F430E0832FA0
:104FD00065E077E00E94F10AEDCC65E077E080E0E3
:104FE000F9CF8091B90421E0482F421B08F440E03A
:104FF000842F6AEC76E0EECF6AEC76E0F0CF809119
:10500000B90421E0382F321B08F430E0832F68E91F
:1050100076E0E0CF68E976E0E2CF8091B90421E064
:10502000482F421B08F440E0842F60E876E0D2CF9E
:1050300060E876E0D4CF8091B90421E0382F321BAC
:1050400008F430E0832F6AE676E0C4CF6AE676E0C3
:10505000C6CF4F925F926F927F928F929F92AF9244
:10506000BF92CF92DF92EF92FF92CF938090A703EF
:105070009090A803A090A903B090AA038091B304D4
:10508000882309F44CC0C501B4010E94AB046B0134
:105090007C010E94B90D4B015C018092A7039092A4
:1050A000A803A092A903B092AA03A0917E03EEE701
:1050B000F3E08A2F90E04FEF5FEF60E070E04C1973
:1050C0005D096E097F09A91333C080937E03809127
:1050D000AB03C0E0811108C080913005C82FC370B8
:1050E00019F0C82FC695C69580919C01813009F4AE
:1050F00049C0882381F1823009F450C0833009F41B
:1051000051C0CF91FF90EF90DF90CF90BF90AF90C4
:105110009F908F907F906F905F904F9008950E9426
:10512000B90D6B017C01C818D908EA08FB08B1CF9A
:10513000218D328D2901712C612C44155505660590
:10514000770520F481509F5F3296BDCF2C0D3D1D19
:10515000328F218FF8CF109299018092B5049092EE
:10516000B604A092B704B092B80489E2EEE7F3E087
:10517000A9EBB4E001900D928A95E1F781E080936C
:105180009C01BFCF8C2F0E945324CC2309F4B9CFAC
:105190008091990181500E944906B3CF8C2F0E94C3
:1051A0005D06AFCF80912F05882351F048E050E095
:1051B00067E170E080E395E00E94453510922F058D
:1051C000C090B504D090B604E090B704F090B80455
:1051D0008091B304882369F0C701B6010E94AB0433
:1051E000603171058105910508F48BCF10929C0107
:1051F00088CF0E94B90D6C197D098E099F09F0CFE7
:10520000A5E1B0E0E6E0F9E20C944E348E01075FD0
:105210001F4F88E0D8011D928A95E9F79DEDE92E90
:1052200091E0F92E99249394CC24C394D12C36EE9A
:10523000A32E31E0B32EF70181917F018F3F09F456
:1052400047C0F894E82FE295EF70F0E021A18F704D
:10525000A60102C0440F551F8A95E2F7CA01922F9A
:10526000982B91A392A18095892382A3789400C062
:1052700082EE682E81E0782ED801692D6095F301C9
:1052800091913F018D919D01215031099F3F09F47A
:10529000A4C0492F42954F7050E0FA0140A150E060
:1052A0009F7002C0559547959A95E2F740FD95C0CD
:1052B0008929F9018083A614B70409F7F70131970A
:1052C00080818F3F11F00E94A20DF0EAFA95F1F76C
:1052D000990C22EEE21621E0F20609F0ACCF48E08C
:1052E00050E0B80184E193E00E940B35009741F053
:1052F00028E0F801A4E1B3E001900D922A95E1F7CE
:1053000000911D0310E00C5D1C4F892B09F467C050
:1053100081E08093C7020E94AA1C9093C6028093EA
:10532000C502F12CE090B304EE2009F4B7C0198255
:105330001A821B821C8280910F038A3008F073C08E
:1053400047E25BE1BE016F5F7F4FC8010E9405121B
:10535000882309F492C04DE15AE1BE016F5F7F4F8F
:10536000C8010E940512882309F487C043E659E169
:10537000BE016F5F7F4FC8010E940512882309F4A8
:105380007CC041EF59E1BE016F5F7F4FC8010E94B1
:105390000512882309F471C041ED5AE1BE016F5F27
:1053A0007F4FC8010E940512882309F466C010923D
:1053B0000F0380911C0390E044E050E0BE016F5F5A
:1053C0007F4F8C5D9C4F0E940B3521E02093D202D1
:1053D000892B09F03FC0E12C4AC086236ACFF090A8
:1053E000C702FF2009F49DCF8091C5029091C602AB
:1053F0000E94C704449708F494CF44E050E064E16D
:1054000073E0C8010E940B35892B59F084E0E4E178
:10541000F3E0D80101900D928A95E1F71092C7024E
:1054200081CFF12CFBCF8091C8029091C9020E94DC
:10543000C704843F914008F083CF8091D202882333
:1054400051F284E0FE013196DF011D928A95E9F761
:105450001092D202E0911C03F0E0EC5DFC4F8981D8
:105460009A81AB81BC8180839183A283B3838E2D8B
:105470008F296596EEE00C946A3480910F038F3F7C
:1054800031F08F5F80930F038A3008F492CF0E942F
:10549000AA1C9093C9028093C802CFCFC0901C036E
:1054A000D12CF601EC5DFC4F6F0184E0F801A0EE19
:1054B000B2E001900D928A95E1F764E070E080EE31
:1054C00092E00E945A058093DF0284E0E4EEF2E06D
:1054D000D60101900D928A95E1F78090E8029090B4
:1054E000E902A090EA02B090EB028091CA0290918A
:1054F000CB02A091CC02B091CD0288169906AA06E3
:10550000BB06B1F08092CA029092CB02A092CC026C
:10551000B092CD020E94D604861A970AA80AB90A48
:105520008092100390921103A0921203B092130381
:1055300088E0ECEEF2E0A0E3B5E001900D928A95F0
:10554000E1F71091F402112349F08091AB0381112E
:1055500005C00E94532480E00E945D061093AB03B7
:105560008091B404811183CF6091CE027091CF02FB
:105570008091D0029091D1020E94AB04672B682BDE
:10558000692B09F474CF0E94D6046093CE02709305
:10559000CF028093D0029093D1020E94B6129C0158
:1055A00098E0E5EFF2E0DE01119601900D929A95F8
:1055B000E1F78F819885009729F02817390711F0B6
:1055C0000E948312FE01719685E0DF011D928A958B
:1055D000E9F749895A896B897C898D890E9453141E
:1055E0002A833B834C835D836E8365E070E0CE014C
:1055F00002960E945A05898388E0FE013196A5EF44
:10560000B2E001900D928A95E1F7E5CEAEE1B0E00F
:10561000ECE0FBE20C944A344B8B5C8B6D8B7E8B05
:105620008F8B988F911110921A04188A198A1A8AEE
:1056300086E0FE017396DE011A9601900D928A951E
:10564000E1F78E858823B1F061E0CE010A960E94D1
:105650001B1161E0CE010A960E941B116C018F851F
:1056600020E5C2162CE7D20689F4882329F181E0CF
:10567000809394010A851B852C853D854E855F8529
:10568000688979898A890E94FE22C9C031E5C316DA
:105690003CE7D30629F4882379F00E94B223EACFAD
:1056A00042E5C4164CE7D40639F4882329F08091EA
:1056B00094018111F2CFDBCFF5E5EF2EF1E0FF2E63
:1056C000412CB12CA12C66246394712CB7E03B2EA5
:1056D000CE0101969A8F898F22242394F70140816D
:1056E000518188248A94982C60E0262F30E0F901BB
:1056F000EE0FFF1FE40FF51F85919491C816D90690
:1057000009F44901892B11F06F5FEFCF10E0FFEF33
:105710008F169F0609F444C0F7014481109194014B
:10572000812F411180E0182F1170F701558086817B
:105730009F85992309F4FAC0112309F4F7C0511089
:1057400014C09301082C01C0220F0A94EAF7822B9F
:1057500086838091180490911904C29730F422E353
:1057600030E03093190420931804C30102C0880F5D
:10577000991F6A95E2F70197F70126812817190604
:1057800079F480918F0490919004009709F44BC0B4
:105790000E94C704C39708F446C0F701248211E0B1
:1057A000412AFFEFAF1ABF0A27E0E20EF11C39E0F1
:1057B000A316B10409F092CF8F85882309F415C18F
:1057C000442009F412C10E94AA1C90939004809373
:1057D0008F0480911C04883010F591E0980F90930D
:1057E0001C0499E0FE013A96DE01119601900D929B
:1057F0009A95E1F74DE0849FC0011124835E9B4F91
:1058000029E0FE013196DC0101900D922A95E1F725
:105810002FEF3FEFFC0132872187D486C3866E9637
:10582000E2E10C94663480918D0460918E04982F8F
:10583000F0E0E0E0861314C090938D04EE16FF06AE
:1058400009F4AECF90E0FC01EE0FFF1FEB57FB4FCA
:10585000B182A08201968370992780938E04A0CF95
:10586000882E912CF401EE0FFF1FEB57FB4F208188
:105870003181B0E0A0E02930310538F4329ED0010A
:10588000339EB00D1124AB5ABE4F2D913C91119710
:105890003E8F2D8F00E070E0512CE52DF0E0EE0FF3
:1058A000FF1F2D8D3E8DE20FF31F259134912115A1
:1058B0003105E1F0F7010190F081E02DFC8FEB8FD5
:1058C00070E005C02417350709F4012F7F5FE72F2B
:1058D000F0E0EE0FFF1F4B8D5C8DE40FF51F45913F
:1058E00054914115510571F75394D7CF002329F0F6
:1058F000751530F0FD01109721F4F0E0E0E010C0E4
:10590000F7012482EE16FF0621F490938D04102FE8
:1059100047CF981305C0AE17BF0711F49F5F937070
:1059200094012F5F3F4F822F837084CF90E05110FE
:105930001FC0930102C0220F331F6A95E2F7215066
:1059400031092817390731F4442309F44CC0C50143
:105950000E947005C301082C01C0880F0A94EAF761
:10596000982F9095F701868189238683152D18CF6E
:10597000AC01082C02C0559547950A94E2F7BA018C
:10598000617077279C012150310982239323892B51
:1059900031F5672B21F1F70182819381892BE1F0A9
:1059A000E98DFA8D232D11922A95E9F70E94AA1C00
:1059B000282F8B839C8334E03D83F7018281938180
:1059C000782F8887998709811A813C8144E05E811C
:1059D0006F81892F0E94FE22F7011582BBCFF42F21
:1059E000F1705F2EB7CF512EB5CF90918D0480917D
:1059F0008E04981739F00E94C123F1E04F1609F484
:105A00000ECF38CE0E9469231092900410928F041A
:105A10000E94A305F2CFA6E0B0E0E1E1FDE20C9424
:105A200058340E94AA1C8C018091C3029091C40238
:105A30008017910781F019821A820E94AA1C682F90
:105A400049815A81792F80E090E00E94062B1093C3
:105A5000C4020093C3022696E4E00C9474341F92AF
:105A60001FB61F9211248F939F93AF93BF93809182
:105A70009704811113C08091980490919904A0918A
:105A80009A04B0919B044196A11DB11D8093980486
:105A900090939904A0939A04B0939B04BF91AF9103
:105AA0009F918F911F901FBE1F901895CDB7DEB7A5
:105AB00063970FB6F894DEBF0FBECDBF85B7806881
:105AC00085BF85B7806885BF84B7877F84BF0FB6E1
:105AD000F894A8958091600088618093600010928E
