:100000000C94C70A0C94FF0A0C94FF0A0C94DE2D82
:100010000C94FF0A0C94FF0A0C94FF0A0C94FF0A3C
:100020000C94FF0A0C94FF0A0C94191E0C94D51D15
:100030000C945C2A0C94FF0A0C94FF0A0C94FF0A9F
:100040000C94FF0A0C94FF0A0C94FF0A0C94FF0A0C
:100050000C94FF0A0C94F21E0C94FF0A0C94FF0AF5
:100060000C94FF0A0C94FF0A0C94FF0A0C94FF0AEC
:100070000C94FF0A0C94FF0A0C94FF0A0C94FF0ADC
:100080000C94FF0A0C94FF0A0C94FF0A0C94FF0ACC
:100090000C94FF0A0C94FF0A0C94FF0A0C94FF0ABC
:1000A0000C94FF0A0C94FF0A0C94FF0A0F343438A6
:1000B00000001000360000000600190000001C00BF
:1000C000180000001500170000000D320E3100006E
:1000D00007210922000005010980A10185031901FA
:1000E0002AB700150126B700950175108100C005DB
:1000F0000C0901A101850419012AA002150126A0FD
:1001000002950175108100C005010902A1010901D4
:10011000A100050919012908150025019508750197
:1001200081020501093009311581257F9502750885
:10013000810609381581257F950175088106050C12
:100140000A38021581257F950175088106C0C00512
:10015000010906A101050719E029E7150025019508
:1001600008750181029501750881010507190029AB
:10017000FF150026FF009506750881000508190186
:100180002905150025019505750191029501750355
:100190009101C014001A4408001500170004281625
:1001A00024072109220A001D001B00060019000572
:1001B000002B41000029432C420000130012000CC8
:1001C0000018001C0034380F340E310D320B00388B
:1001D000003700360010001100284600002A4500B4
:1001E00000000000000000000000000000E300E24A
:1001F00000E000E10000000000000000000000003E
:100200000001000000000000000000450042004125
:10021000004000460044003F003E003D00470043D0
:10022000003C003B003A004800000000004C000089
:1002300000000000000000000000000000E300E2F9
:1002400000E000E1000000000000000000000000ED
:10025000000000000000000100000000000000009D
:1002600000000000004F0052005100500039004DC6
:10027000004B004E004A004900280000002A000000
:1002800000000000002278207821780000AC00AA4D
:1002900000A800A900AB00000000000000037C00E3
:1002A0007CAD0000000100AE0000000000217820BD
:1002B0007822780000AB00A900A800AA00AC0000DA
:1002C0000000000000037C007CAD000000AE0000D8
:1002D00000000000000000067E01000100E300E2D3
:1002E00000E000E10000000100067E047E037C00C7
:1002F0007CD2000000D300D100000000000000000C
:1003000000007E027EE300E200E000E10000000168
:1003100000067E047E037C007CD4000000D5000033
:100320000000002F002400250026003000330021AB
:1003300000220023002E0035001E001F0020003187
:10034000002D000000370027000000000000000022
:1003500000000000002D002E0225023800000000E1
:100360000000000000000037000000000001000055
:100370000000002F0224022502260230023302214F
:1003800002220223022E0235021E021F0220023127
:10039000022D02000026024C0000000000000000B8
:1003A0000000000000E300E200E000E100000000C7
:1003B000000000000000000000010000000000003C
:1003C00000000001048E966E773EFE7E5F1DB8F23F
:1003D000664EFF5D19B0C20469542AD62EBFDD19DE
:1003E000B0C3E529B1E023A5A9B1C10082674C1AC9
:1003F000978D795120C7068E7C7C7A764FFD5930D7
:10040000E2460E9EBEDF1D9991A0A5A1A9D022C6ED
:10041000EF5C1B958990A2A7CCFB5528B3E44AF763
:100420006C3BF46A562EDE1F9DB8D3058892A6CE8B
:100430001EBEDF1D99B0E246EF5C07115D980B9D73
:100440009497EE4E45336B44C729562730C6A7D53F
:10045000F256DFB43862CBA0B6E30F8406240565FC
:100460006F7689B577412782666582CCD5E620D53F
:100470002717C5F803237C5F64A51DC1D636CB4C76
:10048000D4DB66D78BB1997E6F4C364006D6EBD75E
:10049000A2E4F495515A5496D55344D78CE0B94010
:1004A00068D218E9DD9A239248EE7F43AFEA7738A5
:1004B000848C0A72AF69F8DDF12483A3F84ABFF592
:1004C0009413DBBBD8B4B3A0FB4550603059123154
:1004D00071A2D313E7FAE7CE0F63150B6B94BB370A
:1004E0008326059DFB4692FC0A15D10D7392D68C8E
:1004F0001B8CB8558ACEBDFE8EFCED09128391820D
:10050000513123FBB40C76AD7CD9B44BB2671409DE
:100510009C7F0C18BA3BD68E142AE41B529F2B7D6D
:10052000E1FB6A3302FAAC5AF23E887EAED1F37830
:10053000E805D1E3DC21F6E19ABD170ED9469B8888
:1005400003EAF666BE0E1B5049964097F1F1E4802F
:10055000A66EE87734BF294044C2FF4E98D39CA3CF
:10056000322B76510409E7A9D1A632B12353E247D1
:10057000ABD6F5695C3E5FFAAE4520E5D244FF3963
:10058000326DFD27575CFDF0DEC1B599E5F51C77AE
:100590000175C56D5892F2B247000126967A30FF78
:1005A000B7F0EF77C18A5DDCC0D129301E77387A89
:1005B00094F1B87A7EEFA4D1AC314AF25D643DB2D9
:1005C000E2F00899FC70EE24A77EEE1E20697D44BF
:1005D000BF8742DF883B0CDA42C904F94550FC83EF
:1005E0008F116A72BC9995F0AC3DA73BCD1CE28897
:1005F0007937115F3989950A16847AF68AA428E436
:10060000ED83803BB123A50310F466EABB0C0FC554
:10061000EC6C69C5D324ABD42AB799887608A0A816
:10062000957CD8386DCD5902514BF1B52B50E3B6BE
:10063000BDD072CF9EFD6EBB44C8248A77188A1342
:1006400006EF977DFA81F031E6FA77ED3106315BFE
:10065000548A9F3068DBE240F84E73FAAB748B101B
:100660005813DCD2E678D1322E8A9F2C58064827C0
:10067000C5A95E8147894621910370A43E889CDA12
:10068000330ACEBC8B8ECF9FD3718043CF6BA951E1
:1006900083763082C56A853911501A82DC1E1CD5DA
:1006A0007DA9719933471997B35AB1DFEDA4F2E6EA
:1006B0002684A2289A9EDFA66AF4D6FC2E5B9D1A99
:1006C0002A2768FBC183214B90E036DD5B31425520
:1006D000A013F7D089537199570929C5F321F83729
:1006E0002F40F3D4AF16083602FC77C58B04905622
:1006F000B9C9679A99E800D386FF972D08E9B7B37F
:1007000091BCDF45C6ED0F8C4C1EE65B6E3830E4C5
:10071000AAE395DEB9E49AF5B2559A879BF66AB2D8
:10072000F2779A31F47A31D11D04C07C32A29E9ABC
:10073000F562F8278DBF51FFD3DF64373F2A6F760C
:100740003A7D77069E777F5EEB3251F916669A09FD
:10075000F3B008A470964630FFDA4FE91BED8DF830
:10076000741F3192B3731736DB9130D688556B34D2
:1007700077877AE7EE06C61C8C190C4846235E9CE8
:10078000075CBFB47ED64F749CE2C5508BC58B15F9
:100790009060625729D01343A18088910044C74DCF
:1007A0001986CC2F2A755AFCEB972A70E378D891DA
:1007B000B04F9907A395EA2421D5DE512093270A4B
:1007C0003073A8FF8A97E9A76A8E0DE8F0DFECEA9C
:1007D000B46C1D392A622D3D5A8B65F890052E7E2A
:1007E000912C78EF8E7AC12FAC78EEAF2845064C6D
:1007F00026AF3BA2DBA39306B53CA5D8EE8FAF2571
:10080000CC3F856848A962CC978F7F2AEAE0150A19
:10081000AD6207BD45F841D836CB4CDB6EE63AE712
:10082000DA15E9291E1210A0142C0E3DF4BF39412F
:1008300092750B257BA3CE399C1564C8FA3DEF73E6
:1008400027FE262ECEDA6EFD718EDDFE76EEDC12F0
:100850005C02C53A4E4E4FBFCA4015C76E8D41F17E
:1008600010E04F7E977F1CAE478E6BB12531B07381
:10087000C71B9779F980D366223007741EE4D080B5
:1008800021D6EE6B6C4FBFF5B7D909872FA914BEDF
:1008900027D9725001D41373A6A751027525E1B36D
:1008A00045347DA88EEBF31649CB4F8CA1B9368524
:1008B00039755D0800AEEBF6EAD7133A215A5F307E
:1008C00084522695C914F257556BB110C2E1BD3B55
:1008D00051C0B7554C711226C70DF951A438020505
:1008E0007FB8F1724BBF718914F37738D97124F353
:1008F0000011A1D8D46927083735C9119D901C0E65
:10090000E71CFF2D1EE892E11810957CE080F4961C
:100910004321F975216438DD9F1E9516DA561D4F67
:100920009A53B2E2E418CB6B1A65EB56C63BE5FE70
:10093000D8263F3A84597266A2F375FFFB60B32252
:10094000AD3F2D6BF9EBEA057CD88F6D2C989E2B73
:1009500093F15E46F08749297368D77FF9F0E57D0A
:10096000DB1D7519F3C4589B1788A892E0BEBD8B98
:100970001D8D9F5676ADAF29E2D9D552F6B55635C5
:10098000573AC8E156431994D3049B6D35D80B5F91
:100990004D198EECFA64910A72202BBC1A4AFE8B18
:1009A000FDBBED1B23EAAD7282A1299971BDF095C3
:1009B000C103DD7BC2B23C2854D368A472C86696DA
:1009C000E0D1D87FF8D1262BF7ADBA55CA15B93288
:1009D000C3E588978E5CFB92258BBFA245557AA70D
:1009E0006F8B575BCF0ECB1DFB208277A88CCC166C
:1009F000CE1DFADECC0B62FECCE1B7F0C38164738E
:100A000040A0C24D8911753355338DE84AFDEA6E19
:100A1000300BD7312CDE47E3BFF85542E27F59E572
:100A200017EF99346991B1238E20872DA8FED58ABE
:100A3000F3843AF037E4090054EE674993E4817097
:100A4000E3904DEFFE41B7997BC183BA62126F7D8F
:100A5000DE6BAFDA16F95551EEA60C2B02A3FD8D15
:100A6000FB3017E46FDF3671C4CA872548B047EC06
:100A7000EAB4BFA54D9B9F0293C4E3E4E8422D680E
:100A800081150AEB845BD6A874FB7D1DCB2CDA465E
:100A90002A7662CEBC5C9E8BE7CFBE78F57CEBB34A
:100AA0003A9CAA6FCC72D159F21123D63F48D1B7E4
:100AB000CEB0BFCBEA80DE57D45E972F75D1508E73
:100AC000802C6679BF724BBD8A816CD3E101DCD288
:100AD0001526C536DA2C1AC02794EDB79B850B5E18
:100AE0008097C5EC4FEC885D50073547DC0B3B3DEC
:100AF000DD60AFA85D813824255D5C15D1DEB3AB28
:100B0000EC0569EF83ED5754B8646411163269DA65
:100B10009F2D7F36BB445A34E87FBF03EB007F59DB
:100B2000682279CF736C2C29A7A15F38A11DF02012
:100B300053E01A6314587110AA080C3E161A60226A
:100B4000827FBAA443A0D0AC1BD56B64B51493319B
:100B50009E5350D05766EE5A4FFB032A695876F1E0
:100B600083F74EBA8C4206605D6DCE6088AEA4C33A
:100B7000F103A54B98A1FF67E1ACA2B862D76FA0C3
:100B800031B4D277AF211006C69AFF1D09170E5F48
:100B9000F1AA54344B458A8763A6DCF9243067C632
:100BA000B2D6613369EE50615728E77EEEEC3A5ACF
:100BB000734EA88DE418EAEC4164C8E2E866B62DED
:100BC000B6FB6A6C16B3DD4643B973006A71ED4E2D
:100BD0009D251AC33C4A95159935811402D6989BD8
:100BE000ECD8233B8429AF0C9983A69A344FFAE8BA
:100BF000D03C4BD0FBB668B89E8FCDF7602D7A22E3
:100C0000E57DAB651B95A7A87FB677477B5F8B1209
:100C100072D0D491EFDE19503CA78BC4A9B323CB7B
:100C200076E681F0C1048FA3B8545B97AC19FF3FFF
:100C300055272FE01D429B57FC4B4E0FCE98A943E2
:100C40005703BDE7C894DF6E367332B4EF2E857A52
:100C50006EFC6C188275359007F3E49F3EDC68F3F8
:100C6000B5F31980920699A2E86FFF2E7FAE42A4D9
:100C70005FFBD40E812BC304FF2BB3744E365B9CF9
:100C80001500C6472BE88B3DF19C039A587F9B9C2F
:100C9000BF854979352E567B411439478326AA07EB
:100CA0008998111B86E7737AD87D786153E979F5C5
:100CB000368D449284F91350583BA46A3665498EA8
:100CC0003C0EF16FD284C47E8E3F39AE7C84F163DA
:100CD000378E3CCC3E448145F14BB9ED6B365DBB64
:100CE00020601A0FA3AA55773AA9AE374DBAB88635
:100CF0006BBC0850F6CCA4BD1D4072A586FAE2106C
:100D0000AE3D584B97F34374A99EEB21B701A486DF
:100D10009397EE2F4F3B86A1416F412690785C7FE1
:100D200030384B3FAAECED5C6F0EAD4387FD933539
:100D3000E601EF412690999EFB195BADD2918AE0C6
:100D400046AF65FA4F84C1A12DCF458BD385505551
:100D50007CF96788D44EE9D76B6154A1A4A6A2C2DE
:100D6000BF309C409F5FD7692B24825ED9D6A712E3
:100D7000541AF7559F7650A99584E66B6DB5965435
:100D8000D6CDB3A19B46A7944DC494B498E3E1E2B9
:100D900034D533160754CDB77753DB4F4D469DE915
:100DA000D49C8A36B6B838266C0EFF9C1B438B80C9
:100DB000CCB93DDAC7F18AF26DB8D7742F7E1EB771
:100DC000D34AB4ACFC79486CBC96B69446572DB067
:100DD000A3FC1EB95260852D41D043011E1CD57D58
:100DE000FCF3960DC7CB2A299A93DD882D375DAA8F
:100DF000FB4968A09C50867F685657F9791839D40A
:100E0000E001843361CAA5D2D6E4C98A4A23444E9C
:100E1000BCF0DC24A1A0C4E2073C10C4B5254B659E
:100E200063F480E7CF61B1718221872CF5910032A4
:100E30000CECA9B59A7485E3368F764F9C6DCEBCC9
:100E4000AD0A4BED7604CBC3B9339E019396697D11
:100E5000C5A245799B045C8409ED8843C7AB931414
:100E600026A140B5CE4EBF2A42853E2C3B54E81207
:100E70001F0E9759B22789FAF2DF8E6859DC06BC3B
:100E8000B6850D0622ECB1CBE504E63DB3B0417367
:100E9000083F3C588663EB50EE1D2C3774A9D318DD
:100EA000A3476E9354AD0A5DB82A555D78F6EEBE41
:100EB0008E3C7669B940C234EC2AB9ED7E20E48DCF
:100EC0000038C7E68F44A886CEEB2AE990F14CDFC4
:100ED00032FB731B6D921E95FEB4DB65DF4D235410
:100EE0008948BF4A2E70D6D762B43329B13A334C01
:100EF000236DA676A5216348E6905DED90950B7A6B
:100F000084BEB80D5E630C62264C145AB3AC23A4A5
:100F100074A76F333005600142A028B7EE1938F18D
:100F200064808243E141271F1F90547AD5232ED13C
:100F30003DCB28BA587FDC7C9124E92851836EC5CB
:100F4000562142EDA05622A140806BA8F794CA1307
:100F50006B0C39D9FDE9F36FA69EFC708AB3BC59BE
:100F60003C1E1D6CF97CAFF9887195EB5700BD9F55
:100F70008C4FE12483C522EAFDD30CE217187C6A6A
:100F80004CDE77B4539B4C81CD2360AA0E25739C15
:100F900002793230DF74DF7519F4A5145CF77AA892
:100FA000A591847C6003063BCD50B6279CFEB1DD45
:100FB000CCD3B05924B2CAE21C81229D078F8EB9CE
:100FC000BE4EFAFC3965BABF9D12375E977EF38933
:100FD000F55DF5E3098C62B5209D0C538A681BD240
:100FE0008F75175DD4E5DA756219146A262DEBF852
:100FF000AF37F06CA455B1BCE233C09ACAB0114906
:101000004F689B3B6B3CCC13F6C785616842AEBB17
:10101000DDCD4516291DEADBC803943CEE4F821155
:10102000C3EC28BD970599DED7BB5E221FD4EB64C5
:10103000D992D985B76A056AE42441F1CDF0D83F49
:10104000F89E0ECD0B7A706B5A750A6A3388EC17CE
:10105000750870102F24CFC4E942006194CA1F3A6A
:101060007606FAD24881F077600345D961F4A46F1F
:101070003DD930C3046B542AB7EC3BF44BF56852AE
:1010800026CEFF5D1991A0A3A5A9B1E023C40A77DC
:101090004DF95120A3A5A9B1C10082868E7F5D19AB
:1010A00091A0A3C4EB540B756852078C9A978D7965
:1010B000706246EF5C1B95897141E121A1A1A1C03D
:1010C00002674C1AB6CFFD785324ABB5C9F1602343
:1010D000A5C812876D5813858892876D5832C70C42
:1010E0009A97ACDA36EE5E3EDF1DB8F2662FBDF899
:1010F0007247ED5813858892878C7B550990A2C65C
:10110000EF3DF85324ABD42AB7EC5A36EE5E3EDFFF
:101110003CFA764FFD5930E246EF3DF85305693110
:10112000C10082868E7F5D19B0E227CCFB744B1420
:101130008B948B756833C50892878C9AB6CF1CBA8E
:10114000D70D98B2E62FDC1B9589716023C40A96EF
:101150008F9CBAF66E3FFC5B15A8D226AFBDF87225
:10116000662FDC1BB4CB148B94AAB7CDF951018048
:1011700082866F3DD930E227CCFB744B14AAB7CDE1
:10118000F97043046B35C9F16023A5C8F345089293
:10119000876D5832E62FBDF872664E1EBEFE7E7E0B
:1011A0007E5F1D9991A0A3C40A774D1893A4ABD478
:1011B0000B754910A2C6EF3DF85324ABB5E833E4F4
:1011C0004A16AEDE1FBCDB15A8B3C5087345E9316E
:1011D000C1E121A1A1A1C002866F5C3AD70D98930D
:1011E000A4CA16AEDE1F9D99B0E246EF3DF87247E5
:1011F0000C9AB6CFFD5911A0A3A5C8F34508928754
:101200006D39F043048A96AEDE3EDF1D9991A0C28F
:10121000066F3DF872470C9A978D989385887345B1
:10122000E931E023A5A9D003848A96AEDE1FBCDB9A
:1012300015A8D226CEFF5D1991818082672DD81323
:10124000A4ABD40B94AAB7CDF95120A3A5C8F345FC
:10125000E95022C6EF5C3AD70D9893858873644AAB
:10126000F74DF95120A3C40A96AEDE3EFE7E7E7E87
:101270005F3CFA764FFD7872662FBDD930C3E548E2
:1012800012878C7B5528D2078C9A97ACDA178D7908
:101290005120A3C4EB540B948B94AAD62EBFFC5BB5
:1012A00015A8D226AFDC1BB4EA37EC3BF46A37CD85
:1012B0001893856931C1E140E325C812878C9AB63D
:1012C000CFFD5911A0C2068E7F5D38F2470C7B74AA
:1012D0006A37EC5A36EE3FFC7A764F1C9B95897143
:1012E00041006344EB542AD60F9CBAD70D989385DE
:1012F0006931C10082868E9EBEDF3CFA572CDA36F9
:10130000EE3FFC5B158971410082868E7F5D38F26D
:1013100047ED5813A4CAF74DF95101806344EB54CB
:101320002AD62EBFDD1991A0A3A5A9B1E042068E51
:101330007F5D1991A0A3C40A968F7D7872470C7BBC
:10134000746A562EDE1FBCFA570D7951016121A136
:10135000C0E325A9B1C1E14002674C1A978D98936B
:10136000A4ABD42AD60F9C9BB4CB14AAB7CDF95109
:1013700020A3C4EB35C9F16042068E7F7C7A766E7D
:101380003FFC7A766E5E3EFE7E5F3CDB15897141E6
:10139000E121C0E344EB542AB7CDF9706227ADD800
:1013A00032C70C7B744B14AAB7EC3BD528D2076D1F
:1013B00039D120C2E74C1A978D98B2C70C5928F33F
:1013C0009B0001010101010101010102020202026F
:1013D00002020202030303030303030304040404DD
:1013E00004040405050505050606060606070707A5
:1013F000070708080808090909090A0A0A0B0B0B5C
:101400000C0C0C0D0D0D0E0E0E0F0F0F10101111F8
:10141000111212131314141515161617171818197C
:10142000191A1A1B1B1C1D1D1E1E1F2020212222E3
:10143000232424252626272829292A2B2C2D2D2E26
:101440002F30313232333435363738393A3B3C3D40
:101450003E3F404142434445464748494A4C4D4E31
:101460004F50515354555658595A5B5D5E5F6162F7
:1014700064656668696B6C6D6F7072737577787A86
:101480007B7D7E8082838587888A8C8E8F919395E1
:1014900096989A9C9EA0A2A3A5A7A9ABADAFB1B305
:1014A000B5B7BABCBEC0C2C4C6C9CBCDCFD1D4D6E5
:1014B000D8DBDDDFE2E4E7E9EBEEF0F3F5F8FAFD87
:1014C000FF09025400030100A0FA0904000001030F
:1014D00001010009211101000122440007058103D7
:1014E00008000109040100010301020009211101A2
:1014F00000012247000705820310000109040200D1
:10150000010300000009211101000122320007053A
:1015100083032000011201000200000008F8A83235
:10152000180002010200013A0343006800610072E2
:10153000007900620064006900730020004E0061C1
:10154000006E006F0020002800330078003500296D
:1015500000200045006C006900740065002D004308
:1015600000000024034200610073007400610072F7
:1015700000640020004B006500790062006F00618C
:1015800000720064007300000004030904001124C9
:101590001FBECFEFDAE0DEBFCDBF04B603FE18C03A
:1015A00080919D0490919E04A0919F04B091A0040D
:1015B0008730904BA740B04B59F410929D04109285
:1015C0009E0410929F041092A004E0E0F8E30995B5
:1015D00012E0A0E0B1E0E8E1F2E602C005900D9271
:1015E000A037B107D9F724E0A0E7B2E001C01D920F
:1015F000AD39B207E1F70E94832A0C94C3300C94F2
:101600000000482F2091960490914D0459E0291331
:1016100002C080E0089530E0529FF001539FF00D2A
:101620001124E25BFB4F8181681306C0808148135F
:1016300003C085818111EECF2F5F3F4F2770E7CF29
:10164000E8EDF0E080818E7F80831092E2001092BE
:10165000DA001092E100A0EEB0E08C9181608C93F2
:1016600080818F77808319BCA7EDB0E08C918E7F4D
:101670008C9380818F7E8083109232040895209114
:10168000E4003091E50095E6A9012091EC00822F5D
:10169000817020FF06C08091E80080FF06C080E0D6
:1016A00008952091E80022FD1AC080913F0488230C
:1016B00089F0853089F08091EB0085FD0FC0209185
:1016C000E4003091E50042175307F9F29150E1F63A
:1016D00084E0089582E0089583E0089581E008950C
:1016E0008091410487FF13C08091E80082FF06C00B
:1016F0008091E8008B778093E80004C080913F04DC
:101700008111F2CF089580913F048823D9F380910D
:10171000E80080FFF8CF8091E8008E77ECCF982F1B
:101720009093E900242F762F50E0891731F07091C3
:10173000EC002091ED005091F00021FD07C09F5F6B
:10174000973071F78093E90081E008953091EB00C4
:101750003E7F3093EB003091ED003D7F3093ED0004
:101760003091EB0031603093EB007093EC002093EC
:10177000ED005093F0002091EE0027FDE0CF80E0D7
:101780000895B0E0A0E0E7ECFBE00C940E30C8ED6B
:10179000D0E088818F7E8883E7EDF0E080818160F2
:1017A000808384E082BF81E08093320488818E7FD1
:1017B000888302EE10E0F80110821092DA0081EEC8
:1017C000C82ED12CF601108288818F77888388817A
:1017D0008068888388818F7D888319BC10923F043C
:1017E0001092400410923E0410923D0490EEE92EB7
:1017F000F12CF70180818B7F8083888181608883D1
:1018000042E060E080E00E948F0BF60180818E7FD5
:101810008083F801808181608083808188608083FB
:10182000F70180818E7F8083888180618883CDB736
:10183000DEB7E8E00C942A30FC01809147049091D7
:10184000480486179707A0F06115710529F4909157
:10185000E8009E779093E80090E06115710551F4DF
:10186000911108C08091E80082FF34C080E00895A3
:10187000BC01F2CF80913F048823C1F18530C1F1D2
:101880008091E80083FD30C08091E80082FDEACFBE
:101890008091E80080FFE1CF8091F3002091F20079
:1018A000382F6115710519F02830310558F091E095
:1018B0002830310509F090E02091E8002E77209340
:1018C000E800CBCF81918093F100615071092F5FC7
:1018D0003F4FE7CF80913F04882341F0853041F0AE
:1018E0008091E80083FFBECF81E0089582E00895F3
:1018F00083E008950895809134040895CF92DF9293
:10190000EF92FF922FB7F894C0902E04D0902F043E
:10191000E0903004F09031042FBFA7019601261B00
:10192000370B480B590BCA01B901FF90EF90DF90BC
:10193000CF9008959C014FB7F89480912E04909118
:101940002F04A0913004B09131044FBF821B930B40
:1019500008952FB7F89460912E0470912F04809110
:101960003004909131042FBF08959C01FC01329600
:101970009FEF80E04191461751F09F3F19F44111CC
:1019800001C0982F8F5F8630A9F79F3F09F4089513
:10199000290F311D97FD3A95F90162830895A3E05F
:1019A000B0E0E5EDFCE00C94143020912B04309174
:1019B0002C0428173907A1F090932C0480932B0452
:1019C000E0912904F0912A04309751F024E0298312
:1019D0009B838A830084F185E02DCE0101960995D1
:1019E0002396E2E00C943030A3E0B0E0EAEFFCE0B4
:1019F0000C941430209127043091280428173907BB
:101A0000A1F09093280480932704E0912904F09199
:101A10002A04309751F023E029839B838A83008432
:101A2000F185E02DCE01019609952396E2E00C9414
:101A3000303080914B04882359F0E0912904F091D3
:101A40002A04309729F00190F081E02D099508953E
:101A500080E00895FC01680F791F8FEF91E32191D9
:101A6000822728E030E087FF09C0880F89272150AE
:101A70003109C9F7E617F70791F70895880FF7CFEF
:101A8000DC016091230480912404962F891301C006
:101A90000895292F30E0F901EE0FFF1FE55EFB4F9F
:101AA000408151814A175B07A1F487E08A9FA0011A
:101AB0008B9F500D11244F5A5E4F81E0FA018483B1
:101AC0009613E6CF2F5F3F4F2370332720932304D5
:101AD00008952F5F3F4F922F9370D8CF1092AF038E
:101AE0001092AE03E1E5F1E082E891E02581211159
:101AF00002C01482168237968E179F07B9F7089591
:101B000030914C04311123C0823191051CF1429770
:101B1000FC01EE0FFF1FDF01A80FB91FAE5BBC4F2A
:101B200011963C911197361307C03C91341304C0B1
:101B300012963C91321771F031E030934103E80F77
:101B4000F91FEE5BFC4F61834083228303C0823127
:101B50009105F4F20895539A109241030895880F65
:101B6000880F880F98E0980F953208F094E2209142
:101B70004C04222321F0933128F092E10895823120
:101B800008F482E1089580934C01809138038370BA
:101B900080934B010E94A41383E080935001089529
:101BA000FF920F931F93CF93DF93182F062FF42EDE
:101BB000D0E0C0E02F2D402F612FCE010E94800D7C
:101BC0002196C432D105B1F7CDB7DEB7E5E00C946C
:101BD0002D30AF92BF92CF92DF92FF920F931F935F
:101BE000CF93DF93362F472FE82FF0E0EF53FC4ED3
:101BF00071110FC0E4918E2F2E2F6E2F722FDF9157
:101C0000CF911F910F91FF90DF90CF90BF90AF9039
:101C10000895C72FD0E02491F22E022F10E056E055
:101C2000659FC0011124EFEFF0E0BF010E943B303F
:101C3000832F90E0880F991F35E5369FD001379F9D
:101C4000B00D11248A1B9B0B982F990F980F6F01D1
:101C5000CC1ADD0AC09ED001C19EB00DD09EB00D41
:101C600011248B2F499FA0011124452F55276F0167
:101C7000C41AD50AC09EA001C19E500DD09E500D21
:101C800011245F01A91AB108AC9E6001AD9ED00C71
:101C9000BC9ED00C1124CD2CDD24EC19FD09E09F55
:101CA000E001E19FD00DF09FD00D1124ED2F6230A7
:101CB0007105A1F050F46115710509F49ECF6130F2
:101CC000710581F0EB2F852F98CF6430710569F095
:101CD00080F06630710509F490CFF4CFE22F2B2FFE
:101CE0008D2F8BCFE22F252F88CFEB2F822F2D2FFB
:101CF00084CF2B2F8F2DE52F80CFB0E0A0E0E3E83D
:101D0000FEE00C940F30182F80914C01811324C0F9
:101D100090913803937020914B0130E081E092174D
:101D2000130609F480E0817080934F0180913D0398
:101D300090914E01981739F080934E0140E060E099
:101D400080E00E94D00D113099F0112339F012304B
:101D500009F452C080E028C081E0E5CF80914F01B6
:101D6000882311F140E060E080E00E94D00DF2CFC6
:101D700080914D010E94AF0DC82F092F609139034A
:101D800070913A0380913B030E94E90DF62EE72EF5
:101D9000D82ED0E0C01700F180914C04882309F4BC
:101DA00067C081E00231B0F690914D019F5F909342
:101DB0004D0181110CC082E08093500180914F0150
:101DC000811105C0111103C083E080935001CDB78C
:101DD000DEB7E7E00C942B30FE01E45CFD4F808120
:101DE00090914E01892331F02D2D4F2D6E2DCE0176
:101DF0000E94800D2196CECF80914D010E94AF0DA3
:101E0000092F20913C032695269531E0230F08F4F5
:101E10002FEF609134037091350350E040E0629FF2
:101E2000412D729F400D511D1124F42EC82FD0E07A
:101E3000C01708F0B1CFFE01E45CFD4F80819091A6
:101E40004E01892399F070913A03FE01EE0FFF1FB6
:101E5000E453FE4F60A56F1980913B030E94E90D8A
:101E6000462F282F672FCE010E94800D2196E0CFAC
:101E700081E0043208F498CF6DCF20914C042111F9
:101E800003C00E944E14089590932D0380932C0359
:101E9000089580919A0486FF05C084E690E00E9430
:101EA0003D0F089587FF09C08295837024E6829FC5
:101EB000C001112488539F4FF2CF8F7028EC829F6E
:101EC000C001112480579E4FEACF80E00895F89416
:101ED000E82FE295EF70F0E031A1282F2F7081E01C
:101EE00090E001C0880F2A95EAF7982F90959323E8
:101EF00091A392A1892B82A3789408950F931F93A5
:101F000080914B04882329F00E94A90C1F910F9106
:101F100008950E94A90C0091EE021091EF02209109
:101F2000F0023091F102600F711F821F931FEECFFC
:101F30009091000392FF10C041E0282F24712430BB
:101F400009F040E031E0282F2871283009F030E016
:101F5000431711F02CE0822793FF10C041E0282F97
:101F60002471243109F040E031E0282F2871283114
:101F700009F030E0431711F02CE082273091010383
:101F800030FF10C051E0282F2171213009F050E0BE
:101F900041E0282F2871283009F040E0541711F053
:101FA00029E0822731FF10C041E0282F2171213123
:101FB00009F040E031E0282F2871283109F030E0A5
:101FC000431711F029E0822794FD877E0895823817
:101FD0009105B9F1B0F48133910509F47DC048F45D
:101FE0008932910509F46DC08A32910509F47BC0EC
:101FF00008958533910509F45FC08933910509F18E
:102000000895833E9105D9F138F4803E910529F178
:10201000823E910579F10895863E9105D9F1873E7A
:10202000910509F43EC0843E910541F520910103DC
:1020300021FF24C08091000384FD19C087EE90E049
:10204000089520910003237009F05AC020910103E4
:1020500023FF14C089E290E008952091000320FD41
:1020600038C03091010330FF09C024FF43C090E025
:1020700080E008952091000322FDF7CF089520917C
:10208000000322FD3AC03091010330FD39C024FF26
:10209000F5CFEDCF2091000323FFF0CF24FDE7CF54
:1020A000CDCF2091000323FD2EC03091010331FFDD
:1020B000EECF84EE90E008952091000325FFDECF5F
:1020C000C9CF2091000325FD21C02091010323FFEA
:1020D000D5CF89E390E0D2CF2091000326FFCECF69
:1020E0008AE290E008952091000326FFC7CF81E3A4
:1020F00090E0089583EE90E0089582EE90E00895D8
:1021000080EE90E0089586EE90E0089585E390E0FB
:102110000895972F7830B8F46530A8F48730B0F47C
:1021200070E025E0929F600D711D1124FB0198E283
:10213000899FE00DF11D1124EE0FFF1FED56FE4F9C
:1021400085919491089580E090E0089581E0FCCF1E
:102150001F93CF93DF930E94E70FEC01C11580E539
:10216000D807F0F5C11580E4D80708F0AAC0C03E32
:10217000D10520F5CD3CD10508F090C0C83AD10575
:1021800078F4C53AD10508F081C0C130D10519F104
:10219000209709F1C430D105F0F4D0E0C0E01BC0B5
:1021A000C33CD105D0F7C85AD0E0CC0FDD1FC557CE
:1021B000DE4F0990D881C02DD4640DC0C11580E2D6
:1021C000D80708F0C9C0C11581E0D80708F068C079
:1021D000C83ED10510F7CE01DF91CF911F91089530
:1021E000C03682E5D80718F5C03482E5D80708F074
:1021F00079C0C03282E5D80708F06DC0C11582E50C
:10220000D80708F48FC02C2F2695269580E2289FAA
:10221000900111248C2F8370C1E0D0E002C0CC0F5C
:10222000DD1F8A95E2F7C22BD32BDD68D4CFC03CEB
:1022300082E5D807F8F4C03A82E5D80708F067C00D
:10224000C03882E5D80708F0A8CF2C2F2695269510
:10225000277080E2289F900111248C2F8370C1E0A9
:10226000D0E002C0CC0FDD1F8A95E2F7C22BD32B42
:10227000DA68B1CFC03E82E5D80708F08ECFDC2FF8
:10228000CC27CC27DF71C06FD06AA5CFC55AD0E06C
:10229000C857DE4FC881D0E0D0649DCFD0659BCFBA
:1022A0008D2F0E94980F182FCE0199270E94E70FBB
:1022B000C12FD0E0DC2FCC27CC27DF71C82BD92B46
:1022C0008ACFCE0199270E94E70FCC27DF70C82B59
:1022D000D92BD06A80CFCF71D0E0DC2FCC27C16F53
:1022E000D06A79CF2C2F26952695277080E2289FDB
:1022F000900111248C2F8370C1E0D0E002C0CC0F7C
:10230000DD1F8A95E2F7C22BD32BDC6864CF8C2FBC
:102310008F710E94980FC82FD0E0DC2FCC27CC27DC
:10232000DF7159CF8C2F8F710E94980F55E0D69591
:10233000C7955A95E1F7CF70D0E0DC2FCC27282F36
:1023400030E084FF05C044E0220F331F4A95E1F7D7
:10235000C22BD32BD0693FCF8D2F8F710E94980F46
:10236000182FCE0199270E94E70FC12FD0E0DC2F54
:10237000CC27CC27DF71C82BD92BD0622CCF8091F2
:10238000960490914D04981301C008958F5F877053
:10239000FACFB0E0A0E0EFECF1E10C940D307C015D
:1023A0000091FE021091FF028091FC029091FD02CB
:1023B000082B192BCFE0D0E0CC24C394D12CBC2E19
:1023C000C6010C2E02C0880F991F0A94E2F78023E1
:1023D0009123892B49F4219790F7B12C8B2DCDB700
:1023E000DEB7E9E00C942930B7018C2F0E948910E8
:1023F0000E94A810019779F3F1CFCF93DF93EC01FE
:102400000E94C911BE010E9489100E94A810DF918C
:10241000CF910895983078F5853068F5E82FF0E091
:1024200085E0989FE00DF11D11249E2F977083E0A9
:10243000F695E7958A95E1F7EE0FFF1FEE0FFF1F68
:10244000E558FD4F50E040E080E0219130E0092E5A
:1024500002C0369527950A94E2F721703327042E9F
:1024600001C0220F0A94EAF7822B4F5F5F4F44307E
:10247000510559F7089580E00895983098F5853012
:1024800088F5E82FF0E085E0989FE00DF11D11241C
:102490008E2F877041E001C0440F8A95EAF783E0F0
:1024A000F695E7958A95E1F7EE0FFF1FEE0FFF1FF8
:1024B000E558FD4F30E020E070E05191DF011197C9
:1024C000CB01022E02C0969587950A94E2F781709F
:1024D00081958527842385278C932F5F3F4F243058
:1024E000310559F70895CF93DF93EC0180E02097F1
:1024F00039F0CE0124E0969587952A95E1F7817011
:1025000090919A0480FB97F990939A040E94490F46
:10251000D093FF02C093FE02DF91CF91089521E096
:1025200030E002C0220F331F8A95E2F720953095E4
:102530008091FE029091FF02822393230E947312E6
:10254000089521E030E002C0220F331F8A95E2F7A0
:102550008091FE029091FF02822B932B0E947312B6
:1025600008959093FD028093FC020895FC018481FC
:102570008823F9F087819085009791F00E94A81038
:1025800092959F709630B9F080F4925F9F70923070
:1025900080F4803F19F058F4883E58F481E00895A3
:1025A000808191810E94FD11EBCF9A5FEFCF843F34
:1025B000A9F380E00895883E88F3813FD1F7EECFFC
:1025C000A6E0B0E0E6EEF2E10C9413309C01FC01D1
:1025D000878190850097E1F486E0DE0111960190F5
:1025E0000D928A95E1F7F901258189819A8122234B
:1025F00099F0662389F00E94C911182F682F8981EC
:102600009A810E943D1269817A81812F0E948910EE
:102610002696E3E00C942F300E940A12182FF3CF75
:1026200040E060E08FEF0E94D00D0E94A41381E093
:102630000895809198020E94980F982F927281E0DD
:1026400009F480E008950F931F93CF93DF938B01DC
:10265000EA0190913F04943061F58093E9008FEF97
:102660009091E800815095FD06C095ED9A95F1F79F
:1026700000008111F5CF8091E80085FF1AC00E940B
:102680003F0B811111C08091E80085FD06C080914B
:10269000E8008E778093E800F2CFF80181918F01F6
:1026A0008093F100219779F78091E8008E778093ED
:1026B000E800DF91CF911F910F91089543E050E022
:1026C000BC0183E00E942313089545E050E0BC0163
:1026D00082E00E9423130895CF93DF93EC0148E03A
:1026E00050E0BC0181E00E94231388E0FE01A5E3D5
:1026F000B4E001900D928A95E1F7DF91CF910895B2
:1027000081E08093E00080E28093D8001092C900BD
:102710008FE19EE40197F1F700C0000087E090EBA5
:10272000DC0180939D0490939E04A0939F04B0933A
:10273000A00488E19CE00FB6F894A895809360000F
:102740000FBE90936000FFCF80914103882339F141
:102750003BB1377F2BB128604FB7F89482E493E008
:10276000FC015191CF0168E02BB9000000C057FF78
:102770003BB9550F000000C000C000C03BB900C00D
:102780006A9591F7F3E08E3A9F0751F74FBF8FE5B7
:1027900094E00197F1F700C0000010924103089502
:1027A000B0E0A0E0E6EDF3E10C940C307C015B01BD
:1027B0006A018091ED0201E010E08A3010F40AE035
:1027C00010E0C1E0D0E0B501C701F6010995811123
:1027D00004C021960C171D072CF4CDB7DEB7EAE034
:1027E0000C942830CC9F9001CD9F300D300D1124DA
:1027F00090E080E045E34A95F1F7000001968217EA
:102800009307C1F7E0CFCF9328E030E043E060E0EA
:1028100080EF0E94022FC82F811105C00E94DA2F7D
:102820008C2FCF91089585E08A95F1F70000F8CFBD
:10283000A2E0B0E0EEE1F4E10C941130182FF62E96
:102840000E940314082F811106C000E0802F2296F9
:10285000E5E00C942D30103549F080914C04E9E40A
:10286000F4E0882311F0EAE4F4E0108210681983A0
:10287000FA8262E070E0CE0101960E94AA2F892BB5
:1028800021F78AEB8A95F1F700C00E94DA2F83E4E2
:1028900092E00197F1F700C00000D8CF60E08436E5
:1028A000910550F067E784342FE2920728F464E63C
:1028B00070E00E943B3061508FE00E941814089530
:1028C000CF93C82F0E9403148823C9F08C2F0E9435
:1028D0007A2F8FE792E00197F1F700C000000E9485
:1028E000922FC82F95E09A95F1F700000E94DA2FF9
:1028F00085E68A95F1F700008C2FCF910895C0E00E
:10290000FBCFCF938FE00E946014C82F682F8FE019
:102910000E941814CF5F24E6C29FC0011124CF91FA
:102920000895CF92DF92EF92FF92CF930E947E0F95
:1029300060932F037093300380933103909332039D
:1029400020914003C0E0211108C020913803C22F1C
:10295000C37019F0C22FC695C69520915001213041
:10296000D1F0222351F0223009F1233019F1CF9117
:10297000FF90EF90DF90CF90089510924D016093FB
:10298000340370933503809336039093370381E0CB
:1029900080935001ECCF8C2F0E947D0ECC2339F315
:1029A00080914D0181500E94AF0DE1CF8C2F0E948C
:1029B000C30DDDCF80913303882351F048E050E010
:1029C00067E170E088E393E00E947930109233036E
:1029D000C0903403D0903503E0903603F090370375
:1029E00080914B04882369F0C701B6010E947E0CD8
:1029F000603171058105910508F4B9CF109250013D
:102A0000B6CF0E947E0F6C197D098E099F09F0CF09
:102A1000A6E1B0E0EEE0F5E10C9412304A8B5B8B5E
:102A20006C8B7D8B8E8B8E01095F1F4F86E0F801CA
:102A300011928A95E9F780914C048823A1F1809145
:102A40004A0481113DC060E080E50E9418148111A4
:102A50002DC086E0FE013796DE01119601900D92A1
:102A60008A95E1F786E0FE013196DE011796019026
:102A70000D928A95E1F78F8183FF4FC085E0FE01BB
:102A80007296DE011D9601900D928A95E1F72D85D3
:102A90003E854F855889698970E080E090E06696B0
:102AA000E4E00C942E3080914904CBCF80914C040B
:102AB000E9E4F4E0882311F0EAE4F4E081E08083C3
:102AC0000E940314882329F280E50E947A2FFAEBF2
:102AD000FA95F1F700C066E070E0C8010E94C22FCD
:102AE0008F81877049F080914C04E9E4F4E08823F9
:102AF00011F0EAE4F4E010820E94DA2F89859A85C9
:102B00009195819591099A8789878B859C85919567
:102B1000819591099C878B879CCF898187FD03C014
:102B200010922E03ABCF2B813C818D819E814091F1
:102B30002E03411103C041E040932E0320384FEF94
:102B400034078CF02038310514F02FE730E080385E
:102B5000EFEF9E0754F08038910514F08FE790E076
:102B60002B8B8C8B8BCF20E8F2CF80E8F9CF0F93A3
:102B70001F93CF93DF930E94FA2E0E9403148823A1
:102B800009F488C025ED2A95F1F700000E94DA2F9C
:102B900085ED8A95F1F700006AE58AE30E94181432
:102BA000882309F477C09FEFE0E7F2E09150E0401E
:102BB000F040E1F700C0000082E00E94601483E072
:102BC0000E94601484E00E94601485E00E946014FA
:102BD00086E00E9460146DE183E10E94181488234E
:102BE00009F458C08FE39CE90197F1F700C0000099
:102BF00068E183E10E9418140E940314882309F4F9
:102C000049C082EE0E947A2F90E59A95F1F7C3ECC5
:102C1000D3E001EC13E1FE0184910E947A2FF0E5EC
:102C2000FA95F1F721960C171D07A9F78FE193E0AC
:102C30000197F1F700C000008AE20E94601460E092
:102C400080E10E9418140E94DA2FEFE3FCE931972B
:102C5000F1F700C000006FE08FE00E9418148FE9C8
:102C60009FE00197F1F700C0000060E080E10E9462
:102C7000181467EE81E10E94181462E083E60E9456
:102C8000181480E00E9460148FE30E9460148AE2AE
:102C90000E946014DF91CF911F910F910895809150
:102CA00098029091B003892B8093720248E050E023
:102CB00069E972E082E792E00E94AD30892BA9F0C9
:102CC00088E0E2E7F2E0A9E9B2E001900D928A958E
:102CD000E1F7E0912904F0912A04309731F0028065
:102CE000F381E02D82E792E009950895882341F071
:102CF0008095909198028923809398020E944F16A4
:102D00000895882339F090919802982B9093980217
:102D10000E944F160895CF9390912303809114033E
:102D2000981323C080912403882321F090911503E8
:102D300089131BC080912503882321F090911603ED
:102D4000891313C080912703882321F090911803E1
:102D500089130BC090912603992329F081E02091DB
:102D60001703291303C080E001C081E0C82FC170A0
:102D700080FF0CC0E0912904F0912A04309731F0D3
:102D80000680F781E02D83E293E00995909123037B
:102D900085E0E3E2F3E0DF01282F1D922A95E9F7B1
:102DA00090932303A4E1B3E001900D928A95E1F79B
:102DB00081E0C11103C0911101C080E08170CF9109
:102DC0000895A9E1B0E0E7EEF6E10C9414308091AB
:102DD0004B04811105C080E06996E2E00C9430302C
:102DE000609128037091290380912A0390912B030D
:102DF0000E947E0C672B682B692B69F30E94A90C3B
:102E0000609328037093290380932A0390932B03E4
:102E100080914C048111E8C0409123035091240318
:102E20006091250370912603809127030E94081565
:102E300020932303309324034093250350932603C8
:102E40006093270385E0E3E2F3E0DE01169601904C
:102E50000D928A95E1F79091240391959F8385E0E7
:102E6000FE013696DE01509601900D928A95E1F7AB
:102E700085E0FE017096DE01119601900D928A9513
:102E8000E1F785E0FE013196A3E2B3E001900D92F7
:102E90008A95E1F785E0E3E2F3E0DE0155960190E3
:102EA0000D928A95E1F7809124034091250360916A
:102EB00026035091270320914B04222309F46BC071
:102EC00020919A0426FF3FC020911B0330911C03E0
:102ED000290F311D97FD3A9530931C0320931B0356
:102EE0008091190390911A03840F911D47FD9A95C3
:102EF00090931A0380931903F90137FF04C0EE275A
:102F0000FF27E21BF30B37974CF05FEF1216130607
:102F10000CF451E010921C0310921B039C0197FFCC
:102F200004C022273327281B390B273031054CF0EA
:102F30006FEF181619060CF461E010921A03109244
:102F4000190340E080E08E8B4F8B688F598F95E09E
:102F5000FE017596DE011B9601900D929A95E1F7A0
:102F600095E0FE013B96DE01119601900D929A9537
:102F7000E1F795E0FE013196DE01169601900D9283
:102F80009A95E1F795E0FE013696DE01559601909F
:102F90000D929A95E1F78E8B4F8B688F598F85E054
:102FA000FE017596DE01169601900D928A95E1F765
:102FB00085E0FE013696DE011B9601900D928A9502
:102FC000E1F785E0FE013B96A3E2B3E001900D92AC
:102FD0008A95E1F70E948B16811110C080911D0324
:102FE000817010921D03F8CE85E0EEE1F3E0A3E2DC
:102FF000B3E001900D928A95E1F724CF81E090E053
:10300000EFCF2FE2280F283078F481E090E001C064
:10301000880F2A95EAF720912303662331F0822B4B
:10302000809323030E948B16089580958223F8CF06
:10303000882309F442C09CEF980F913A80F4E4E7AA
:10304000F2E02AE732E09191891303C0DF01119782
:103050001C922E173F07B9F70E944F16089590E271
:10306000980F983088F4877021E030E0A90102C001
:10307000440F551F8A95E2F7CA01809590919802F6
:10308000892380939802E8CF9BE5980F933028F42A
:1030900090E080E00E94F40C089598E5980F9B3131
:1030A00028F490E080E00E94CF0C089593E3980FFD
:1030B000933118F460E00E9401180895CF93C82F4F
:1030C0008823B1F08CEF8C0F813A00F5E4E7F2E051
:1030D0008AE792E0DF012D91C21761F08A179B0702
:1030E000D1F76C2F82E792E00E94B50C0E944F1638
:1030F000CF9108952191C21303C0DF0111971C9253
:103100008E179F07B9F70E944F16EBCF80E28C0F06
:10311000883068F4C77021E030E001C0220FCA9502
:10312000EAF780919802822B80939802DFCFEBE53B
:10313000EC0FE33040F4F0E0E857FE4F808190E080
:103140000E94F40CD5CFE8E5EC0FEB3150F4F0E041
:10315000EE0FFF1FE557FE4F808191810E94CF0C3B
:10316000C7CF83E38C0F833118F661E08C2F0E9468
:103170000118BECF10929802E4E7F2E086E0DF018A
:103180001D928A95E9F790E080E00E94F40C90E0AF
:1031900080E00E94CF0C1092B0030E944F16089559
:1031A000AAE2B0E0E6EDF8E10C94133081E494E09B
:1031B0002091F100DC012D93CD01B4E089349B070F
:1031C000B9F780914204833009F472C0B8F48130B9
:1031D00009F449C0823009F4B3C08091E80083FF4C
:1031E00086C280914104909142049A3008F07FC2D7
:1031F000E92FF0E0EB53FF4C0C944F308A3009F488
:103200008EC08B3009F471C0893039F78091410448
:10321000813219F78091450490914604009711F08E
:103220000297D9F68091E800877F8093E80080912B
:10323000E80082FF38C09091F3008091F20002977D
:1032400031F48091F100813011F0863021F48091C9
:10325000F100809334048091E8008B778093E8003C
:103260000E94700BBACF80914104813A09F0B5CF2A
:103270008091E800877F8093E800809145049091D9
:103280004604892B61F468E085E394E070E00E94D5
:103290001C0C8091E8008B778093E8009ECF60E063
:1032A00090E080E0F3CF80913F048111C0CF95CFB3
:1032B00080914104813A09F090CF8091450490912A
:1032C0004604892B09F089CF8091E800877F80939D
:1032D000E8008091E80080FFFCCF8091830180931B
:1032E000F1008091E8008E77B9CF8091410481325E
:1032F00009F073CF8091450490914604892B09F021
:103300006CCF8091E800877F8093E8000E94700B6B
:1033100080914304809383010E94BA185ECF80910C
:103320004104813209F059CF8091E800877F809372
:10333000E8000E94700B80914404809333044DCFC9
:1033400080914104813A09F048CF8091E800877F5D
:103350008093E8008091E80080FFFCCF80913304E7
:10336000BECF803899F0823809F0C1C18091450400
:103370008F70873008F0BBC18093E9008091EB002B
:1033800085FB882780F91092E90006C080913D04F2
:1033900090913E04911182609091E800977F909304
:1033A000E8008093F1001092F1008091E8008E77A0
:1033B0009AC1882309F488C1823009F098C18091AC
:1033C000430481118BC1809145048F702FEF280F2A
:1033D000263008F08CC18093E9002091EB0020FF9B
:1033E0007DC1933031F48091EB0080628093EB00DB
:1033F00075C19091EB0090619093EB0021E030E07B
:1034000001C0220F8A95EAF72093EA001092EA00A1
:103410008091EB008860EACF811169C1109143046B
:103420001F778091E3008078812B8093E300809167
:10343000E800877F8093E8000E94700B8091E8008D
:1034400080FFFCCF8091E30080688093E30082E0FE
:10345000111183E080933F044AC18058823008F004
:1034600046C120914304309144042C3DE3E03E07E3
:10347000A1F583E08A838AE289834FB7F894DE015D
:10348000139620E03EE051E2E32FF0E05093570026
:10349000E49120FF03C0E295EF703F5FEF708E2F45
:1034A00090E0EA30C0F0C7968D939D932F5F243152
:1034B00059F74FBF8091E800877F8093E8006AE268
:1034C00070E0CE0101960E941C0C8091E8008B7781
:1034D0008093E8000CC1C096E7CF8091450490919D
:1034E0004604432F55274330510509F44AC078F567
:1034F0004130510509F47AC084E590E0E1ECF4E153
:103500004230510509F0F3C02091E800277F209355
:10351000E80020914704309148048217930708F48B
:103520009C0140E02115310509F065C0411163C0DF
:103530008091E80082FDC9CF80913F04882329F261
:10354000853019F28091E80083FFF2CFBECF41327F
:10355000510509F43CC04232510509F0C8C083301E
:10356000910508F0C4C0FC01EE0FFF1FED59FD4F9F
:103570000190F081E02D805A9D4FDC018C9190E00C
:103580001AC0332721303105D1F02115310561F002
:103590002230310509F0ABC0E7E2F5E1E4918E2F6E
:1035A00090E0E7E2F5E107C0E9E8F5E1E4918E2F6C
:1035B00090E0E9E8F5E1009709F499C0A5CFE3E6CA
:1035C000F5E1E4918E2F90E0E3E6F5E1F4CF83306E
:1035D000910508F08CC0880F991FFC01E759FD4F39
:1035E0000190F081E02D89E090E08ECF82E190E0C3
:1035F000E5E1F5E189CF80913F04882309F465CFA7
:10360000853009F462CF8091E80083FD5ECF809120
:10361000E80082FD8DCF8091E80080FF83CF9091FC
:10362000F3008091F2002115310519F088309105E1
:1036300050F041E0089709F040E08091E8008E7773
:103640008093E8006FCF44914093F1003196215070
:1036500031090196E8CF803809F049C08091E8002F
:10366000877F8093E800809140048093F1009DCE95
:1036700081113DC0109143041230C8F58091E800DB
:10368000877F8093E800109340040E94700B112301
:1036900011F084E005C08091E30087FDFACF81E05E
:1036A00080933F0442E061EC81E00E948F0B42E195
:1036B00061EC82E00E948F0B42E261EC83E00E94A9
:1036C0008F0B80913F0413C080914304813079F4C3
:1036D00081E0933009F080E080933E041092E9008D
:1036E0008091E800877F8093E8000E94700B8091B2
:1036F000E80083FF0AC08091E800877F8093E8009C
:103700008091EB0080628093EB00AA96E3E00C943A
:103710002F300E94BA1880E00E9410132FEF84E32C
:103720009CE0215080409040E1F700C0000088E11B
:103730009CE00FB6F894A895809360000FBE90931C
:103740006000FFCF90919A049F70811115C08FEF98
:10375000980F9F7080919A04807F982B90939A0481
:103760000E94490F40919A0450E070E060E08FE0C1
:1037700090E00E949B30089581E0EACF90919A04F6
:1037800092959370811117C08FEF980F9370929557
:10379000907F80919A048F7C982B90939A040E943A
:1037A000490F40919A0450E070E060E08FE090E0B3
:1037B0000E949B30089581E0E8CFA4E0B0E0E3EE02
:1037C000FBE10C9413306091DB027091DC0280917C
:1037D000DD029091DE020E947E0C11E064367105DC
:1037E0008105910570F10E947E0F6E5F7F4F8F4FB4
:1037F0009F4F69837A838B839C8380911901909179
:103800001A0183549D4F4091180150E045305105F5
:1038100010F044E050E0BE016F5F7F4F0E94BA306D
:1038200083E090E00E94842E182F882351F00E949C
:10383000A90C6093DB027093DC028093DD0290930D
:10384000DE02812F2496E3E00C942F30B0E0A0E05C
:10385000ECE2FCE10C940E30C82F7B01D42F6901FF
:10386000FB0160817181828193810E947E0C6436AC
:1038700071058105910510F4DD2359F10C2E000C22
:10388000DD0BFE0183E0EE0FFF1F8A95E1F7E050AC
:10389000FF4F8181928183549D4F408150E00417F6
:1038A000150708F4A801B6010E94BA30CE010E94A3
:1038B000842EC82F882339F00E94A90CF701608359
:1038C0007183828393838C2FCDB7DEB7E8E00C94AD
:1038D0002A30C1E0F8CFA9E0B0E0E1E7FCE10C94C8
:1038E000123088E0E8E3F3E0DE01119601900D92DA
:1038F0008A95E1F780914003898749E050E06AECBE
:1039000072E0CE0101960E94AD3041E0892B09F4AE
:1039100040E009E010E09E012F5F3F4F6FED72E045
:1039200084E00E94261C2996E4E00C942E300F932C
:103930001F93CF93DF93EC0144E050E062EC72E020
:103940000E94AD3041E0892B09F440E004E010E032
:103950009E0169EB72E082E00E94261CDF91CF910C
:103960001F910F9108954F925F927F928F929F9235
:10397000AF92BF92CF92DF92EF92FF920F931F937D
:10398000CF93DF930F92CDB7DEB7C62E4A01590110
:10399000482E880F5508C2010E94842E782E882355
:1039A00009F473C0C20133E0880F991F3A95E1F71B
:1039B000FC01E050FF4F438150E04115510511F0EB
:1039C00041E050E080509F4FFC0164817581635459
:1039D0007D4FCE0101960E94BA30F4016081718161
:1039E000828193810E947E0C643671058105910568
:1039F00040F4B701C8010E942A0D9981891709F482
:103A000044C00C2C000CDD08C6010E94842E782EC8
:103A1000811113C0712C872D0F90DF91CF911F91D1
:103A20000F91FF90EF90DF90CF90BF90AF909F905D
:103A30008F907F905F904F900895C60123E0880F8C
:103A4000991F2A95E1F7FC01E050FF4F438150E0B8
:103A5000E416F50608F4A70180509F4FFC0164812D
:103A6000758163547D4FC5010E94BA30B701C8010A
:103A70000E942A0D99818913CDCF0E94A90CF401CF
:103A80006083718382839383C6CFA701B801C50188
:103A90000E94BA30C0CFAAE0B0E0E1E5FDE10C94AD
:103AA000103080914C04882309F449C085E0E82E49
:103AB000F12C04ED12E09E012A5F3F4F49EE52E0E7
:103AC00066E085E00E94B31C882391F095E0FE013A
:103AD0003696DE01119601900D929A95E1F795E0E8
:103AE000FE013196AEE1B3E001900D929A95E1F7B7
:103AF000E0902C03F0902D03E114F104E1F0F0923A
:103B0000DA02E092D90241E08091E7029091E80266
:103B10008E159F0509F440E002E010E029ED32E047
:103B200063EE72E087E00E94261C882321F0F09269
:103B3000E802E092E7022A96E6E00C942C3081E05D
:103B4000FACFA4E0B0E0E7EAFDE10C940E306B019F
:103B500084E0E82EF12C0EEB12E09E012F5F3F4F28
:103B600045EB52E061E080E00E94B31C882361F0E5
:103B700049815A816B817C814093B1025093B2029A
:103B80006093B3027093B4024091B1025091B202BB
:103B90006091B3027091B402F60140835183628355
:103BA00073832496E8E00C942A301F920F920FB68C
:103BB0000F9211242F933F934F935F936F937F93B3
:103BC0008F939F93AF93BF93CF93DF93EF93FF9325
:103BD000D091E900DF708091EC00C82FC17080FDAA
:103BE000C0E81092E9008091F000877F8093F00098
:103BF00078940E94D0181092E9008091F0008860BB
:103C00008093F000CD2BCF70C093E900FF91EF912E
:103C1000DF91CF91BF91AF919F918F917F916F91E4
:103C20005F914F913F912F910F900FBE0F901F907A
:103C300018951F920F920FB60F9211242F933F9356
:103C40004F935F936F937F938F939F93AF93BF93A4
:103C5000EF93FF938091E10082FF09C08091E20021
:103C600082FF05C08091E1008B7F8093E10080910D
:103C7000DA0080FF24C08091D80080FF20C08091AE
:103C8000DA008E7F8093DA008091D90080FF9DC09A
:103C900080E189BD82E189BD09B400FEFDCF81E0EC
:103CA00080933F0480913204811109C00E94200B4F
:103CB0000E94C10B8091E20084608093E2008091B9
:103CC000E10080FF17C08091E20080FF13C0809167
:103CD000E2008E7F8093E2008091E2008061809319
:103CE000E2008091D80080628093D80019BC85E002
:103CF00080933F048091E10084FF2BC08091E2001B
:103D000084FF27C080E189BD82E189BD89B5982FF4
:103D1000917080FFFBCF8091D8008F7D8093D80079
:103D20008091E1008F7E8093E1008091E2008F7EA0
:103D30008093E2008091E20081608093E2008091B4
:103D40004004882309F447C084E080933F048091B5
:103D50003F048091E10083FF27C08091E20083FF50
:103D600023C08091E100877F8093E10082E080930F
:103D70003F04109240048091E1008E7F8093E10027
:103D80008091E2008E7F8093E2008091E20080616A
:103D90008093E20042E060E080E00E948F0B80911F
:103DA000F00088608093F000FF91EF91BF91AF9198
:103DB0009F918F917F916F915F914F913F912F9143
:103DC0000F900FBE0F901F90189519BC10923F04D2
:103DD0001092320474CF8091E30087FD93E09093BA
:103DE0003F04B5CF78941F921FB61F9211248F9372
:103DF0009F93AF93BF9380912E0490912F04A09135
:103E00003004B09131040196A11DB11D80932E04A0
:103E100090932F04A0933004B0933104BF91AF91DD
:103E20009F918F911F901FBE1F9018952FB7F894E8
:103E300080912E0490912F04A0913004B091310410
:103E40002FBF08950F931F93CF93DF93C62FD42FC7
:103E5000022FFC0185818823A9F0609399040E94B8
:103E6000161F9093980480939704C77081E001C057
:103E7000880FCA95EAF70E948116DF91CF911F91B2
:103E80000F91089580919904681335C0809197042B
:103E9000909198040E949A0C883C910560F510E27C
:103EA0001D0FCD17B9F080E28C0F883040F4C77039
:103EB00081E001C0880FCA95EAF70E947616183093
:103EC00048F481E09D2F977001C0880F9A95EAF71A
:103ED0000E948116802F0E945E18802F0E94181861
:103EE000183058F6D77081E001C0880FDA95EAF7EC
:103EF0000E947616C2CFC77081E001C0880FCA95B4
:103F0000EAF7F6CFEF92FF920F931F93CF93DF93D1
:103F10008C01DC0114968C91882309F467C061E060
:103F2000C8010E94E012EC017C01BEE7FB1AE8E048
:103F3000EE16F10480F4F701E153FF4CD801159619
:103F40008C910C944F30882331F00E94191391E02A
:103F500089270E94A21BB0E4EB16F10408F462C0AA
:103F6000FE01E851FC47E730F10508F05BC0E9527B
:103F7000FF4C0C944F30882371F30E941913E9CF42
:103F8000882349F30E94191391E089270E94BE1BE0
:103F9000E2CF882301F30E941913F8CF90919A047D
:103FA00080FB97F990939A040E94490FD4CF8823FD
:103FB00091F290919A04892F97FB87F9805880930A
:103FC0009A04F2CF90919A0480FB96F9EBCF882364
:103FD00011F290919A04892F8F7B96FF8064EFCF26
:103FE00026E241EE61EEC8010E94221FCDB7DEB786
:103FF000E6E00C942C3027E245EE65EEF4CF26E2A5
:1040000041EE60EEF0CF27E245EE64EEECCF26E223
:1040100041EE62EEE8CF27E245EE66EEE4CF28E21D
:1040200041E0EBCFF8019581992309F495C21092F4
:1040300099049E0130572332310508F077C284E09D
:1040400090E00E9473309093010380930003FE017F
:10405000E150F047E232F10520F4E252FF4C0C94BB
:104060004F308091000381608093000395C0809160
:1040700001038860809301038FC0809100038260F8
:10408000F3CF809100038460EFCF809100038860BC
:10409000EBCF809101038160EDCF809101038260BD
:1040A000E9CF809100038061DFCF809100038062BF
:1040B000DBCF809100038064D7CF0E94BA18809133
:1040C00000038068D1CF809100038C60CDCF8091B8
:1040D00001038360CFCF809100038E7FC5CF809195
:1040E0000103877FC7CF809100038D7FBDCF809173
:1040F00000038B7FB9CF80910003877FB5CF80917C
:1041000001038E7FB7CF809101038D7FB3CF809164
:1041100000038F7EA9CF809100038F7DA5CF809172
:1041200000038F7BA1CF0E94BA18809100038F7784
:104130009BCF80910003837F97CF809101038C7F79
:1041400099CF8091000382FB992790F921E0922773
:1041500090FB82F990FB83F987CF80910103982F20
:10416000909591708E7F892B90FB81F983CF9091F0
:104170000003892F8F7B96FF806476CF0E94BA1848
:1041800090910003892F97FB87F980586DCF61E0EC
:104190008EE090E00E9489306091000370910103ED
:1041A00084E090E00E94A7300E94BA181FCF60E020
:1041B000EFCF90910003892F8F7E94FF806154CFC1
:1041C00090910003892F8E7F90FF81604DCF909159
:1041D0000103892F877F93FF88604CCF80917A02FB
:1041E00081110EC089E2E4E7F2E09191891303C0E6
:1041F000DF0111971C9222E0EA37F207B1F7A9C15B
:1042000085E3F1CF6FEF7FEF90E080E00E94A73071
:104210000E94891BC081D181992369F0CE010E943F
:10422000C911F82E682FCE010E943D12BE018F2DBC
:104230000E948910A3C1CE010E940A12F82EF6CF67
:10424000D22FDF70207F11F0D295D07F6623C9F086
:10425000DD2369F080E28C0F883010F0C1110BC0B3
:1042600080919802D82BD09398020E944F168C2FE1
:104270000E945E1819C08091B003D82BD093B00370
:10428000F4CF8C2F0E941818DD2371F0D09580E2B6
:104290008C0F883010F0C11115C080919802D8237E
:1042A000D09398020E944F16E8E0EE1AF108F4E06D
:1042B000EF16F10410F40E94190D60E0C8010E948D
:1042C000E01294CE8091B003D823D093B003EACF0C
:1042D000822F8F70207F203211F08295807FC13035
:1042E00061F4662329F03630F8F60E948116DCCF9F
:1042F0003530D0F60E947616D7CF662319F03323D7
:10430000A1F3B5CF3323B1F3C93349F4FFEF27EE5F
:1043100083E0F15020408040E1F700C000008C2F86
:104320000E941818C1CF822F86958695837069F0F8
:10433000813009F0B9CF8C2F922F9370611102C098
:1043400080E090E00E94CF0CAFCF8C2F922F937023
:10435000611102C080E090E00E94F40CA5CF8C2F88
:104360000E940118A1CF822F837009F03FC0611114
:104370009BCF3C2F329536953770330F330F4C2F30
:104380004F7050E0032E02C0440F551F0A94E2F70D
:1043900090E080E0C4FF09C08FE090E002C0880F89
:1043A000991F3A95E2F7809590952695269523706A
:1043B000223099F078F46091FC027091FD02213076
:1043C00039F0842B952B862397230E94B1126CCF52
:1043D000462B572B842B952BF8CF842B952B209194
:1043E000FC023091FD0282279327EFCF869566234A
:1043F00011F0822F8170882309F456CF3C2F32951B
:1044000036953770330F330F4C2F4F7050E0032E1B
:1044100002C0440F551F0A94E2F790E080E0C4FF09
:1044200009C08FE090E002C0880F991F3A95E2F72B
:1044300080959095269526952370223099F078F4F2
:104440006091FE027091FF02213039F0842B952B90
:10445000862397230E94731227CF462B572B842B3A
:10446000952BF8CF842B952B2091FE023091FF02E3
:1044700082279327EFCFD22FDF70662329F08D2F6D
:104480000E94A1128C2F31CF8C2F0E9476168D2F77
:104490000E948F1209CFC13F69F148F4C03FC1F0BB
:1044A0006623A1F13111E3CE822F8F7127C0C23F65
:1044B00041F1C33FA9F790E080E0662359F22F71E4
:1044C00081E090E002C0880F991F2A95E2F7C2CFE1
:1044D000662361F0353008F0E7CE2F7181E090E07F
:1044E00002C0880F991F2A95E2F7BECF363008F038
:1044F000DBCEF3CF822F8F71662351F20E94A1127F
:10450000D3CE822F8F716623C9F3C2CF332359F0E4
:10451000C93309F004CF9FEFA7EEB3E09150A0405C
:10452000B040E1F7FACE822F8F71B2CFC6312CE7BF
:10453000D207C9F5809198028A7A91E009F490E057
:1045400090937A0269E2811165E382E792E00E942A
:10455000B50C0E944F164ACDC6318CE7D80709F436
:104560003DCEC052D847659708F440CDF801278169
:1045700030852115310509F44DCEC9010E94A810DE
:10458000C82F292FF8016581368132953F709295A9
:104590009F70E92EF12C9C3008F086CEF701E05098
:1045A000FF4C0C944F30C130ACE7DA0709F430CE41
:1045B000C330BCE7DB0709F425CEC115DC47B1F6F3
:1045C0000E94BA1881E00E9410138FEF94E3ACE0D0
:1045D00081509040A040E1F700C000000E9480138D
:1045E000CF93DF9380919502807F09F04DC0809139
:1045F0009402882309F448C0E091960450914D0438
:10460000C0919002D0918F026091910270919202BC
:1046100049E05E17C9F18E2F90E0E49FF00111246C
:10462000E25BFB4F2481222391F1489FF001499FD7
:10463000F00D1124DF01A25BBB4F11962C91119755
:104640002C1325C02C912D1322C015962C91159753
:1046500021111DC012962D913C91261B370B283C31
:104660003105A8F4809195028F7080618093950246
:10467000EC5AFB4F80818F70806180838FE892E0DD
:104680000E94821F0E94BF11DF91CF910895FC010B
:104690003196E770BECFA8E1B0E0E1E5F3E20C941B
:1046A0000A308C0186E0F801DE01539601900D92EC
:1046B0008A95E1F7F8018481E5809FE8A92E92E0D0
:1046C000B92E90919302911128C0882319F1EE2000
:1046D000F1F0C8010E94B612F82E8823C1F089E0DB
:1046E000F801D50101900D928A95E1F7809193022E
:1046F000813031F480918F02909190020E94FD11DF
:104700000E94F0228F2D6896ECE00C942630C801B0
:104710000E94821FFF24F394F5CFD080C180828055
:104720009380F09094022091910230919202A40122
:10473000421B530BFF2009F40DC1483C510508F002
:10474000B6C08823F9F29091900280919502282FAB
:10475000207F09F05FC0C9121DC090918F02D9124D
:1047600019C04091960250919702278130854217D7
:10477000530781F4E11048C08F70806180939502E7
:104780008FE892E00E94821F80919502F801868353
:10479000F12CB8CFE11038C06C2D8D2D0E94010B8B
:1047A0006C2D8D2D0E94010BE82E8111F1CFDB8A3B
:1047B000CC8A8B899C890E94FD11292F22952F700C
:1047C000243058F49F70223088F0992399F0F80132
:1047D0009681907F79F4FE2C95CF2A5F2F7022303E
:1047E00068F0C8010E94821FEF2CF5CF992311F0C9
:1047F000882389F3805E883070F3F3CF803F58F3CD
:10480000815F833070F7E7CF80919502816080935C
:104810009502BECFC9121CC090918F02D91218C048
:104820004091960250919702278130854217530795
:1048300079F4E1100DC08683C8010E94821F89E0CF
:10484000F801AFE8B2E001900D928A95E1F75ACFF6
:10485000C8010E94B612882309F459CFEE2009F44A
:1048600056CF809195028032B8F020918F0230911E
:1048700090023B872A879D868C86909193029E8723
:104880001F86888B80919602909197029A8B898BD4
:10489000CE010A960E94821F89E0F801AFE8B2E0DB
:1048A00001900D928A95E1F70E94F02233CF90910A
:1048B0009502292F207F51F48FE892E00E94821FF9
:1048C00089E0F50111928A95E9F762CF882309F40E
:1048D00019CF809190028C1119C080918F02D8124B
:1048E00015C040919602509197022781308542175A
:1048F000530761F4E1100AC09683C8010E94821F29
:1049000089E0F50111928A95E9F7FCCEC8010E9471
:10491000B612882309F4FBCEEE2009F4F8CE80917C
:104920009502803208F4B8CF20918F023091900226
:104930003A8329839C828B82909193029D831E826D
:104940008F83809196029091970299878887CE01F4
:104950000196A0CF483C510598F6882309F4DACE99
:10496000FE2CEE2009F4D3CE809190028C1120C051
:1049700080918F02D8121CC020919602309197022C
:10498000878190852817390799F49091950290FDB9
:1049900056CF907F09F453CF809195028683903F44
:1049A00009F44ACF982F907F905F8F70892B43CF67
:1049B000C8010E94B61281116FCF8091950281606B
:1049C00080939502C8010E94821F9CCEA2E1B0E0B4
:1049D000ECEEF4E20C9412300A871B872C873D879B
:1049E0004E875F87688B798B8A8BCE010A960E94EF
:1049F0004B2381110CC089E0FE013A96DE0111962D
:104A000001900D928A95E1F78E8581110BC019E016
:104A10008091960490914D04891331C06296E4E030
:104A20000C942E3020914D0430E0C901019687701E
:104A30009927409196044817190699F099E0929F9A
:104A4000D001939FB00D1124A25BBB4FFE013196A4
:104A500001900D929A95E1F780934D040E94BF1149
:104A6000D6CF0E94BA1810924D041092960489E095
:104A7000EFE8F2E0DF011D928A95E9F7C8CF819F48
:104A8000C0011124825B9B4F0E944B23882331F28B
:104A90008091960490E00196877099278093960400
:104AA000B7CFEF92FF920F931F93CF93DF93809135
:104AB000B203882361F0E091B1038DE0F82E80917C
:104AC000B203E81748F01092B2031092B103CDB7C9
:104AD000DEB7E6E00C942C30EE24E394EE0EE09288
:104AE000B103CE2FD0E0EF9DF0011124ED54FC4F27
:104AF00084818823E9F087819085892B21F4818541
:104B00009285019659F4008111812281338144817B
:104B100055816681778180850E94E624FC9EF001A4
:104B2000FD9EF00D1124ED54FC4F14821092B00341
:104B3000EE2DC5CF1092260410922504109282010A
:104B400080912404809323040E946E0D0E945125BD
:104B50000895B0E0A0E0EFEAF5E20C940430C091D3
:104B60002304E7E0FE2E01E010E0FDE02F2EEE240E
:104B7000E394809124048C1309C00E9451250E9463
:104B80006E0DCDB7DEB7E2E10C942030D0E0FE012F
:104B9000EE0FFF1FE55EFB4F80819181F89EF001D3
:104BA000F99EF00D1124EF5AFE4F248121115AC0B5
:104BB0003090B203A3EBB3E030E020E0412C5F0182
:104BC000231508F04DC01B966D907C901C97F50145
:104BD000808091804FEF5FEF512CC52CD12CF601D6
:104BE000EE0FFF1FE80DF91D6591749166167706AB
:104BF00009F4A601672B11F05394EFCF4F3F5407F0
:104C0000B9F1B80102C0660F771F4A95E2F7462A4C
:104C1000A801052C02C0440F551F0A94E2F7415029
:104C200051094416150609F5229EF001239EF00D48
:104C30001124ED54FC4FF89ED001F99EB00D1124C3
:104C4000AF5ABE4F12962D913C9113973087278310
:104C500074E0748310821182928781871596EC929A
:104C60000E94400D2196C37084CF14961C92149715
:104C70002F5F3F4F1D96A4CFA5E1B0E0E2E4F6E23E
:104C80000C9408308E01075F1F4F88E0D8011D92F9
:104C90008A95E9F793ECE92E91E0F92E9924939403
:104CA000CC24C394D12C3CECA32E31E0B32EF701DD
:104CB00081917F018F3F09F447C0F894E82FE29576
:104CC000EF70F0E021A18F70A60102C0440F551FC4
:104CD0008A95E2F7CA01922F982B91A392A1809511
:104CE000892382A3789400C088EC682E81E0782E16
:104CF000D801692D6095F30191913F018D919D013E
:104D0000215031099F3F09F4A4C0492F42954F70AB
:104D100050E0FA0140A150E09F7002C055954795C0
:104D20009A95E2F740FD95C08929F9018083A61480
:104D3000B70409F7F701319780818F3F11F00E9486
:104D4000670FF0EAFA95F1F7990C28ECE21621E0EA
:104D5000F20609F0ACCF48E050E0B80182EF92E0F3
:104D60000E94AD30009741F028E0F801A2EFB2E0D8
:104D700001900D922A95E1F70091FB0210E00E5F81
:104D80001C4F892B09F467C081E08093A5020E9423
:104D9000161F9093A4028093A302F12CE0904B0481
:104DA000EE2009F4B7C019821A821B821C828091FE
:104DB000ED028A3008F073C041EA5DE1BE016F5F29
:104DC0007F4FC8010E94D013882309F492C047E99D
:104DD0005CE1BE016F5F7F4FC8010E94D013882342
:104DE00009F487C04DED5BE1BE016F5F7F4FC801E5
:104DF0000E94D013882309F47CC04BE65CE1BE011D
:104E00006F5F7F4FC8010E94D013882309F471C0DF
:104E10004BE45DE1BE016F5F7F4FC8010E94D0137C
:104E2000882309F466C01092ED028091FA0290E0A6
:104E300044E050E0BE016F5F7F4F8E5F9C4F0E9449
:104E4000AD3021E02093B002892B09F03FC0E12C66
:104E50004AC086236ACFF090A502FF2009F49DCFB7
:104E60008091A3029091A4020E949A0C059708F4E5
:104E700094CF44E050E062EF72E0C8010E94AD3090
:104E8000892B59F084E0E2EFF2E0D80101900D9215
:104E90008A95E1F71092A50281CFF12CFBCF80918A
:104EA000A6029091A7020E949A0C843F914008F0BC
:104EB00083CF8091B002882351F284E0FE013196C5
:104EC000DF011D928A95E9F71092B002E091FA0293
:104ED000F0E0EE5FFC4F89819A81AB81BC818083D9
:104EE0009183A283B3838E2D8F296596EEE00C9477
:104EF00024308091ED028F3F31F08F5F8093ED027F
:104F00008A3008F492CF0E94161F9093A7028093D4
:104F1000A602CFCFC090FA02D12CF601EE5FFC4F73
:104F20006F0184E0F801AEEBB2E001900D928A953A
:104F3000E1F764E070E08EEB92E00E942A0D80932E
:104F4000BD0284E0E2ECF2E0D60101900D928A9578
:104F5000E1F78090C6029090C702A090C802B0907E
:104F6000C9028091A8029091A902A091AA02B091D1
:104F7000AB0288169906AA06BB06B1F08092A80279
:104F80009092A902A092AA02B092AB020E94A90C30
:104F9000861A970AA80AB90A8092EE029092EF0246
:104FA000A092F002B092F10288E0EAECF2E0A8E30D
:104FB000B3E001900D928A95E1F71091D20211238E
:104FC00049F080914003811105C00E947D0E80E070
:104FD0000E94C30D1093400380914C04811183CF34
:104FE0006091AC027091AD028091AE029091AF02DF
:104FF0000E947E0C672B682B692B09F474CF0E94EA
:10500000A90C6093AC027093AD028093AE029093B2
:10501000AF020E9481149C0198E0E3EDF2E0DE0112
:10502000119601900D929A95E1F78F8198850097DE
:1050300029F02817390711F00E944E14FE017196CD
:1050400085E0DF011D928A95E9F749895A896B89C4
:105050007C898D890E9408152A833B834C835D835C
:105060006E8365E070E0CE0102960E942A0D89836E
:1050700088E0FE013196A3EDB2E001900D928A9591
:10508000E1F7E5CEAEE1B0E0E8E4F8E20C940430FC
:105090004B8B5C8B6D8B7E8B8F8B988F91111092CD
:1050A000B003188A198A1A8A86E0FE017396DE0117
:1050B0001A9601900D928A95E1F78E85882389F0E2
:1050C00061E0CE010A960E94E0126C018F8520E516
:1050D000C2162CE7D20689F4882329F181E0809357
:1050E00082010A851B852C853D854E855F856889F3
:1050F00079898A890E94E624C8C031E5C3163CE755
:10510000D30629F4882379F00E949A25EACF42E554
:10511000C4164CE7D40639F4882329F08091820123
:105120008111F2CFDBCFF1E5EF2EF1E0FF2E512C14
:10513000B12CA12C88248394912CB7E04B2ECE0166
:1051400001969A8F898F33243394F70140815181DE
:1051500066246A94762C60E0262F30E0F901EE0F89
:10516000FF1FE40FF51F85919491C816D90609F425
:105170003901892B11F06F5FEFCF10E0FFEF6F1651
:105180007F0609F443C0F701448110918201812F09
:10519000411180E0182F1170F701258086819F85CD
:1051A000992309F4F2C0112309F4EFC0211014C0AF
:1051B0009401062C01C0220F0A94EAF7822B868301
:1051C0008091AE039091AF03C29730F422E330E0B8
:1051D0003093AF032093AE03C40102C0880F991F20
:1051E0006A95E2F70197F70126812817190671F4ED
:1051F0008091250490912604009709F44AC00E94EA
:105200009A0CC39708F445C0F7013482512AFFEF86
:10521000AF1ABF0A27E0E20EF11C37E0A316B10473
:1052200009F093CF8F85882309F40EC1552009F426
:105230000BC10E94161F9093260480932504809131
:10524000B203883010F591E0980F9093B20399E083
:10525000FE013A96DE01119601900D929A95E1F7C2
:105260004DE0849FC00111248D549C4F29E0FE0124
:105270003196DC0101900D922A95E1F72FEF3FEF77
:10528000FC0132872187D486C3866E96E2E10C94B6
:1052900020308091230460912404982FF0E0E0E016
:1052A000861314C090932304EE15FF0509F4AECFC6
:1052B00090E0FC01EE0FFF1FE55EFB4FB182A08284
:1052C00001968370992780932404A0CF682E712CB7
:1052D000F301EE0FFF1FE55EFB4F20813181429EFF
:1052E000D001439EB00D1124AF5ABE4F2D913C9179
:1052F00011973E8F2D8F00E070E0212CE22DF0E021
:10530000EE0FFF1F2D8D3E8DE20FF31F259134917F
:1053100021153105E1F0F7010190F081E02DFC8FBE
:10532000EB8F70E005C02417350709F4012F7F5F6C
:10533000E72FF0E0EE0FFF1F4B8D5C8DE40FF51FA4
:10534000459154914115510571F72394D7CF00230E
:10535000C9F0F701721508F0FD013482EE16FF0660
:1053600021F490932304102F51CF981305C0AE174A
:10537000BF0711F49F5F937093012F5F3F4F822F00
:1053800083708ECFF0E0E0E0F7CF90E021101FC0F7
:10539000940102C0220F331F6A95E2F721503109B0
:1053A0002817390731F4442309F44CC0C5010E9481
:1053B000400DC401062C01C0880F0A94EAF7982F0B
:1053C0009095F701868189238683122D1FCFAC012A
:1053D000062C02C0559547950A94E2F7BA01617010
:1053E00077279C012150310982239323892B31F5A2
:1053F000672B21F1F70182819381892BE1F0E98DFF
:10540000FA8D242D11922A95E9F70E94161F282F54
:105410008B839C8334E03D83F70182819381782FD5
:105420008887998709811A813C8144E05E816F8178
:10543000892F0E94E624F7011582BBCFF42FF1706B
:105440002F2EB7CF212EB5CF909123048091240425
:10545000981729F00E94A925511017CF42CE0E941B
:10546000512510922604109225040E946E0DF4CF4F
:10547000A6E0B0E0EEE3FAE20C9412300E94161FB0
:105480008C018091A1029091A2028017910781F076
:1054900019821A820E94161F682F49815A81792F1A
:1054A00080E090E00E9442281093A2020093A102A3
:1054B0002696E4E00C942E301F921FB61F92112402
:1054C0008F939F93AF93BF9380912D04811113C04D
:1054D00080912E0490912F04A0913004B09131045A
:1054E0004196A11DB11D80932E0490932F04A0938B
:1054F0003004B0933104BF91AF919F918F911F9071
:105500001FBE1F901895CDB7DEB728970FB6F89439
:10551000DEBF0FBECDBF85B7806885BF85B7806809
:1055200085BF84B7877F84BF0FB6F894A895809114
:105530006000886180936000109260000FBE80E878
:1055400090E00FB6F89480936100909361000FBED5
:1055500085E69FE090937102809370020E94200B79
:105560000E94C10B8091E20084608093E2007894F5
:1055700080913F048823A1F01091E9001F70909161
:10558000EC00892F817090FD80E8182B1092E900C3
:105590008091E80083FD0E94D0181F701093E900ED
:1055A00082E084BD93E095BD9AEF97BD80936E0035
:1055B0001092EE021092EF021092F0021092F1029D
:1055C0008091D80080618093D8002AE12A95F1F774
:1055D00000C08091D900182F117080FD04C00E9476
:1055E000200B10923F0410934B0481E0812780939D
:1055F0004C048093400111110E94982D809140012C
:105600008091400194E0811190E09093FB0284E04E
:10561000891B8093FA0203EC11E058ECE52E51E06F
:10562000F52ED8018D918D018F3F11F00E94670FEB
:10563000E016F106B1F787EF0E94670F86E60E9439
:10564000670F84E90E94670F85E30E94670F88E077
:10565000E2E0F3E0DF01282F1D922A95E9F7E2EF5F
:10566000F2E0DF011D928A95E9F78FE090E00E9459
:105670006D306F7360939A0490E080E00E94733005
:10568000853E9E4F09F465C065EE7EEF90E080E0B8
:105690000E94A73060E082E090E00E94893081E0C3
:1056A00090E09093FD028093FC0261E083E090E043
:1056B0000E94893060E074E184E090E00E94A730AD
:1056C00060E086E090E00E94893060E087E090E052
:1056D0000E94893040E050E0BA0188E090E00E94EA
:1056E0009B3060E083E290E00E94893060E08CE0D3
:1056F00090E00E94893060E08DE090E00E94893067
:1057000019821A821B821C821D821E821F821886A9
:1057100048E050E067E170E0CE0101960E947930E8
:1057200040E050E0BA018FE190E00E949B3010927F
:105730009A0440E050E0BA018FE090E00E949B3074
:105740000E94490F40E050E0BA0183E190E00E94DE
:105750009B3082E090E00E94653080930A0384E0F1
:1057600090E00E94733090930103809300030E94A5
:105770003C26EFEFF6E721E0E150F0402040E1F772
:1057800000C000000E943C268091020380FF08C0F8
:105790006FEF7FEF90E080E00E94A7300E948013BF
:1057A00083E090E00E94653090E00E94B112809109
:1057B000FE029091FF02009709F4B1C044E0969573
:1057C00087954A95E1F7817090919A0480FB97F94B
:1057D00090939A040E94490F0E94AB0D81E0809340
:1057E000330348E050E067E170E088E393E00E9413
:1057F000553010923303809138038C7FF9F489E09F
:10580000809338038091850190918601A091870152
:105810008093390390933A03A0933B0380E28093F3
:105820003C038FEF80933D0348E050E067E170E078
:1058300088E393E00E9479301092330380914B0407
:10584000811102C00E949B2D80914C04811102C0E5
:105850000E94B7150E94490F81E491E090932A04B9
:105860008093290428E1A22EB12C3AE0832E33E064
:10587000932E442443943324339480913F0400E1D5
:1058800012E1853009F491C00E943C268BE0E82E9D
:1058900083E0F82E92E0C92E93E0D92ED601F701CD
:1058A00091918D9123E0E331F20709F48AC09817B2
:1058B000B9F320904B0410E0D6010D916D01F70172
:1058C00051907F01501629F15026712C6624639463
:1058D000862D8521B1F02220A1F079821A830E94C1
:1058E000161F9C838B834D8291E0862D802309F4C3
:1058F00090E09E8349815A816B817C818D810E94D9
:1059000042287394660CF5E07F12E2CFF7013197DD
:1059100000831F5F183081F60E947E0F56C080E022
:1059200053CF80913F04843009F431C00E94911418
:1059300080914003811105C00E947D0E80E00E948D
:10594000C30D309240030E94E11610922D0480E4B2
:105950000FB6F894A895A09260000FBE80936000E7
:1059600083B7817F846083BF83B7816083BF78946E
:10597000889583B78E7F83BF0FB6F894A8958091E2
:105980006000886180936000109260000FBE80917B
:105990003E04882351F00E943C26E2E0F3E081912E
:1059A000811156C08E169F06D1F780913F04853035
:1059B00009F4B7CF0E94BA180E94190D1092400343
:1059C00063CF981376CF0E94382A80914B048823A6
:1059D00019F1809182018823F9F08091250490913A
:1059E00026040097C9F00E949A0C2091AE033091D2
:1059F000AF032817390780F4909123048091240481
:105A00009817E9F00E94A9251092AF031092AE03F7
:105A100010922604109225040E9491140E94E1160F
:105A200081110E947E0F0E94190D90911303891716
:105A300009F423CF809313030E94A90C1ECF0E9468
:105A4000512510922604109225040E946E0DE4CF79
:105A500009BD19BD09B400FEFDCF8091D8008F7D2E
:105A60008093D8008091E00082608093E000809174
:105A7000E00081FDFCCF0E94BA1897CF8EE14A9BCF
:105A800002C08150E1F74A9BFECF08955A9880E208
:105A90008A95F1F75A9A0895FC013BE03A95F1F79F
:105AA00098E020E080E031E040E14A95F1F7880F8E
:105AB0004A9B02C08160232742E04A95F1F700002B
:105AC00040E14A95F1F7915079F790E19A95F1F715
:105AD00099B132E03A95F1F7000040E14A95F1F7CB
