:100000000C94C8020C9400030C9400030C94F5317A
:100010000C9400030C9400030C9400030C94000354
:100020000C9400030C9400030C94991B0C94551B26
:100030000C94292D0C9400030C9400030C940003E1
:100040000C9400030C9400030C9400030C94000324
:100050000C9400030C94801C0C9400030C9400037B
:100060000C9400030C9400030C9400030C94000304
:100070000C9400030C9400030C9400030C940003F4
:100080000C9400030C9400030C9400030C940003E4
:100090000C9400030C9400030C9400030C940003D4
:1000A0000C9400030C9400030C94000304283438CF
:1000B00000001000360000000600190000001C00BF
:1000C000180000001500170000000D320E3100006E
:1000D00007210922000005010980A10185031901FA
:1000E0002AB700150126B700950175108100C005DB
:1000F0000C0901A101850419012AA002150126A0FD
:1001000002950175108100C005010902A1010901D4
:10011000A100050919012908150025019508750197
:1001200081020501093009311581257F9502750885
:10013000810609381581257F950175088106050C12
:100140000A38021581257F950175088106C0C00512
:10015000010906A101050719E029E7150025019508
:1001600008750181029501750881010507190029AB
:10017000FF150026FF009506750881000508190186
:100180002905150025019505750191029501750355
:100190009101C014001A4408001500170004281625
:1001A00024072109220A001D001B00060019000572
:1001B000002B41000029432C420000130012000CC8
:1001C0000018001C0034380F340E310D320B00388B
:1001D000003700360010001100284600002A4500B4
:1001E00000000000000000000000000000E300E24A
:1001F00000E000E10000000000000000000000003E
:100200000001000000000000000000450042004125
:10021000004000460044003F003E003D00470043D0
:10022000003C003B003A004800000000004C000089
:1002300000000000000000000000000000E300E2F9
:1002400000E000E1000000000000000000000000ED
:10025000000000000000000100000000000000009D
:1002600000000000004F0052005100500039004DC6
:10027000004B004E004A004900280000002A000000
:1002800000000000002278207821780000AC00AA4D
:1002900000A800A900AB00000000000000037C00E3
:1002A0007CAD0000000100AE0000000000217820BD
:1002B0007822780000AB00A900A800AA00AC0000DA
:1002C0000000000000037C007CAD000000AE0000D8
:1002D00000000000000000067E01000100E300E2D3
:1002E00000E000E10000000100067E047E037C00C7
:1002F0007CD2000000D300D100000000000000000C
:1003000000007E027EE300E200E000E10000000168
:1003100000067E047E037C007CD4000000D5000033
:100320000000002F002400250026003000330021AB
:1003300000220023002E0035001E001F0020003187
:10034000002D000000370027000000000000000022
:1003500000000000002D002E0225023800000000E1
:100360000000000000000037000000000001000055
:100370000000002F0224022502260230023302214F
:1003800002220223022E0235021E021F0220023127
:10039000022D02000026024C0000000000000000B8
:1003A0000000000000E300E200E000E100000000C7
:1003B000000000000000000000010000000000003C
:1003C000000000000101010101010101010202021E
:1003D00002020202020203030303030303030404F1
:1003E00004040404040505050505060606060607BB
:1003F0000707070708080808090909090A0A0A0B74
:100400000B0B0C0C0C0D0D0D0E0E0E0F0F0F101014
:10041000111111121213131414151516161717189B
:100420001819191A1A1B1B1C1D1D1E1E1F20202106
:100430002222232424252626272829292A2B2C2D4D
:100440002D2E2F30313232333435363738393A3B6E
:100450003C3D3E3F404142434445464748494A4C63
:100460004D4E4F50515354555658595A5B5D5E5F2F
:10047000616264656668696B6C6D6F7072737577C5
:10048000787A7B7D7E8082838587888A8C8E8F9127
:10049000939596989A9C9EA0A2A3A5A7A9ABADAF51
:1004A000B1B3B5B7BABCBEC0C2C4C6C9CBCDCFD13B
:1004B000D4D6D8DBDDDFE2E4E7E9EBEEF0F3F5F8E4
:1004C000FAFDFF09025400030100A0FA090400002C
:1004D0000103010100092111010001224400070567
:1004E0008103080001090401000103010200092140
:1004F00011010001224700070582031000010904D1
:100500000200010300000009211101000122320054
:10051000070583032000011201000200000008F813
:10052000A832180002010200013A0343006800618A
:100530000072007900620064006900730020004EC0
:100540000061006E006F0020002800330078003545
:10055000002900200045006C006900740065002D32
:100560000043000000240342006100730074006136
:10057000007200640020004B006500790062006F8B
:1005800000610072006400730000000403090400AD
:1005900011241FBECFEFDAE0DEBFCDBF04B603FEED
:1005A00018C080912D0590912E05A0912F05B09136
:1005B00030058730904BA740B04B59F410922D0571
:1005C00010922E0510922F0510923005E0E0F8E30E
:1005D000099512E0A0E0B1E0E2ECFCE602C0059073
:1005E0000D92A438B107D9F725E0A4E8B2E001C024
:1005F0001D92AD32B207E1F70E94502D0C94D63512
:100600000C94000090912205937059F0809323057B
:100610006093240540932505809121058160809396
:100620002105089590912205937061F081110BC00E
:1006300094609093220510928E0180912105816033
:100640008093210508958A3210F0946AF2CF880FC2
:10065000880F982BEECF482F20911D059091D40440
:1006600059E0291302C080E0089530E0529FF00164
:10067000539FF00D1124EB52FB4F8181681306C08C
:100680008081481303C085818111EECF2F5F3F4FDA
:100690002770E7CFE8EDF0E080818E7F80831092B5
:1006A000E2001092DA001092E100A0EEB0E08C912E
:1006B00081608C9380818F77808319BCA7EDB0E037
:1006C0008C918E7F8C9380818F7E808310928E049C
:1006D00008952091E4003091E50095E6A90120916C
:1006E000EC00822F817020FF06C08091E80080FF1F
:1006F00006C080E008952091E80022FD1AC0809194
:100700009904882389F0853089F08091EB0085FD7C
:100710000FC02091E4003091E50042175307F9F231
:100720009150E1F684E0089582E0089583E0089511
:1007300081E0089580919B0487FF13C08091E800B9
:1007400082FF06C08091E8008B778093E80004C0A8
:10075000809199048111F2CF0895809199048823A2
:10076000D9F38091E80080FFF8CF8091E8008E7780
:10077000ECCF982F9093E900242F762F50E0891723
:1007800031F07091EC002091ED005091F00021FDCE
:1007900007C09F5F973071F78093E90081E008956B
:1007A0003091EB003E7F3093EB003091ED003D7FC8
:1007B0003093ED003091EB0031603093EB0070939B
:1007C000EC002093ED005093F0002091EE0027FD07
:1007D000E0CF80E00895B0E0A0E0E1EFF3E00C941A
:1007E0004E34C8EDD0E088818F7E8883E7EDF0E05D
:1007F00080818160808384E082BF81E080938E0469
:1008000088818E7F888302EE10E0F80110821092BA
:10081000DA0081EEC82ED12CF601108288818F7704
:10082000888388818068888388818F7D888319BCCC
:100830001092990410929A041092980410929704BE
:1008400090EEE92EF12CF70180818B7F80838881E7
:100850008160888342E060E080E00E94B903F60195
:1008600080818E7F8083F801808181608083808198
:1008700088608083F70180818E7F8083888180619A
:100880008883CDB7DEB7E8E00C946A34FC01809130
:10089000A1049091A20486179707A0F06115710535
:1008A00029F49091E8009E779093E80090E061151C
:1008B000710551F4911108C08091E80082FF34C0A5
:1008C00080E00895BC01F2CF809199048823C1F1A2
:1008D0008530C1F18091E80083FD30C08091E8004F
:1008E00082FDEACF8091E80080FFE1CF8091F300A4
:1008F0002091F200382F6115710519F0283031056B
:1009000058F091E02830310509F090E02091E8009E
:100910002E772093E800CBCF81918093F100615036
:1009200071092F5F3F4FE7CF80919904882341F0F1
:10093000853041F08091E80083FFBECF81E00895CB
:1009400082E0089583E008950895CF92DF92EF92B8
:10095000FF922FB7F894C0908A04D0908B04E09057
:100960008C04F0908D042FBFA7019601261B370B36
:10097000480B590BCA01B901FF90EF90DF90CF905F
:1009800008959C014FB7F89480918A0490918B044C
:10099000A0918C04B0918D044FBF821B930B0895DE
:1009A0002FB7F89460918A0470918B0480918C0425
:1009B00090918D042FBF08958091880108959C0126
:1009C000FC0132969FEF80E04191461751F09F3F26
:1009D00019F4411101C0982F8F5F8630A9F79F3F0E
:1009E00009F40895290F311D97FD3A95F9016283A5
:1009F0000895A3E0B0E0EFEFF4E00C9454342091BC
:100A000087043091880428173907A1F0909388044F
:100A100080938704E0918504F0918604309751F02B
:100A200024E029839B838A830084F185E02DCE0115
:100A3000019609952396E2E00C947034A3E0B0E0AF
:100A4000E4E2F5E00C945434209183043091840462
:100A500028173907A1F09093840480938304E091D0
:100A60008504F0918604309751F023E029839B831D
:100A70008A830084F185E02DCE01019609952396A5
:100A8000E2E00C9470348091A504882359F0E09141
:100A90008504F0918604309729F00190F081E02DD3
:100AA0000995089580E00895FC01680F791F8FEF84
:100AB00091E32191822728E030E087FF09C0880F69
:100AC000892721503109C9F7E617F70791F70895EB
:100AD000880FF7CFAC0180917F0460918004982F3C
:100AE000691301C00895292F30E0F901EE0FFF1FAF
:100AF000E958FB4F0190F081E02DE417F507C1F4B0
:100B0000F0E0E0E04730510540F467E0649FF00119
:100B1000659FF00D1124EB5AFE4F41E0448398137A
:100B2000E1CF2F5F3F4F2370332720937F04089539
:100B30002F5F3F4F922F9370D3CF10920B041092E0
:100B40000A04E5E5F1E086E891E02581211102C083
:100B50001482168237968E179F07B9F70895FC0105
:100B6000EE0FFF1FE80FF91FE256FC4F6183408331
:100B700022830895539A0895E2E2F5E0248130E15A
:100B8000231B08F420E02483809121058160809359
:100B900021050895E2E2F5E0248130E1230F08F415
:100BA0002FEF248380912105816080932105089592
:100BB000E2E2F5E0438120E1421B08F440E081815C
:100BC000628190E00E9402030895E2E2F5E0438131
:100BD00020E1420F08F44FEF8181628190E00E9492
:100BE00002030895E2E2F5E0628120E1621B08F46D
:100BF00060E08181438190E00E9402030895E2E277
:100C0000F5E0628120E1620F08F46FEF818143819A
:100C100090E00E9402030895E2E2F5E081814381C1
:100C200062818850990B0E9402030895E2E2F5E088
:100C3000818190E04381628108960E9402030895B9
:100C40008091220586958695815009F489E20E945B
:100C50001203089580912205869586958F5F8A32CA
:100C600008F081E00E9412030895E2E2F5E080813D
:100C700091E08927808310928E0180912105816007
:100C8000809321050895880F880F880F98E0980FAA
:100C9000953208F094E22091A604222321F09331AA
:100CA00028F092E10895823108F482E1089580935A
:100CB0005401809122058370809353010E94D911C1
:100CC00083E080938E010895EF92FF920F93970136
:100CD000201B31092F3F310519F010F02FEF30E0C4
:100CE0002095382F320F08F43FEF832F0F91FF909C
:100CF000EF900895EF92FF920F939701201B310917
:100D00002F3F310519F010F02FEF30E0322F3095E2
:100D1000482F430F08F44FEF842F620F0F91FF907D
:100D2000EF900895EF92FF920F93972F093438F4C4
:100D3000B701601B71096F3F710519F010F06FEF7B
:100D400070E0485F5F4F4131510540F0A901485FB5
:100D50005F4F4131510510F06FEF70E06095482F03
:100D6000460F08F44FEF842F37FF02C02D5F3F4F2F
:100D7000359527953595279560912305620F792F35
:100D80000F91FF90EF900895EF92FF920F931F93B2
:100D90000E0D1F2D111DF90137FF03C0F195E195CF
:100DA000F10924E0EE0FFF1F2A95E1F7EF3FF1056F
:100DB00019F014F0EFEFF0E09A0157FF03C03195FE
:100DC0002195310994E0220F331F9A95E1F72E17F0
:100DD0003F070CF4F901E00FF11FEF3FF10519F0A7
:100DE00010F0EFEFF0E0E095282F3E2F230F08F4EE
:100DF0002FEF822F1F910F91FF90EF900895EF92A8
:100E0000FF920F93970195E0099F200D311D11244A
:100E10002F3F310519F010F02FEF30E02095382FDB
:100E2000320F08F43FEF832F0F91FF90EF9008955A
:100E3000409520E4429F412D1124640F0895409570
:100E4000282F429F412D1124842F0895E42FF0E094
:100E5000EE0FFF1FE95EFD4F9081921B97FD91956C
:100E6000292F38E1239F212D1124620F08950F931C
:100E70001F9310E0F801EE0FFF1FE95EFD4F908118
:100E8000905797FD9195000F111FF801E151FE4F0A
:100E900001A50052110B2003F001219FF00D112438
:100EA00008E310E0091B110997FD13954003900119
:100EB000419F300D1124E20FF31F9F01220F331FBA
:100EC0002E0F3F1F37FF02C021583F4F220F232F05
:100ED000221F330B620F1F910F9108950F931F93E1
:100EE000522F10E0F801EE0FFF1FE151FE4FA1A5B8
:100EF000A052BB0B9D015203F001539FF00D112432
:100F0000000F111FD801A95EBD4F0C910057110BA6
:100F100040039001419F300D11242E0F3F1F37FFDA
:100F200002C0215C3F4F96E0359527959A95E1F7F1
:100F3000620F1F910F9108950F931F93522F10E08E
:100F4000F801EE0FFF1FE151FE4FA1A5A052BB0B10
:100F50009D015203F001539FF00D1124000F111F4A
:100F6000D801A95EBD4F0C910057110B40039001B1
:100F7000419F300D11242E0F3F1F37FF02C0215813
:100F80003F4F220F232F221F330B620F1F910F9110
:100F90000895EF920F93972F23E0029FB001112441
:100FA000759567956E0D792F0F91EF900895322FFB
:100FB00050E0FA01EE0FFF1FE151FE4F91A5905254
:100FC00097FD9195440F551FFA01E95EFD4F208171
:100FD000231B330B290F311D97FD3A95620F08959E
:100FE000E42FF0E0EE0FFF1FE151FE4F61A5621B01
:100FF0000895E42FF0E0EE0FFF1FE95EFD4F6081E2
:10100000621B0895622F0895E42FF0E0EE0FFF1F9A
:10101000E95EFD4F408134EE439F412D1124E82FBE
:10102000F0E050E0445E5F4FDA01A21BB1099D0180
:10103000B7FF03C031952195310993E0220F331F8B
:101040009A95E1F7AF01421B530B9A0157FD20E03F
:10105000582F259F212D1124822F0895E42FF0E091
:10106000EE0FFF1FE95EFD4F408134EE439F412D9F
:101070001124E72FF0E050E0445E5F4FDA01A21B3D
:10108000B1099D01B7FF03C031952195310993E066
:10109000220F331F9A95E1F7AF01421B530B9A01C0
:1010A00057FD20E0279F212D1124722F08953091A4
:1010B000A604311104C0823191050CF042970E94C0
:1010C000AF050895FF920F931F93CF93DF93182FCF
:1010D000062FF42ED0E0C0E02F2D402F612FCE013F
:1010E0000E9457082196C432D105B1F7CDB7DEB7BB
:1010F000E5E00C946D34FC019B01009729F480E03D
:1011000077FF2BC080E80895AC0197FF04C0442707
:101110005527481B590BB901640F751F37FD10C0C7
:10112000241B350BC901A5E0880F991FAA95E1F78B
:101130000E948F3480E2861BF7FF0FC081950895CF
:10114000CB0165E0880F991F6A95E1F7BA01621B30
:10115000730B0E948F3480E6EECF0895EF920F93C9
:10116000CF93DF93D72FC82FC9010E19BA010E9460
:101170007B08602F681B7D2F8C2FDF91CF910F9103
:10118000EF9008950F93CF93DF93D72FC82FC90106
:10119000BA010E947B08682F600F7D2F8C2FDF9192
:1011A000CF910F910895EF920F931F93CF93DF93F9
:1011B000D62FC72F182FC9010E19010FBA010E948F
:1011C0007B08081B202F219F212D1124822F6D2F9A
:1011D0007C2FDF91CF911F910F91EF900895EF92A7
:1011E0000F931F93CF93DF93D62F172FC82FC901CB
:1011F0000E19070FBA010E947B08702F781B719F90
:10120000712D11246D2F8C2FDF91CF911F910F9194
:10121000EF9008950F931F93CF93DF93D62FC72F8F
:10122000182FC901212F201B022FBA010E947B0811
:10123000982F990F990F891B800F282F219F212DFF
:101240001124822F6D2F7C2FDF91CF911F910F9151
:1012500008950F931F93CF93DF93D62F172FC82F87
:10126000C901272F201B022FBA010E947B08982F4B
:10127000990F990F782F791B700F719F712D112481
:101280006D2F8C2FDF91CF911F910F910895E82F33
:1012900086FDE0952E2F2F7086FD2F5FE695E69553
:1012A000E695E670F0E0E852FE4F9181929F902D16
:1012B000212D112492959F702295207F922B2081C1
:1012C000920F87FD919580E8890F08950F931F93E2
:1012D000CF93DF938B01D82FC42F822F0E94470911
:1012E000EC2FF0E0EE0FFF1FE95EFD4F908190586C
:1012F000890F87FD8195880F682F2CE0629F612DF3
:101300001124600F712F8D2FDF91CF911F910F91BD
:1013100008951F93CF93DF93D62FC72F182F822FB7
:1013200086950E944709805887FD8195880F282F50
:10133000219F212D1124822F6D2F7C2FDF91CF91A2
:101340001F91089540914F015091500125E038E0E0
:10135000429FC001439F900D529F900D1124875EC4
:10136000994C9093500180934F01890F0895AC01DF
:101370008230910508F408959FEF413E8EE15807B1
:1013800040F49A0195E0369527959A95E1F798E013
:10139000920F61E0E62FE90FFF27FF1F9F013595B0
:1013A0002795822F229FF001239FF00DF00D11242D
:1013B0004E175F0738F49FEF920F961758F78FEF8D
:1013C000860F08952F3FE9F361E0620FF6CF0F9388
:1013D000CF93DF93D72FC82F47FD419588E390E047
:1013E000841B910947FD9395889FB001899F700DDB
:1013F000700D1124229FC001239F900D900D112488
:10140000860F971F0E94B709982F990F890F682F91
:10141000600F7D2F8C2FDF91CF910F91089530E0D9
:1014200020E0869F212D969F200D311D1124C9019A
:101430000895982F8091A604882329F081E09231A5
:1014400028F080E003C081E09432D8F70895B0E03E
:10145000A0E0EDE2FAE00C944E349B01E82FF0E0BE
:10146000ED53FC4F311109C0E4918E2F7E2F6E2F6A
:10147000CDB7DEB7E8E00C946A34E32EF12CE491AA
:10148000FE2F0E2F10E046E0649FC0011124CFEF25
:10149000D0E0BE010E947B34AB01822F90E0880F28
:1014A000991F25E5249FB001259F700D1124861BEF
:1014B000970B982F990F980FBE016E197F09609FA7
:1014C000D001619FB00D709FB00D11248B2F399FFB
:1014D00090011124232F3327BE01621B730B609FE1
:1014E0009001619F300D709F300D11246E01C91A5B
:1014F000D108CE9CB001CF9C700DDE9C700D1124E4
:10150000672F7727C61BD70BC09F7001C19FF00CB8
:10151000D09FF00C11247F2D42305105A1F050F4E2
:101520004115510509F4A3CF4130510581F07B2FBE
:10153000832F9DCF4430510569F080F0463051052E
:1015400009F495CFF4CFEB2F8F2D7F2F90CF7E2FE7
:10155000E32F8DCFEF2D7B2F8F2F89CF732FEB2F85
:10156000FBCFB0E0A0E0E7EBFAE00C944F348C0145
:10157000FC01E15AFD4F8081682341F1D0902405A0
:10158000D0912505C0912305EC2EF12C0E94A209D3
:10159000282FC7018C549F4F68E671E00E948F345A
:1015A0008E199F0997FD0396959587959595879533
:1015B00023706C2F289F600D11247D2D8D2F0E948C
:1015C000270A472F282FC8010E945708CDB7DEB73A
:1015D000E7E00C946B342F923F925F926F927F9270
:1015E0008F929F92AF92BF92CF92DF92EF92FF9233
:1015F0000F931F93CF93DF93CDB7DEB729970FB625
:10160000F894DEBF0FBECDBF89837D836C8380914C
:101610008B010E9443069A832091AB042B83E82F11
:10162000F0E0F987E887CF01880F991F9C012151CD
:101630003E4F69013981832F90E0FC013196FF8391
:10164000EE838A8198859817D0F00E94190A29960E
:101650000FB6F894DEBF0FBECDBFDF91CF911F91C3
:101660000F91FF90EF90DF90CF90BF90AF909F9041
:101670008F907F906F905F903F902F900895E885B6
:10168000F985E15AFD4F808190918C018923E9F021
:1016900020902305309024052E813F8125553B4F16
:1016A0003901598010E0FB815F16C8F020912505B3
:1016B000129F112D1124B101812F0E94270A472F5B
:1016C000282F888599850E945708288539852F5F9E
:1016D0003F4F3987288732E0C30ED11CB2CFF301C8
:1016E00081913F01F601A0A4A81ABB0881A4F301CF
:1016F0008781881A9908AA9C9001AB9C300D300D07
:101700001124889CC001899C900D900D1124820F9A
:10171000931F0E94B709082F6091260521E0620FF0
:1017200008F46FEFF301EE0FFF1FEB5AF4408589C9
:1017300096890E940F0A7C019401A501B101812FB5
:10174000EC81FD8109951B015394182FACCFB0E0BB
:10175000A0E0EDEAFBE00C944F348C0180918B010A
:101760000E944306C82FD92E2091260531E0230F71
:1017700008F42FEF30E050E040E06FEF7FEF80E0C3
:1017800090E00E9473357901D0E02C2FCD1540F008
:101790008D2D0E94190ACDB7DEB7E7E00C946B34AB
:1017A000FE01E15AFD4F808190918C01892309F15E
:1017B0004091AB044150042E000C550B47FF1BC059
:1017C000C7016091260521E0620F08F46FEF0E94C7
:1017D0000F0AAC01609123057091240580912505C5
:1017E000F80109950E94270A472F282FCE010E9451
:1017F00057082196CACFFA01E555FB4F818982131C
:101800000AC0FA01EE0FFF1FE555FB4F818D928D47
:101810008E159F05B0F241505109D0CFEF92FF9243
:101820000F931F93CF93DF937C0180918B010E94D4
:101830004306C82F192F609126056695669521E00D
:10184000620F08F46FEF8091A7049091A8040E94A2
:101850000F0A082FD0E0C11740F0812F0E94190A0B
:10186000CDB7DEB7E6E00C946C34FE01E15AFD4FD3
:10187000808190918C01892389F06091230570917A
:10188000240580912505202F4C2FF70109950E94F2
:10189000270A472F282FCE010E9457082196DBCF19
:1018A000B0E0A0E0E6E5FCE00C944C346C018091E3
:1018B0008B010E944306C82FF92E6091260566957C
:1018C00066958091A7049091A8040E940F0A182F92
:1018D00080E4810F0E94470990E8B92EB80E812F4D
:1018E0000E94470920E8A22EA80ED0E0CF1540F0B4
:1018F0008F2D0E94190ACDB7DEB7EAE00C94683448
:10190000FE01E15AFD4F808190918C01892399F06D
:10191000609123057091240580912505E12E0C2FFF
:101920002A2D4B2DF60109950E94270A472F282FB3
:10193000CE010E9457082196D9CFB0E0A0E0E3EA9B
:10194000FCE00C9448343C0180918B010E944306DA
:10195000C82F192F6091260566958091A704909154
:10196000A8040E940F0AF82ED0E0CE01880F991F1C
:101970009C0121513E4F6901C11740F0812F0E9407
:10198000190ACDB7DEB7EEE00C946434FE01E15ADB
:10199000FD4F808190918C01892371F1F60180A522
:1019A000282F2057330B590181A5E82FE052FF0B58
:1019B0004F01AA9C9001AB9C300D300D1124EE9F7D
:1019C000C001EF9F900D900D1124820F931F0E9474
:1019D000B709082F60912305709124058091250592
:1019E000EF2C9401A501F30109950E94270A472FC6
:1019F000282FCE010E945708F2E0CF0ED11C21966D
:101A0000BBCFB0E0A0E0E7E0FDE00C944D346C010A
:101A100080918B010E944306C82F192F60912605E3
:101A200066958091A7049091A8040E940F0AB82E91
:101A3000D0E0CE01880F991F9C0121513E4F7901C2
:101A4000C11740F0812F0E94190ACDB7DEB7E9E037
:101A50000C946934FE01E15AFD4F808190918C0114
:101A60008923B9F0F70121A52052330B40A5405737
:101A7000550B6091230570912405809125050B2D50
:101A8000F60109950E94270A472F282FCE010E94B0
:101A90005708F2E0EF0EF11C2196D2CF1F93CF939F
:101AA000DF93C82FD0E0FE01E15AFD4F808168230B
:101AB000A9F00E94A209182F0E94A20920E8829F83
:101AC000C00111247FE7790F612F809125050E94C5
:101AD000270A472F282FCE010E945708DF91CF9168
:101AE0001F9108952091A604211103C00E947D1228
:101AF00008959093410380934003089580912A05AF
:101B000086FF05C084E690E00E94720D089587FF6D
:101B100009C08295837024E6829FC00111248853F6
:101B20009F4FF2CF8F7028EC829FC0011124805705
:101B30009E4FEACF80E00895F894E82FE295EF7089
:101B4000F0E031A1282F2F7081E090E001C0880FD4
:101B50002A95EAF7982F9095932391A392A1892B28
:101B600082A3789408950F931F938091A5048823EE
:101B700029F00E94D0041F910F9108950E94D00473
:101B80000091020310910303209104033091050397
:101B9000600F711F821F931FEECF9091140392FF6D
:101BA00010C041E0282F2471243009F040E031E0DA
:101BB000282F2871283009F030E0431711F02CE06D
:101BC000822793FF10C041E0282F2471243109F0AF
:101BD00040E031E0282F2871283109F030E0431728
:101BE00011F02CE082273091150330FF10C051E036
:101BF000282F2171213009F050E041E0282F287171
:101C0000283009F040E0541711F029E0822731FF15
:101C100010C041E0282F2171213109F040E031E06E
:101C2000282F2871283109F030E0431711F029E0FE
:101C3000822794FD877E089582389105B9F1B0F42A
:101C40008133910509F47DC048F48932910509F486
:101C50006DC08A32910509F47BC0089585339105E2
:101C600009F45FC08933910509F10895833E910518
:101C7000D9F138F4803E910529F1823E910579F140
:101C80000895863E9105D9F1873E910509F43EC03D
:101C9000843E910541F52091150321FF24C08091D8
:101CA000140384FD19C087EE90E008952091140379
:101CB000237009F05AC02091150323FF14C089E254
:101CC00090E008952091140320FD38C03091150351
:101CD00030FF09C024FF43C090E080E008952091C8
:101CE000140322FDF7CF08952091140322FD3AC07A
:101CF0003091150330FD39C024FFF5CFEDCF209191
:101D0000140323FFF0CF24FDE7CFCDCF20911403A0
:101D100023FD2EC03091150331FFEECF84EE90E00D
:101D200008952091140325FFDECFC9CF209114031D
:101D300025FD21C02091150323FFD5CF89E390E035
:101D4000D2CF2091140326FFCECF8AE290E00895EF
:101D50002091140326FFC7CF81E390E0089583EE1E
:101D600090E0089582EE90E0089580EE90E008956E
:101D700086EE90E0089585E390E00895972F7830FF
:101D8000B8F46530A8F48730B0F470E025E0929F95
:101D9000600D711D1124FB0198E2899FE00DF11D7A
:101DA0001124EE0FFF1FED56FE4F8591949108957B
:101DB00080E090E0089581E0FCCF1F93CF93DF9304
:101DC0000E941C0EEC01C11580E5D807F0F5C11585
:101DD00080E4D80708F0AAC0C03ED10520F5CD3C6C
:101DE000D10508F090C0C83AD10578F4C53AD105BC
:101DF00008F081C0C130D10519F1209709F1C43034
:101E0000D105F0F4D0E0C0E01BC0C33CD105D0F751
:101E1000C85AD0E0CC0FDD1FC956DE4F0990D881DB
:101E2000C02DD4640DC0C11580E2D80708F0C9C028
:101E3000C11581E0D80708F068C0C83ED10510F789
:101E4000CE01DF91CF911F910895C03682E5D8076A
:101E500018F5C03482E5D80708F079C0C03282E5B1
:101E6000D80708F06DC0C11582E5D80708F48FC007
:101E70002C2F2695269580E2289F900111248C2FE7
:101E80008370C1E0D0E002C0CC0FDD1F8A95E2F77D
:101E9000C22BD32BDD68D4CFC03C82E5D807F8F441
:101EA000C03A82E5D80708F067C0C03882E5D80795
:101EB00008F0A8CF2C2F26952695277080E2289F22
:101EC000900111248C2F8370C1E0D0E002C0CC0FB0
:101ED000DD1F8A95E2F7C22BD32BDA68B1CFC03E63
:101EE00082E5D80708F08ECFDC2FCC27CC27DF7116
:101EF000C06FD06AA5CFC55AD0E0CC56DE4FC8819E
:101F0000D0E0D0649DCFD0659BCF8D2F0E94CD0DAA
:101F1000182FCE0199270E941C0EC12FD0E0DC2F74
:101F2000CC27CC27DF71C82BD92B8ACFCE0199279C
:101F30000E941C0ECC27DF70C82BD92BD06A80CF13
:101F4000CF71D0E0DC2FCC27C16FD06A79CF2C2F96
:101F500026952695277080E2289F900111248C2FCA
:101F60008370C1E0D0E002C0CC0FDD1F8A95E2F79C
:101F7000C22BD32BDC6864CF8C2F8F710E94CD0DC8
:101F8000C82FD0E0DC2FCC27CC27DF7159CF8C2F86
:101F90008F710E94CD0D55E0D695C7955A95E1F702
:101FA000CF70D0E0DC2FCC27282F30E084FF05C095
:101FB00044E0220F331F4A95E1F7C22BD32BD0699F
:101FC0003FCF8D2F8F710E94CD0D182FCE019927F5
:101FD0000E941C0EC12FD0E0DC2FCC27CC27DF7154
:101FE000C82BD92BD0622CCF80911D059091D404A1
:101FF000981301C008958F5F8770FACFB0E0A0E01A
:10200000E4E0F0E10C944D347C0100911203109156
:1020100013038091100390911103082B192BCFE02B
:10202000D0E0CC24C394D12CBC2EC6010C2E02C00F
:10203000880F991F0A94E2F780239123892B49F492
:10204000219790F7B12C8B2DCDB7DEB7E9E00C943A
:102050006934B7018C2F0E94BE0E0E94DD0E0197DD
:1020600079F3F1CFCF93DF93EC010E94FE0FBE0115
:102070000E94BE0E0E94DD0EDF91CF910895983030
:1020800078F5853068F5E82FF0E085E0989FE00D61
:10209000F11D11249E2F977083E0F695E7958A95A0
:1020A000E1F7EE0FFF1FEE0FFF1FE157FD4F50E06E
:1020B00040E080E0219130E0092E02C0369527955E
:1020C0000A94E2F721703327042E01C0220F0A94EC
:1020D000EAF7822B4F5F5F4F4430510559F708955F
:1020E00080E00895983098F5853088F5E82FF0E085
:1020F00085E0989FE00DF11D11248E2F877041E03F
:1021000001C0440F8A95EAF783E0F695E7958A9532
:10211000E1F7EE0FFF1FEE0FFF1FE157FD4F30E01D
:1021200020E070E05191DF011197CB01022E02C037
:10213000969587950A94E2F7817081958527842387
:1021400085278C932F5F3F4F2430310559F7089531
:10215000CF93DF93EC0180E0209739F0CE0124E0AB
:10216000969587952A95E1F7817090912A0580FBD5
:1021700097F990932A050E947E0DD0931303C09384
:102180001203DF91CF91089521E030E002C0220FC9
:10219000331F8A95E2F72095309580911203909134
:1021A0001303822393230E94A810089521E030E0B6
:1021B00002C0220F331F8A95E2F78091120390919B
:1021C0001303822B932B0E94A81008959093110360
:1021D000809310030895FC0184818823F9F087819E
:1021E0009085009791F00E94DD0E92959F70963039
:1021F000B9F080F4925F9F70923080F4803F19F0C4
:1022000058F4883E58F481E00895808191810E94BD
:102210003210EBCF9A5FEFCF843FA9F380E00895AF
:10222000883E88F3813FD1F7EECFA6E0B0E0EBE146
:10223000F1E10C9453349C01FC0187819085009757
:10224000E1F486E0DE01119601900D928A95E1F7A6
:10225000F901258189819A81222399F0662389F0E9
:102260000E94FE0F182F682F89819A810E94721098
:1022700069817A81812F0E94BE0E2696E3E00C943C
:102280006F340E943F10182FF3CF40E060E08FEFD3
:102290000E9462080E94D91181E008958091AC02E9
:1022A0000E94CD0D982F927281E009F480E008958C
:1022B0000F931F93CF93DF938B01EA0190919904C1
:1022C000943061F58093E9008FEF9091E8008150A0
:1022D00095FD06C095ED9A95F1F700008111F5CFB7
:1022E0008091E80085FF1AC00E946903811111C026
:1022F0008091E80085FD06C08091E8008E7780938C
:10230000E800F2CFF80181918F018093F1002197CD
:1023100079F78091E8008E778093E800DF91CF9184
:102320001F910F91089543E050E0BC0183E00E94AB
:102330005811089545E050E0BC0182E00E94581118
:102340000895CF93DF93EC0148E050E0BC0181E0B9
:102350000E94581188E0FE01AFE8B4E001900D92B0
:102360008A95E1F7DF91CF91089581E08093E000B5
:1023700080E28093D8001092C9008FE19EE401971B
:10238000F1F700C0000087E090EBDC0180932D05A1
:1023900090932E05A0932F05B093300588E19CE023
:1023A0000FB6F894A895809360000FBE90936000DC
:1023B000FFCF3BB1377F2BB128604FB7F8948EE940
:1023C00093E0FC015191CF0168E02BB9000000C0FF
:1023D00057FF3BB9550F000000C000C000C03BB91B
:1023E00000C06A9591F7F4E08A309F0751F74FBF1C
:1023F0008FE594E00197F1F700C000000895B0E088
:10240000A0E0E5E0F2E10C944C347C015B016A0150
:102410008091010301E010E08A3010F40AE010E03E
:10242000C1E0D0E0B501C701F6010995811104C0F2
:1024300021960C171D072CF4CDB7DEB7EAE00C94FB
:102440006834CC9F9001CD9F300D300D112490E069
:1024500080E045E34A95F1F7000001968217930763
:10246000C1F7E0CFCF9328E030E043E060E080EFB9
:102470000E94A133C82F811105C00E9416348C2FF1
:10248000CF91089585E08A95F1F70000F8CFA2E09A
:10249000B0E0EDE4F2E10C945134182FF62E0E94D6
:1024A0003212082F811106C000E0802F2296E5E04D
:1024B0000C946D34103549F08091A604E3EAF4E001
:1024C000882311F0E4EAF4E0108210681983FA829C
:1024D00062E070E0CE0101960E94E633892B21F77D
:1024E0008AEB8A95F1F700C00E94163483E492E0EB
:1024F0000197F1F700C00000D8CF60E08436910565
:1025000050F067E784342FE2920728F464E670E025
:102510000E947B3461508FE00E9447120895CF9350
:10252000C82F0E9432128823C9F08C2F0E94B63324
:102530008FE792E00197F1F700C000000E94CE33D0
:10254000C82F95E09A95F1F700000E94163485E6B1
:102550008A95F1F700008C2FCF910895C0E0FBCF52
:10256000CF938FE00E948F12C82F682F8FE00E94B8
:102570004712CF5F24E6C29FC0011124CF91089576
:10258000CF939091370380912803981323C08091B3
:102590003803882321F09091290389131BC080916F
:1025A0003903882321F090912A03891313C0809165
:1025B0003B03882321F090912C0389130BC0909149
:1025C0003A03992329F081E020912B03291303C0BA
:1025D00080E001C081E0C82FC17080FF0CC0E09195
:1025E0008504F0918604309731F00680F781E02D64
:1025F00087E393E009959091370385E0E7E3F3E003
:10260000DF01282F1D922A95E9F790933703A8E25E
:10261000B3E001900D928A95E1F781E0C11103C00A
:10262000911101C080E08170CF910895A9E1B0E0DF
:10263000ECE1F3E10C9454348091A504811105C0C0
:1026400080E06996E2E00C94703460913C037091F4
:102650003D0380913E0390913F030E94A504672BA8
:10266000682B692B69F30E94D00460933C0370933C
:102670003D0380933E0390933F038091A604811114
:10268000E8C040913703509138036091390370914D
:102690003A0380913B030E944D14209337033093FB
:1026A00038034093390350933A0360933B0385E02A
:1026B000E7E3F3E0DE01169601900D928A95E1F7CB
:1026C0009091380391959F8385E0FE013696DE0157
:1026D000509601900D928A95E1F785E0FE01709683
:1026E000DE01119601900D928A95E1F785E0FE01D9
:1026F0003196A7E3B3E001900D928A95E1F785E06A
:10270000E7E3F3E0DE01559601900D928A95E1F73B
:10271000809138034091390360913A0350913B0313
:102720002091A504222309F46BC020912A0526FFDD
:102730003FC020912F0330913003290F311D97FDA9
:102740003A953093300320932F0380912D0390917D
:102750002E03840F911D47FD9A9590932E0380932D
:102760002D03F90137FF04C0EE27FF27E21BF30B0F
:1027700037974CF05FEF121613060CF451E01092ED
:10278000300310922F039C0197FF04C022273327A8
:10279000281B390B273031054CF06FEF181619063E
:1027A0000CF461E010922E0310922D0340E080E0C3
:1027B0008E8B4F8B688F598F95E0FE017596DE01E9
:1027C0001B9601900D929A95E1F795E0FE013B96DC
:1027D000DE01119601900D929A95E1F795E0FE01C8
:1027E0003196DE01169601900D929A95E1F795E0EB
:1027F000FE013696DE01559601900D929A95E1F70D
:102800008E8B4F8B688F598F85E0FE017596DE01A8
:10281000169601900D928A95E1F785E0FE013696B5
:10282000DE011B9601900D928A95E1F785E0FE018D
:102830003B96A7E3B3E001900D928A95E1F70E94E1
:10284000C012811110C08091310381701092310348
:10285000F8CE85E0E2E3F3E0A7E3B3E001900D9268
:102860008A95E1F724CF81E090E0EFCF2FE2280FA7
:10287000283078F481E090E001C0880F2A95EAF7CB
:1028800020913703662331F0822B809337030E9417
:10289000C012089580958223F8CFA6E1B0E0E3E569
:1028A000F4E10C9452344A8B5B8B6C8B7D8B8E8B5A
:1028B0008E01095F1F4F86E0F80111928A95E9F7B2
:1028C0008091A6048823A1F18091A40481113DC0C8
:1028D00060E080E50E94471281112DC086E0FE0174
:1028E0003796DE01119601900D928A95E1F786E008
:1028F000FE013196DE01179601900D928A95E1F75F
:102900008F8183FF4FC085E0FE017296DE011D9628
:1029100001900D928A95E1F72D853E854F85588966
:10292000698970E080E090E06696E4E00C946E3493
:102930008091A304CBCF8091A604E3EAF4E088233E
:1029400011F0E4EAF4E081E080830E9432128823EF
:1029500029F280E50E94B633FAEBFA95F1F700C050
:1029600066E070E0C8010E94FE338F81877049F0F5
:102970008091A604E3EAF4E0882311F0E4EAF4E0AD
:1029800010820E94163489859A85919581959109C6
:102990009A8789878B859C859195819591099C87DC
:1029A0008B879CCF898187FD03C010924203ABCFF8
:1029B0002B813C818D819E8140914203411103C056
:1029C00041E04093420320384FEF34078CF0203829
:1029D000310514F02FE730E08038EFEF9E0754F018
:1029E0008038910514F08FE790E02B8B8C8B8BCF88
:1029F00020E8F2CF80E8F9CF0E9411330E94321212
:102A0000882309F44CC025ED2A95F1F700000E94B7
:102A1000163485ED8A95F1F700006AE58AE30E9495
:102A200047128823E1F19FEF20E782E09150204098
:102A30008040E1F700C0000082E00E948F1283E036
:102A40000E948F1284E00E948F1285E00E948F12F4
:102A500086E00E948F120E9416348FE39CE9019752
:102A6000F1F700C000006FE08FE00E9447128FE98D
:102A70009FE00197F1F700C0000060E080E10E9454
:102A8000471267EE81E10E94471262E083E60E94EE
:102A9000471280E00E948F128FE30E948F120895E8
:102AA0008091AC0290910C04892B8093860248E0BF
:102AB00050E06DEA72E086E892E00E940535892BCD
:102AC000A9F088E0E6E8F2E0ADEAB2E001900D920C
:102AD0008A95E1F7E0918504F0918604309731F012
:102AE0000280F381E02D86E892E009950895109226
:102AF000AC02E8E8F2E086E0DF011D928A95E9F792
:102B000090E080E00E941E0590E080E00E94F904C1
:102B100010920C040E9450150895AAE2B0E0E3E977
:102B2000F5E10C9453348BE994E02091F100DC0141
:102B30002D93CD01B4E0833A9B07B9F780919C04B3
:102B4000833009F472C0B8F4813009F449C082308E
:102B500009F4B7C08091E80083FF3FC180919B04D6
:102B600090919C049A3008F038C1E92FF0E0E852C7
:102B7000FA4C0C94A3348A3009F492C08B3009F4D7
:102B800071C0893039F780919B04813219F78091A7
:102B90009F049091A004009711F00297D9F68091BC
:102BA000E800877F8093E8008091E80082FF38C0CA
:102BB0009091F3008091F200029731F48091F1003E
:102BC000813011F0863021F48091F10080938801EA
:102BD0008091E8008B778093E8000E949A03BACF37
:102BE00080919B04813A09F0B5CF8091E800877FFE
:102BF0008093E80080919F049091A004892B61F458
:102C000068E08FE894E070E00E9446048091E8005C
:102C10008B778093E8009ECF60E090E080E0F3CF78
:102C2000809199048111C0CF95CF80919B04813A06
:102C300009F090CF80919F049091A004892B09F016
:102C400089CF8091E800877F8093E8008091E80039
:102C500080FFFCCF809189018093F1008091E80092
:102C60008E77B9CF80919B04813209F073CF809128
:102C70009F049091A004892B09F06CCF8091E8000B
:102C8000877F8093E8000E949A0381E090919D04E1
:102C9000911101C080E0809389010E9477155ACF7D
:102CA00080919B04813209F055CF8091E800877FA5
:102CB0008093E8000E949A0380919E04809387018C
:102CC00049CF80919B04813A09F044CF8091E8007C
:102CD000877F8093E8008091E80080FFFCCF80919F
:102CE0008701BACF803899F0823809F076C0809198
:102CF0009F048F70873008F070C08093E900809146
:102D0000EB0085FB882780F91092E90006C08091CE
:102D1000970490919804911182609091E800977FB8
:102D20009093E8008093F1001092F1008091E80008
:102D30008E77B3C1882309F4A0C1823009F04DC059
:102D400080919D048111A4C180919F048F702FEF09
:102D5000280F263008F041C08093E9002091EB0055
:102D600020FF96C1933031F48091EB008062809314
:102D7000EB008EC19091EB0090619093EB0021E00D
:102D800030E001C0220F8A95EAF72093EA00109202
:102D9000EA008091EB008860EACF81111EC010919B
:102DA0009D041F778091E3008078812B8093E3005E
:102DB0008091E800877F8093E8000E949A038091C9
:102DC000E80080FFFCCF8091E30080688093E300FF
:102DD00082E0111183E0809399048091E80083FFE1
:102DE0000AC08091E800877F8093E8008091EB0023
:102DF00080628093EB00AA96E3E00C946F348058D5
:102E0000823058F720919D0430919E042C3DE3E0E0
:102E10003E07A1F583E08A838AE289834FB7F8945D
:102E2000DE01139620E03EE051E2E32FF0E0509304
:102E30005700E49120FF03C0E295EF703F5FEF7011
:102E40008E2F90E0EA30C0F0C7968D939D932F5F50
:102E5000243159F74FBF8091E800877F8093E800C5
:102E60006AE270E0CE0101960E9446048091E8007B
:102E70008B778093E800B1CFC096E7CF80919F0415
:102E80009091A004432F55274330510509F44AC0BF
:102E900078F54130510509F47AC084E590E0E3EC1F
:102EA000F4E04230510509F098CF2091E800277FE7
:102EB0002093E8002091A1043091A2048217930787
:102EC00008F49C0140E02115310509F065C041116D
:102ED00063C08091E80082FDC9CF80919904882366
:102EE00029F2853019F28091E80083FFF2CFBECF3E
:102EF0004132510509F43CC04232510509F06DCF11
:102F00008330910508F069CFFC01EE0FFF1FED51F2
:102F1000FE4F0190F081E02D80529E4FDC018C919C
:102F200090E01AC0332721303105D1F02115310549
:102F300061F02230310509F050CFE9E2F5E0E4918B
:102F40008E2F90E0E9E2F5E007C0EBE8F5E0E491D0
:102F50008E2F90E0EBE8F5E0009709F43ECFA5CF87
:102F6000E5E6F5E0E4918E2F90E0E5E6F5E0F4CFBC
:102F70008330910508F031CF880F991FFC01E7518C
:102F8000FE4F0190F081E02D89E090E08ECF82E14C
:102F900090E0E7E1F5E089CF80919904882309F476
:102FA00065CF853009F462CF8091E80083FD5ECF64
:102FB0008091E80082FD8DCF8091E80080FF83CF73
:102FC0009091F3008091F2002115310519F08830BD
:102FD000910550F041E0089709F040E08091E80049
:102FE0008E778093E8006FCF44914093F100319643
:102FF000215031090196E8CF803809F0EECE80915A
:10300000E800877F8093E80080919A048093F10024
:103010008DCE8111E2CE10919D04123008F0DDCEEC
:103020008091E800877F8093E80010939A040E94C3
:103030009A03112311F084E005C08091E30087FD1D
:10304000FACF81E08093990442E061EC81E00E9434
:10305000B90342E161EC82E00E94B90342E261EC13
:1030600083E00E94B90380919904843021F081E0CB
:1030700080938A01B2CE82E0FBCF80919D048130A3
:1030800009F0ABCE81E0933009F080E080939804A2
:103090001092E9008091E800877F8093E8000E9409
:1030A0009A039BCE0E94771580E00E9445112FEF76
:1030B00084E39CE0215080409040E1F700C0000094
:1030C00088E19CE00FB6F894A895809360000FBE4D
:1030D00090936000FFCF882341F080959091AC02DF
:1030E00089238093AC020E9450150895882339F0FB
:1030F0009091AC02982B9093AC020E9450150895C9
:10310000882309F442C09CEF980F913A80F4E8E8D4
:10311000F2E02EE832E09191891303C0DF011197AC
:103120001C922E173F07B9F70E945015089590E2A0
:10313000980F983088F4877021E030E0A90102C030
:10314000440F551F8A95E2F7CA0180959091AC0211
:1031500089238093AC02E8CF9BE5980F933028F445
:1031600090E080E00E941E05089598E5980F9B313D
:1031700028F490E080E00E94F904089593E3980F0A
:10318000933118F460E00E9436140895CF93C82F4D
:103190008823B1F08CEF8C0F813A00F5E8E8F2E07B
:1031A0008EE892E0DF012D91C21761F08A179B072C
:1031B000D1F76C2F86E892E00E94DF040E94501540
:1031C000CF9108952191C21303C0DF0111971C9282
:1031D0008E179F07B9F70E945015EBCF80E28C0F36
:1031E000883068F4C77021E030E001C0220FCA9532
:1031F000EAF78091AC02822B8093AC02DFCFEBE543
:10320000EC0FE33040F4F0E0EC56FE4F808190E0AC
:103210000E941E05D5CFE8E5EC0FEB3150F4F0E04D
:10322000EE0FFF1FE956FE4F808191810E94F90445
:10323000C7CF83E38C0F833118F661E08C2F0E9497
:103240003614BECF90912A059F70811115C08FEF63
:10325000980F9F7080912A05807F982B90932A0564
:103260000E947E0D40912A0550E070E060E08FE002
:1032700090E00E946135089581E0EACF90912A059F
:1032800092959370811117C08FEF980F937092955C
:10329000907F80912A058F7C982B90932A050E941D
:1032A0007E0D40912A0550E070E060E08FE090E0F4
:1032B0000E946135089581E0E8CFA4E0B0E0E3E644
:1032C000F9E10C9453346091EF027091F002809117
:1032D000F1029091F2020E94A50411E0643671059A
:1032E0008105910570F10E94B30D6E5F7F4F8F4F86
:1032F0009F4F69837A838B839C8380911D0190917A
:103300001E018F529D4F40911C0150E045305105E8
:1033100010F044E050E0BE016F5F7F4F0E94123515
:1033200083E090E00E949B32182F882351F00E9486
:10333000D0046093EF027093F0028093F1029093B7
:10334000F202812F2496E3E00C946F34B0E0A0E009
:10335000ECEAF9E10C944E34C82F7B01D42F6901BB
:10336000FB0160817181828193810E94A504643692
:1033700071058105910510F4DD2359F10C2E000C27
:10338000DD0BFE0183E0EE0FFF1F8A95E1F7EC5F96
:10339000FE4F818192818F529D4F408150E00417F2
:1033A000150708F4A801B6010E941235CE010E944B
:1033B0009B32C82F882339F00E94D004F701608324
:1033C0007183828393838C2FCDB7DEB7E8E00C94B2
:1033D0006A34C1E0F8CFA9E0B0E0E1EFF9E10C9484
:1033E000523488E0E2E2F5E0DE01119601900D92A0
:1033F0008A95E1F780919D03898749E050E06EED61
:1034000072E0CE0101960E94053541E0892B09F456
:1034100040E009E010E09E012F5F3F4F63EF72E054
:1034200084E00E94A6192996E4E00C946E340F9370
:103430001F93CF93DF93EC0144E050E066ED72E020
:103440000E94053541E0892B09F440E004E010E0DA
:103450009E016DEC72E082E00E94A619DF91CF918F
:103460001F910F9108954F925F927F928F929F923A
:10347000AF92BF92CF92DF92EF92FF920F931F9382
:10348000CF93DF930F92CDB7DEB7C62E4A01590115
:10349000482E880F5508C2010E949B32782E88233F
:1034A00009F473C0C20133E0880F991F3A95E1F720
:1034B000FC01EC5FFE4F438150E04115510511F0D6
:1034C00041E050E08C5F9E4FFC01648175816F523A
:1034D0007D4FCE0101960E941235F4016081718109
:1034E000828193810E94A50464367105810591054E
:1034F00040F4B701C8010E9454059981891709F465
:1035000044C00C2C000CDD08C6010E949B32782EB2
:10351000811113C0712C872D0F90DF91CF911F91D6
:103520000F91FF90EF90DF90CF90BF90AF909F9062
:103530008F907F905F904F900895C60123E0880F91
:10354000991F2A95E1F7FC01EC5FFE4F438150E0A3
:10355000E416F50608F4A7018C5F9E4FFC01648118
:1035600075816F527D4FC5010E941235B701C801A8
:103570000E94540599818913CDCF0E94D004F40193
:103580006083718382839383C6CFA701B801C5018D
:103590000E941235C0CFAAE0B0E0E1EDFAE10C9450
:1035A00050348091A604882309F449C085E0E82EB0
:1035B000F12C08EE12E09E012A5F3F4F4DEF52E0E2
:1035C00066E085E00E94331A882391F095E0FE01C1
:1035D0003696DE01119601900D929A95E1F795E0ED
:1035E000FE013196A2E3B3E001900D929A95E1F7C6
:1035F000E0904003F0904103E114F104E1F0F09217
:10360000EE02E092ED0241E08091FB029091FC021B
:103610008E159F0509F440E002E010E02DEE32E047
:1036200067EF72E087E00E94A619882321F0F092EC
:10363000FC02E092FB022A96E6E00C946C3481E0F6
:10364000FACFA4E0B0E0E7E2FBE10C944E346B016A
:1036500084E0E82EF12C02ED12E09E012F5F3F4F37
:1036600049EC52E061E080E00E94331A882361F067
:1036700049815A816B817C814093C5025093C60277
:103680006093C7027093C8024091C5025091C60270
:103690006091C7027091C802F60140835183628332
:1036A00073832496E8E00C946A341F920F920FB64D
:1036B0000F9211242F933F934F935F936F937F93B8
:1036C0008F939F93AF93BF93CF93DF93EF93FF932A
:1036D000D091E900DF708091EC00C82FC17080FDAF
:1036E000C0E81092E9008091F000877F8093F0009D
:1036F00078940E948D151092E9008091F000886006
:103700008093F000CD2BCF70C093E900FF91EF9133
:10371000DF91CF91BF91AF919F918F917F916F91E9
:103720005F914F913F912F910F900FBE0F901F907F
:1037300018951F920F920FB60F9211242F933F935B
:103740004F935F936F937F938F939F93AF93BF93A9
:10375000EF93FF938091E10082FF09C08091E20026
:1037600082FF05C08091E1008B7F8093E100809112
:10377000DA0080FF24C08091D80080FF20C08091B3
:10378000DA008E7F8093DA008091D90080FFAAC092
:1037900080E189BD82E189BD09B400FEFDCF81E0F1
:1037A0008093990480918E04811109C00E944A037C
:1037B0000E94EB038091E20084608093E20080919C
:1037C000E10080FF1AC08091E20080FF16C0809166
:1037D000E2008E7F8093E2008091E200806180931E
:1037E000E2008091D80080628093D80019BC85E007
:1037F0008093990483E080938A018091E10084FFA3
:1038000030C08091E20084FF2CC080E189BD82E15C
:1038100089BD99B5892F817090FFFBCF9091D80019
:103820009F7D9093D8009091E1009F7E9093E1005E
:103830009091E2009F7E9093E2009091E20091606F
:103840009093E20090919A04992309F451C094E076
:103850009093990490919904943009F482E08093B4
:103860008A018091E10083FF2CC08091E20083FFF8
:1038700028C08091E100877F8093E10082E08093FF
:10388000990410929A048091E1008E7F8093E10068
:103890008091E2008E7F8093E2008091E20080615F
:1038A0008093E20042E060E080E00E94B9038091F2
:1038B000F00088608093F00081E080938A0180931B
:1038C0008901FF91EF91BF91AF919F918F917F916E
:1038D0006F915F914F913F912F910F900FBE0F907D
:1038E0001F90189519BC1092990410928E0467CFFE
:1038F0009091E30097FD02C0982FAACF93E0A8CF44
:1039000078941F921FB61F9211248F939F93AF93A9
:10391000BF9380918A0490918B04A0918C04B09104
:103920008D040196A11DB11D80938A0490938B0490
:10393000A0938C04B0938D04BF91AF919F918F9110
:103940001F901FBE1F9018952FB7F89480918A047E
:1039500090918B04A0918C04B0918D042FBF089599
:103960000F931F93CF93DF93C62FD42F022FFC0109
:1039700085818823A9F0609320050E94A41C909360
:103980001F0580931E05C77081E001C0880FCA958E
:10399000EAF70E947618DF91CF911F910F91089559
:1039A00080912005681335C080911E0590911F05F8
:1039B0000E94C104883C910560F510E21D0FCD17EF
:1039C000B9F080E28C0F883040F4C77081E001C00C
:1039D000880FCA95EAF70E946B18183048F481E006
:1039E0009D2F977001C0880F9A95EAF70E9476186C
:1039F000802F0E94C618802F0E948018183058F619
:103A0000D77081E001C0880FDA95EAF70E946B1841
:103A1000C2CFC77081E001C0880FCA95EAF7F6CF20
:103A2000EF92FF920F931F93CF93DF938C01DC01F2
:103A300014968C91882309F467C061E0C8010E9444
:103A40001511EC017C01BEE7FB1AE8E0EE16F1046B
:103A500080F4F701EE51FA4CD80115968C910C9434
:103A6000A334882331F00E944E1191E089270E94EF
:103A70002219B0E4EB16F10408F462C0FE01E8512B
:103A8000FC47E730F10508F05BC0E651FA4C0C94B6
:103A9000A334882371F30E944E11E9CF882349F3A0
:103AA0000E944E1191E089270E943E19E2CF88239F
:103AB00001F30E944E11F8CF90912A0580FB97F9EF
:103AC00090932A050E947E0DD4CF882391F2909185
:103AD0002A05892F97FB87F9805880932A05F2CF12
:103AE00090912A0580FB96F9EBCF882311F29091F3
:103AF0002A05892F8F7B96FF8064EFCF26E241EE67
:103B000061EEC8010E94B01CCDB7DEB7E6E00C94B0
:103B10006C3427E245EE65EEF4CF26E241EE60EE2E
:103B2000F0CF27E245EE64EEECCF26E241EE62EE06
:103B3000E8CF27E245EE66EEE4CF28E241E0EBCFA6
:103B4000F8019581992309F42DC3109220059E0157
:103B500030572332310508F00FC384E090E00E9413
:103B600039359093150380931403FE01E150F0471B
:103B7000E232F10520F4EF50FA4C0C94A33480911A
:103B8000140381608093140395C0809115038860AD
:103B9000809315038FC0809114038260F3CF8091CE
:103BA00014038460EFCF809114038860EBCF809181
:103BB00015038160EDCF809115038260E9CF80917C
:103BC00014038061DFCF809114038062DBCF80918A
:103BD00014038064D7CF0E94771580911403806806
:103BE000D1CF809114038C60CDCF80911503836079
:103BF000CFCF809114038E7FC5CF80911503877F2F
:103C0000C7CF809114038D7FBDCF809114038B7F2C
:103C1000B9CF80911403877FB5CF809115038E7F34
:103C2000B7CF809115038D7FB3CF809114038F7E22
:103C3000A9CF809114038F7DA5CF809114038F7B32
:103C4000A1CF0E947715809114038F779BCF80912D
:103C50001403837F97CF809115038C7F99CF809138
:103C6000140382FB992790F921E0922790FB82F9B7
:103C700090FB83F987CF80911503982F90959170D1
:103C80008E7F892B90FB81F983CF90911403892F2C
:103C90008F7B96FF806476CF0E94771590911403F6
:103CA000892F97FB87F980586DCF61E08EE090E017
:103CB0000E944F35609114037091150384E090E0E9
:103CC0000E946D350E9477151FCF60E0EFCF909175
:103CD0001403892F8F7E94FF806154CF9091140339
:103CE000892F8E7F90FF81604DCF90911503892F92
:103CF000877F93FF88604CCF85E35DC20E943506C5
:103D000003CF8823A9F10E942006FECE8823A9F1C3
:103D10000E940C06F9CE8823A9F10E94F205F4CE88
:103D20008823A9F10E94D805EFCE8823A9F10E942B
:103D3000BC05EACE80912205837011F410928E01A9
:103D4000809122058C7F81608093220580912105DE
:103D5000816080932105D8CE80912205837011F077
:103D600010928E01809122058C7FEECF882359F22C
:103D70000E942A06C9CE882359F20E941606C4CE94
:103D8000882359F20E94FF05BFCE882359F20E9472
:103D9000E505BACE882359F20E94CA05B5CE9E0128
:103DA000205E324520323105A8F4911115C0CF7143
:103DB00081E090E0DC0102C0AA0FBB1FCA95E2F7C8
:103DC000ED016A2F83E090E00E944F35CE010E9402
:103DD000E6109ACE992319F1C130BCE7DB07E9F070
:103DE000C330ECE7DE0799F0C115DC47C1F40E944F
:103DF000771581E00E9445112FEF34E38CE02150CC
:103E000030408040E1F700C000000E94B5116FEF24
:103E10007FEF90E080E00E946D350E945218D8013B
:103E200017962D913C9121153105C9F0C9010E94C9
:103E3000DD0EC82F292FD80115966C91159716966F
:103E40003C9132953F7092959F70E92EF12C9C30F9
:103E500008F050C0F701ED5EF94C0C94A334F80162
:103E6000C081D181992369F0CE010E94FE0FF82E06
:103E7000682FCE010E947210BE018F2D0E94BE0ECF
:103E8000D6CFCE010E943F10F82EF6CFD22FDF7092
:103E9000207F11F0D295D07F6623C9F0DD2369F031
:103EA00080E28C0F883010F0C1110BC08091AC0201
:103EB000D82BD093AC020E9450158C2F0E94C618AC
:103EC00019C080910C04D82BD0930C04F4CF8C2F04
:103ED0000E948018DD2371F0D09580E28C0F88302D
:103EE00010F0C11115C08091AC02D823D093AC0260
:103EF0000E94501598E0E91AF108A4E0EA16F104CE
:103F000010F40E94430560E0C8010E941511FCCD29
:103F100080910C04D823D0930C04EACF822F8F70A9
:103F2000207F203211F08295807FC13061F46623BA
:103F300029F03630F8F60E947618DCCF3530D0F60E
:103F40000E946B18D7CF662319F03323A1F3B5CFA6
:103F50003323B1F3C93349F4BFEFE7EEF3E0B150D7
:103F6000E040F040E1F700C000008C2F0E94801874
:103F7000C1CF822F86958695837069F0813009F0D4
:103F8000B9CF8C2F922F9370611102C080E090E026
:103F90000E94F904AFCF8C2F922F9370611102C051
:103FA00080E090E00E941E05A5CF8C2F0E94361461
:103FB000A1CF822F837009F03FC061119BCF3C2FAE
:103FC000329536953770330F330F4C2F4F7050E0CA
:103FD000032E02C0440F551F0A94E2F790E080E0E0
:103FE000C4FF09C08FE090E002C0880F991F3A9586
:103FF000E2F780959095269526952370223099F0CA
:1040000078F46091100370911103213039F0842B02
:10401000952B862397230E94E6106CCF462B572BB7
:10402000842B952BF8CF842B952B20911003309166
:10403000110382279327EFCF8695662311F0822FF5
:104040008170882309F456CF3C2F3295369537700E
:10405000330F330F4C2F4F7050E0032E02C0440F2C
:10406000551F0A94E2F790E080E0C4FF09C08FE09A
:1040700090E002C0880F991F3A95E2F780959095DD
:10408000269526952370223099F078F460911203DA
:1040900070911303213039F0842B952B86239723BD
:1040A0000E94A81027CF462B572B842B952BF8CF97
:1040B000842B952B20911203309113038227932791
:1040C000EFCFD22FDF70662329F08D2F0E94D610FC
:1040D0008C2F31CF8C2F0E946B188D2F0E94C41013
:1040E00009CFC13F69F148F4C03FC1F06623A1F197
:1040F0003111E3CE822F8F7127C0C23F41F1C33F00
:10410000A9F790E080E0662359F22F7181E090E0FA
:1041100002C0880F991F2A95E2F7C2CF662361F08B
:10412000353008F0E7CE2F7181E090E002C0880FB3
:10413000991F2A95E2F7BECF363008F0DBCEF3CFD9
:10414000822F8F71662351F20E94D610D3CE822F18
:104150008F716623C9F3C2CF332359F0C93309F0F5
:1041600004CF2FEF37EE83E0215030408040E1F75D
:10417000FACE822F8F71B2CF8091AC02C631BCE7EC
:10418000DB0731F58A7A91E009F490E090938E0292
:1041900069E2811165E386E892E00E94DF040E94F3
:1041A0005015B2CCC631ECE7DE07F1F480918E02F7
:1041B0008111A2CD89E2E8E8F2E09191891303C070
:1041C000DF0111971C9222E0EE38F207B1F7E7CF3A
:1041D0008272FE01E052F847EB30F10508F0DFCDC6
:1041E000E15EF94C0C94A3348091AC028272FE0122
:1041F000E054F847ED30F10508F0D1CDE65DF94C1B
:104200000C94A334CF93DF938091A902807F09F0AF
:104210004DC08091A802882309F448C0E0911D0593
:104220005091D404C091A402D091A3026091A50240
:104230007091A60249E05E17C9F18E2F90E0E49FCD
:10424000F0011124EB52FB4F2481222391F1489F6E
:10425000F001499FF00D1124DF01AB52BB4F1196C5
:104260002C9111972C1325C02C912D1322C015963B
:104270002C91159721111DC012962D913C91261B52
:10428000370B283C3105A8F48091A9028F7080611A
:104290008093A902E552FB4F80818F7080618083FB
:1042A00083EA92E00E94101D0E94F40FDF91CF91EB
:1042B0000895FC013196E770BECFA8E1B0E0E3E6D7
:1042C000F1E20C944A348C0186E0F801DE01539649
:1042D00001900D928A95E1F7F8018481E58093EAD7
:1042E000A92E92E0B92E9091A702911128C088239F
:1042F00019F1EE20F1F0C8010E94EB10F82E88238E
:10430000C1F089E0F801D50101900D928A95E1F79D
:104310008091A702813031F48091A3029091A40290
:104320000E9432100E9402218F2D6896ECE00C94BE
:104330006634C8010E94101DFF24F394F5CFD0808D
:10434000C18082809380F090A8022091A5023091D4
:10435000A602A401421B530BFF2009F40DC1483CE7
:10436000510508F0B6C08823F9F29091A40280911B
:10437000A902282F207F09F05FC0C9121DC09091AB
:10438000A302D91219C04091AA025091AB02278111
:1043900030854217530781F4E11048C08F70806167
:1043A0008093A90283EA92E00E94101D8091A902E5
:1043B000F8018683F12CB8CFE11038C06C2D8D2D1B
:1043C0000E942B036C2D8D2D0E942B03E82E811152
:1043D000F1CFDB8ACC8A8B899C890E943210292FED
:1043E00022952F70243058F49F70223088F0992342
:1043F00099F0F8019681907F79F4FE2C95CF2A5F91
:104400002F70223068F0C8010E94101DEF2CF5CFEC
:10441000992311F0882389F3805E883070F3F3CFFD
:10442000803F58F3815F833070F7E7CF8091A90216
:1044300081608093A902BECFC9121CC09091A302D3
:10444000D91218C04091AA025091AB022781308541
:104450004217530779F4E1100DC08683C8010E940A
:10446000101D89E0F801A3EAB2E001900D928A954F
:10447000E1F75ACFC8010E94EB10882309F459CF05
:10448000EE2009F456CF8091A9028032B8F0209135
:10449000A3023091A4023B872A879D868C86909147
:1044A000A7029E871F86888B8091AA029091AB02FB
:1044B0009A8B898BCE010A960E94101D89E0F80123
:1044C000A3EAB2E001900D928A95E1F70E940221E1
:1044D00033CF9091A902292F207F51F483EA92E0F3
:1044E0000E94101D89E0F50111928A95E9F762CFCB
:1044F000882309F419CF8091A4028C1119C08091EE
:10450000A302D81215C04091AA025091AB02278194
:1045100030854217530761F4E1100AC09683C80141
:104520000E94101D89E0F50111928A95E9F7FCCEF1
:10453000C8010E94EB10882309F4FBCEEE2009F499
:10454000F8CE8091A902803208F4B8CF2091A3025E
:104550003091A4023A8329839C828B829091A70296
:104560009D831E828F838091AA029091AB029987CE
:104570008887CE010196A0CF483C510598F6882344
:1045800009F4DACEFE2CEE2009F4D3CE8091A402F9
:104590008C1120C08091A302D8121CC02091AA02C5
:1045A0003091AB02878190852817390799F4909153
:1045B000A90290FD56CF907F09F453CF8091A902B4
:1045C0008683903F09F44ACF982F907F905F8F7039
:1045D000892B43CFC8010E94EB1081116FCF8091CE
:1045E000A90281608093A902C8010E94101D9CCE7F
:1045F000A2E1B0E0EEEFF2E20C9452340A871B879E
:104600002C873D874E875F87688B798B8A8BCE019D
:104610000A960E945D2181110CC089E0FE013A9644
:10462000DE01119601900D928A95E1F78E85811138
:104630000BC019E080911D059091D404891331C0FD
:104640006296E4E00C946E342091D40430E0C90109
:1046500001968770992740911D054817190699F012
:1046600099E0929FD001939FB00D1124AB52BB4FA4
:10467000FE01319601900D929A95E1F78093D40452
:104680000E94F40FD6CF0E9477151092D404109296
:104690001D0589E0E3EAF2E0DF011D928A95E9F762
:1046A000C8CF819FC00111248B529B4F0E945D2176
:1046B000882331F280911D0590E00196877099273B
:1046C00080931D05B7CFEF92FF920F931F93CF9367
:1046D000DF9380910E04882361F0E0910D048DE05A
:1046E000F82E80910E04E81748F010920E041092F4
:1046F0000D04CDB7DEB7E6E00C946C34EE24E39401
:10470000EE0EE0920D04CE2FD0E0EF9DF0011124CB
:10471000E15FFB4F84818823E9F087819085892BB5
:1047200021F481859285019659F4008111812281BD
:104730003381448155816681778180850E94F8228A
:10474000FC9EF001FD9EF00D1124E15FFB4F1482F1
:1047500010920C04EE2DC5CF1092820410928104A9
:10476000109286018091800480937F040E949D05B1
:104770000E9463230895B0E0A0E0E1ECF3E20C9422
:104780004434C0917F0497E0892E01E010E02DE0D1
:10479000922E34E0232E809180048C1309C00E9455
:1047A00063230E949D05CDB7DEB7E2E10C9460342F
:1047B000D0E0FE01EE0FFF1FE958FB4F8081918191
:1047C000B0E0A0E08730910538F4889ED001899E42
:1047D000B00D1124AB5ABE4F14962C911497211191
:1047E00052C030900E044FE054E030E020E0412C05
:1047F000231508F046C0FA01C384D4846D907C90E0
:1048000011976FEF7FEF512CA52CB12CF501EE0F16
:10481000FF1FE60DF71DE590F490CE14DF0409F4B8
:10482000B501E114F10411F05394EECF6F3F760718
:1048300079F1F80102C0EE0FFF1F6A95E2F74E2AE8
:10484000B801052C02C0660F771F0A94E2F7615089
:10485000710946161706D1F412964D915C91139783
:10486000929EF001939EF00D1124E15FFB4F508763
:10487000478324821082118292878187F1E0159606
:10488000FC930E946A052196C37085CFFA011482B9
:104890002F5F3F4F435F5F4FABCFB0E0A0E0E3E55A
:1048A000F4E20C944734D82F809154018D1323C027
:1048B0009091220593702091530130E081E092178E
:1048C000130609F480E0817080938D0180912705A3
:1048D00090918C01981739F080938C0140E060E052
:1048E00080E00E946208DA3260F4ED2FF0E0E95CCB
:1048F000F94C0C94A33481E0E6CF80918D018111B5
:1049000002C080E051C040E060E080E00E946208A8
:10491000F8CF80918B010E944306082FC92F609128
:10492000230570912405809125050E94270AF62E03
:10493000E72ED82E10E00C1710F08C2F33C0F801A2
:10494000E15AFD4F808190918C01892331F02D2D0A
:104950004E2D6F2DC8010E9457080F5F1F4FEBCFE0
:1049600080918B010E944306082FF92EE0902405C8
:1049700010912505C09123056C2F7E2D812F0E945B
:10498000270AD62EC72EB82E609126056C0F7E2DD5
:10499000812F0E94270AC62FE72EA82E10E00F15A0
:1049A000D8F08F2D0E94190A90918B019F5F9093F0
:1049B0008B0181110CC082E080938E0180918D016A
:1049C000811105C0D11103C083E080938E01CDB762
:1049D000DEB7EFE00C946334F801E15AFD4F9081AB
:1049E00080918C01892359F02A2D4E2D6C2F90FD3A
:1049F00003C02B2D4C2D6D2DC8010E9457080F5F51
:104A00001F4FCDCF80918B010E944306F92EE0907D
:104A10002405D090250520912605C0E43C2F329F27
:104A2000312D1124C32F082F10E00F1508F0B9CF36
:104A3000F801E15AFD4F808190918C018923B1F0FA
:104A4000F801EE0FFF1FE151FE4F81A582958F7097
:104A5000609123058C9F600D11247E2D8D2D0E9469
:104A6000270A472F282FC8010E9457080F5F1F4FA2
:104A7000DCCF80918B010E944306F92EE090240543
:104A8000D090250520912605C0E44C2F429F412D52
:104A90001124C42F082F10E00F1508F082CFF80161
:104AA000E15AFD4F808190918C018923D1F0F8016A
:104AB000EE0FFF1FE151FE4F60A5C69FB00111240C
:104AC00055E0759567955A95E1F780912305680F34
:104AD0007E2D8D2D0E94270A472F282FC8010E9466
:104AE00057080F5F1F4FD8CF89E899E00E940E0C3E
:104AF0005BCF8EE298E0FACF84E098E0F7CF89E2CE
:104B000099E00E94010D50CF8AE099E0FACF8FEE34
:104B100098E00E949D0C48CF83ED98E0FACF82E0A8
:104B200098E0E4CF89EF97E0E1CF80EF97E0DECF28
:104B300087ED97E0DBCF89EC97E0EBCF87EE99E04C
:104B4000E0CF82EC98E0DDCF8EEA98E0E2CF8CE90E
:104B500097E00E94500C28CF8EE697E0FACF87E3CB
:104B600097E0F7CF80918B010E944306C92F909167
:104B70008D01911120C06091260520E1620F08F49B
:104B80006FEF8091A7049091A8040E940F0A6AE039
:104B900070E00E947B34892B09F0CFCE0E94A209DD
:104BA000A4E28A9FC001112460918C01892F90E0BA
:104BB0000E94B10AC2CE082F10E0EC2EF12C0E1587
:104BC0001F050CF0BACE60918C01C8010E94B10A99
:104BD0000F5F1F4FF4CF80918B0181111CC060913A
:104BE000260520E1620F08F46FEF8091A7049091F1
:104BF000A8040E940F0A65E070E00E947B34892BB4
:104C000051F40E94A209B4E28B9FC0011124909339
:104C100051011092520180918B010E944306192F7D
:104C2000C82F90918D0191111EC02091510130919A
:104C300052018217130609F0C0F412171306A9F0E7
:104C4000A0F060918C01822F0E944E0D85E290E0D1
:104C5000909352018093510108C060918C018C2F78
:104C60000E944E0DCF5FC117C0F3812F9BCE809164
:104C70008B010E944306082FF92EE0902405109125
:104C80002505C09123056091260566956695669574
:104C90008091A7049091A8040E940F0A0E944709DE
:104CA000805887FD8195880F682F2CE0629F612DC9
:104CB00011246C0F7E2D812F0E94270AC62FE72E0C
:104CC000D82E10E00F1508F06CCEF801E15AFD4F18
:104CD000808190918C01892331F02D2D4E2D6C2FE8
:104CE000C8010E9457080F5F1F4FECCF86E699E07E
:104CF000FDCE86E297E0FACE80918B010E944306BA
:104D0000782EA92E80918D01882361F040E060E02B
:104D100080E00E946208E8E4F3E088E2DF011D928F
:104D20008A95E9F780918B01811115C08091440328
:104D3000909145030E94C10421E08931910508F456
:104D400020E020934303499730F00E94A41C9093E5
:104D5000450380934403C12CB12CD12C95E0892EBE
:104D600025E5622E3AEA932E5524539405C0F7E0C8
:104D7000FB1508F456C0D12C2D2D30E08C9C800101
:104D80001124F801E151FE4FE20FF31FE080E71418
:104D900008F43FC0EA1408F03CC0B394F12CF701CA
:104DA000E15AFD4F808190918C01892309F431C033
:104DB000085B1C4F020F131FF801C0813C2F262DEA
:104DC000321B08F430E070912405292D4C2F240F5C
:104DD00008F42FEF40912505822F880F820F8E5FF8
:104DE000282F249F212D1124822F692D631B0E94BF
:104DF000270A472F282FC7010E9457088091430395
:104E0000882339F02C2F352D231B08F420E0D801FE
:104E10002C93D394B5E0DB12AFCFC394E8E0CE126D
:104E2000A6CF8A2DBFCDC091250523E0C29F80016A
:104E300011241695079516950795502EAC2EB12C7A
:104E40008FEF90E0B5010E948F34762E80918D0116
:104E5000882371F040E060E080E00E946208E8E4AE
:104E6000F3E088E2DF011D928A95E9F7109247038B
:104E7000809146038F5F80934603F12CE12CA01AAA
:104E8000B10A6701612CC701885B9C4F4C0180917E
:104E90004703862909F045C00E94F53485359540C1
:104EA0000CF03FC0F401C083F601E151FE4FE081F8
:104EB000EF3FD1F0D601A85BBC4F2C91F0E0521629
:104EC00008F040C030E0201B310B209FC001219F23
:104ED000900D309F900D1124B5010E947B34262F38
:104EE0004C2FCF010E9457086394F5E0CF0ED11CE0
:104EF00028E06212CCCF3FEFE31AF30A45E0E41654
:104F0000F10409F0BECF80914603781202C01092DE
:104F10004603809147038F5F8D31F0F48093470300
:104F2000F0CCF601E85BFC4F8081882309F4BCCF0C
:104F30008C1708F0B9CF909146037912B5CF815004
:104F40008083B2CFC29FC0011124B8010E947B347C
:104F5000462F20E060E0C5CF1092470326E633E0FD
:104F600087E04DE453E09FEF9C0FA8E4B3E0F90124
:104F7000873041F493966C919397C61303C0939630
:104F80009C93939760816C1710F09083C583119662
:104F900031964A175B0761F781502550310981111D
:104FA000E4CFAFCC8FE197E00E94A70BFDCC88E166
:104FB00097E0FACF8091AB0421E0382F321B08F440
:104FC00030E0832F6FEF76E00E94EB0AEDCC6FEFBD
:104FD00076E080E0F9CF8091AB0421E0482F421BBE
:104FE00008F440E0842F64EC76E0EECF64EC76E0E9
:104FF000F0CF8091AB0421E0382F321B08F430E071
:10500000832F62E976E0E0CF62E976E0E2CF80913B
:10501000AB0421E0482F421B08F440E0842F6AE7EC
:1050200076E0D2CF6AE776E0D4CF8091AB0421E07E
:10503000382F321B08F430E0832F64E676E0C4CFCB
:1050400064E676E0C6CF4F925F926F927F928F9226
:105050009F92AF92BF92CF92DF92EF92FF92CF9347
:105060008090990390909A03A0909B03B0909C032A
:105070008091A504882309F44CC0C501B4010E94A5
:10508000A5046B017C010E94B30D4B015C01809271
:10509000990390929A03A0929B03B0929C03A091D3
:1050A0007003E0E7F3E08A2F90E04FEF5FEF60E0FE
:1050B00070E04C195D096E097F09A91333C0809314
:1050C000700380919D03C0E0811108C0809122058A
:1050D000C82FC37019F0C82FC695C69580918E0150
:1050E000813009F449C0882381F1823009F450C02D
:1050F000833009F451C0CF91FF90EF90DF90CF90B3
:10510000BF90AF909F908F907F906F905F904F90E7
:1051100008950E94B30D6B017C01C818D908EA08F4
:10512000FB08B1CF218D328D2901712C612C4415E2
:1051300055056605770520F481509F5F3296BDCFF7
:105140002C0D3D1D328F218FF8CF10928B01809254
:10515000A7049092A804A092A904B092AA0489E29C
:10516000E0E7F3E0ABEAB4E001900D928A95E1F755
:1051700081E080938E01BFCF8C2F0E944D24CC23E1
:1051800009F4B9CF80918B0181500E944306B3CFBF
:105190008C2F0E945706AFCF80912105882351F0B4
:1051A00048E050E067E170E082E295E00E943F3520
:1051B00010922105C090A704D090A804E090A90403
:1051C000F090AA048091A504882369F0C701B60174
:1051D0000E94A504603171058105910508F48BCF0B
:1051E00010928E0188CF0E94B30D6C197D098E0933
:1051F0009F09F0CFA5E1B0E0E0E0F9E20C9448347B
:105200008E01075F1F4F88E0D8011D928A95E9F74C
:105210009FECE92E91E0F92E99249394CC24C39429
:10522000D12C38EDA32E31E0B32EF70181917F010F
:105230008F3F09F447C0F894E82FE295EF70F0E053
:1052400021A18F70A60102C0440F551F8A95E2F775
:10525000CA01922F982B91A392A18095892382A3B2
:10526000789400C084ED682E81E0782ED801692DF5
:105270006095F30191913F018D919D01215031097C
:105280009F3F09F4A4C0492F42954F7050E0FA01A6
:1052900040A150E09F7002C0559547959A95E2F75E
:1052A00040FD95C08929F9018083A614B70409F748
:1052B000F701319780818F3F11F00E949C0DF0EA39
:1052C000FA95F1F7990C24EDE21621E0F20609F0C7
:1052D000ACCF48E050E0B80186E093E00E9405358D
:1052E000009741F028E0F801A6E0B3E001900D92AC
:1052F0002A95E1F700910F0310E00A5E1C4F892BFD
:1053000009F467C081E08093B9020E94A41C9093C5
:10531000B8028093B702F12CE090A504EE2009F4C6
:10532000B7C019821A821B821C82809101038A30C5
:1053300008F073C041E25BE1BE016F5F7F4FC801BF
:105340000E94FF11882309F492C047E15AE1BE018F
:105350006F5F7F4FC8010E94FF11882309F487C047
:105360004DE559E1BE016F5F7F4FC8010E94FF11FB
:10537000882309F47CC04BEE59E1BE016F5F7F4F7B
:10538000C8010E94FF11882309F471C04BEC5AE157
:10539000BE016F5F7F4FC8010E94FF11882309F48F
:1053A00066C01092010380910E0390E044E050E04B
:1053B000BE016F5F7F4F8A5E9C4F0E94053521E0E2
:1053C0002093C402892B09F03FC0E12C4AC08623F8
:1053D0006ACFF090B902FF2009F49DCF8091B70207
:1053E0009091B8020E94C104449708F494CF44E01D
:1053F00050E066E073E0C8010E940535892B59F042
:1054000084E0E6E0F3E0D80101900D928A95E1F79F
:105410001092B90281CFF12CFBCF8091BA0290910A
:10542000BB020E94C104843F914008F083CF809169
:10543000C402882351F284E0FE013196DF011D92FF
:105440008A95E9F71092C402E0910E03F0E0EA5E5B
:10545000FC4F89819A81AB81BC8180839183A28337
:10546000B3838E2D8F296596EEE00C946434809181
:1054700001038F3F31F08F5F809301038A3008F47E
:1054800092CF0E94A41C9093BB028093BA02CFCF0C
:10549000C0900E03D12CF601EA5EFC4F6F0184E050
:1054A000F801A2EDB2E001900D928A95E1F764E077
:1054B00070E082ED92E00E9454058093D10284E076
:1054C000E6EDF2E0D60101900D928A95E1F7809029
:1054D000DA029090DB02A090DC02B090DD028091B5
:1054E000BC029091BD02A091BE02B091BF0288168D
:1054F0009906AA06BB06B1F08092BC029092BD024A
:10550000A092BE02B092BF020E94D004861A970AEF
:10551000A80AB90A8092020390920303A09204039E
:10552000B092050388E0EEEDF2E0A2E2B5E0019072
:105530000D928A95E1F71091E602112349F08091CE
:105540009D03811105C00E944D2480E00E945706F2
:1055500010939D038091A604811183CF6091C002B6
:105560007091C1028091C2029091C3020E94A50471
:10557000672B682B692B09F474CF0E94D0046093C9
:10558000C0027093C1028093C2029093C3020E9432
:10559000B0129C0198E0E7EEF2E0DE011196019076
:1055A0000D929A95E1F78F819885009729F0281739
:1055B000390711F00E947D12FE01719685E0DF012E
:1055C0001D928A95E9F749895A896B897C898D8969
:1055D0000E944D142A833B834C835D836E8365E078
:1055E00070E0CE0102960E945405898388E0FE0196
:1055F0003196A7EEB2E001900D928A95E1F7E5CEE3
:10560000AEE1B0E0E6E0FBE20C9444344B8B5C8B03
:105610006D8B7E8B8F8B988F911110920C04188A52
:10562000198A1A8A86E0FE017396DE011A960190A5
:105630000D928A95E1F78E858823B1F061E0CE0165
:105640000A960E94151161E0CE010A960E9415117A
:105650006C018F8520E5C2162CE7D20689F48823D9
:1056600029F181E0809386010A851B852C853D8583
:105670004E855F85688979898A890E94F822C9C028
:1056800031E5C3163CE7D30629F4882379F00E945C
:10569000AC23EACF42E5C4164CE7D40639F488239C
:1056A00029F0809186018111F2CFDBCFF5E5EF2E55
:1056B000F1E0FF2E412CB12CA12C66246394712CB7
:1056C000B7E03B2ECE0101969A8F898F2224239436
:1056D000F7014081518188248A94982C60E0262F1C
:1056E00030E0F901EE0FFF1FE40FF51F8591949153
:1056F000C816D90609F44901892B11F06F5FEFCF65
:1057000010E0FFEF8F169F0609F444C0F7014481B3
:1057100010918601812F411180E0182F1170F7013F
:10572000558086819F85992309F4FAC0112309F4D5
:10573000F7C0511014C09301082C01C0220F0A9425
:10574000EAF7822B868380910A0490910B04C2971A
:1057500030F422E330E030930B0420930A04C301B9
:1057600002C0880F991F6A95E2F70197F701268119
:105770002817190679F4809181049091820400978A
:1057800009F44BC00E94C104C39708F446C0F70156
:10579000248211E0412AFFEFAF1ABF0A27E0E20E90
:1057A000F11C37E0A316B10409F092CF8F8588234E
:1057B00009F415C1442009F412C10E94A41C90935D
:1057C00082048093810480910E04883010F591E06A
:1057D000980F90930E0499E0FE013A96DE0111961F
:1057E00001900D929A95E1F74DE0849FC00111243C
:1057F000815F9B4F29E0FE013196DC0101900D9203
:105800002A95E1F72FEF3FEFFC0132872187D486FD
:10581000C3866E96E2E10C94603480917F046091BF
:105820008004982FF0E0E0E0861314C090937F048A
:10583000EE16FF0609F4AECF90E0FC01EE0FFF1F5D
:10584000E958FB4FB182A08201968370992780931B
:105850008004A0CF882E912CF401EE0FFF1FE95891
:10586000FB4F20813181B0E0A0E02730310538F4D2
:10587000329ED001339EB00D1124AB5ABE4F2D91F4
:105880003C9111973E8F2D8F00E070E0512CE52D5B
:10589000F0E0EE0FFF1F2D8D3E8DE20FF31F2591DF
:1058A000349121153105E1F0F7010190F081E02DEF
:1058B000FC8FEB8F70E005C02417350709F4012F2A
:1058C0007F5FE72FF0E0EE0FFF1F4B8D5C8DE40F45
:1058D000F51F459154914115510571F75394D7CF58
:1058E000002329F0751530F0FD01109721F4F0E048
:1058F000E0E010C0F7012482EE16FF0621F4909339
:105900007F04102F47CF981305C0AE17BF0711F4BF
:105910009F5F937094012F5F3F4F822F837084CFDE
:1059200090E051101FC0930102C0220F331F6A95EF
:10593000E2F7215031092817390731F4442309F4DB
:105940004CC0C5010E946A05C301082C01C0880F24
:105950000A94EAF7982F9095F70186818923868328
:10596000152D18CFAC01082C02C0559547950A9407
:10597000E2F7BA01617077279C0121503109822337
:105980009323892B31F5672B21F1F70182819381D4
:10599000892BE1F0E98DFA8D232D11922A95E9F7F3
:1059A0000E94A41C282F8B839C8334E03D83F70145
:1059B00082819381782F8887998709811A813C8118
:1059C00044E05E816F81892F0E94F822F7011582E1
:1059D000BBCFF42FF1705F2EB7CF512EB5CF909182
:1059E0007F0480918004981739F00E94BB23F1E076
:1059F0004F1609F40ECF38CE0E9463231092820412
:105A0000109281040E949D05F2CFA6E0B0E0EBE089
:105A1000FDE20C9452340E94A41C8C018091B502CA
:105A20009091B6028017910781F019821A820E9424
:105A3000A41C682F49815A81792F80E090E00E9450
:105A4000002B1093B6020093B5022696E4E00C9466
:105A50006E341F921FB61F9211248F939F93AF93A2
:105A6000BF9380918904811113C080918A04909121
:105A70008B04A0918C04B0918D044196A11DB11DA1
:105A800080938A0490938B04A0938C04B0938D042C
:105A9000BF91AF919F918F911F901FBE1F9018953E
:105AA000CDB7DEB763970FB6F894DEBF0FBECDBF9C
:105AB00085B7806885BF85B7806885BF84B7877FD5
:105AC00084BF0FB6F894A895809160008861809398
:105AD0006000109260000FBE80E890E00FB6F8946E
